:2000000000802020AF3A0000772F0000772F000000000000000000000000000000000000EB
:20002000000000000000000000000000772F00000000000000000000772F0000772F0000CE
:20004000772F00000D2E0000772F0000772F0000772F0000772F0000772F0000772F0000DB
:2000600000000000772F0000772F00000000000000000000772F0000772F0000772F000042
:20008000E1380000772F0000772F0000772F0000772F0000772F0000000000000000000009
:2000A000772F0000772F00000000000000000000772F000000000000772F0000772F000002
:2000C00000B5A7B00126B0050890032001040C9131040291109040030B90B0030390350317
:2000E0001920C0010D907702340203F011FC2A4808990160079404600995056004460D9855
:2001000003F0C6FC02F03EFD244D28461038149007600A9727600B9820600C982060002438
:200120001F4F38462146224603F09CFC384622942146324603F096FC1A480068010E0222E4
:2001400011404001C00F08181749087017480068C10C1140C001C00F08181549087015487E
:200160000260026002990160134802600692026001601248016831430160114801680E96A9
:2001800031430160039828600E4A10681168091A772928D818E0C046A0120A40A0320A4045
:2001A0000080864080130A404F07202080330A405007202080E200E000E100E0049886408D
:2001C000045808402007202030BF1168091A772909D830BF1168091A772904D830BF116899
:2001E000091A7829F0D30E98C2070307C503039814990860FC480560FC490B600C46103C90
:20020000226023600B600A6023600B60226023600B600A6023600B60226023600B6022605C
:2002200023600B60226023600B600A60236005600B60226023600B60226023600B600A6059
:2002400023600B60226023600B600A6023600B60226023600B600A6023600B60226023601B
:2002600005600B600A6023600B60226023600B600A6023600B60226023600B600A60236031
:200280000B600A6023600B600A6023600B600A60236005600B60226023600B600A60236029
:2002A0000B60226023600B600A6023600B60226023600B600A6023600B600A6023600B60EB
:2002C0000A60236005600B600A6023600B600A6023600B60226023600B60226023600B60D1
:2002E000226023600B60226023600B60226023600B602260236005600B60226023600B6069
:20030000226023600B600A6023600B60226023600B600A6023600B600A6023600B60226073
:2003200023600B602260236005600B600A6023600B600A6023600B600A6023600B600A6088
:2003400023600B600A6023600B600A6023600B600A6023600B600A60236005600B600A6080
:2003600023600B60226023600B600A6023600B600A6023600B600A6023600B600A6023602A
:200380000B600A6023600B600A60236005600B60226023600B600A6023600B600A60236028
:2003A0000B600A6023600B60226023600B60226023600B600A6023600B60226023600560D8
:2003C0000B600A6023600B600A6023600B600A6023600B60226023600B600A6023600B60E2
:2003E000226023600B600A6023600B600A60236005600B600A6023600B600A6023600B60C8
:20040000226023600B600A6023600B600A6023600B600A6023600B600A6023600B600A60A2
:20042000236005600B600A6023600B600A6023600B600A6023600B600A6023600B600A609F
:2004400023600B600A6023600B60226023600B600A60236005600B60226023600B600A604F
:2004600023600B60226023600B600A6023600B600A6023600B600A6023600B600A60236029
:200480000B600A60236005600B60226023600B60226023600B600A6023600B600A6023600F
:2004A0000B600A6023600B600A6023600B600A6023600B600A60236005600B602260236007
:2004C0000B60226023600B600A6023600B60226023600B60226023600B600A6023600B60B1
:2004E000226023600B600A60236005600B600A6023600B600A6023600B600A6023600B60C7
:20050000226023600B600A6023600B600A6023600B60226023600B600A60236005600B608E
:20052000226023600B600A6023600B600A6023600B600A6023600B600A6023600B600A6081
:2005400023600B600A6023600B602260236005600B60226023600B60226023600B6022601E
:2005600023600B600A6023600B60226023600B60226023600B60226023600B6022602360E0
:2005800005600B60226023600B60226023600B600A6023600B60226023600B6022602360DE
:2005A0000B600A6023600B600A6023600B602260236005600B60226023600B6022602360D6
:2005C0000B60226023600B60226023600B600A6023600B600A6023600B600A6023600B60C8
:2005E0002260236004E0C046A0320A40A0120A4005600B60226023600B60226023600B6044
:200600000A6023600B60226023600B60226023600B600A6023600B60226023600B60226058
:20062000236005600B600A6023600B600A6023600B60226023600B60226023600B600A606D
:2006400023600B600A6023600B600A6023600B600A60236005600B60226023600B600A6065
:2006600023600B60226023600B600A6023600B600A6023600B60226023600B600A6023600F
:200680000B600A60236005600B60226023600B600A6023600B60226023600B600A6023600D
:2006A0000B600A6023600B60226023600B60226023600B600A602360139505600B602260B0
:2006C00023600B600A6023600B60226023600B600A6023600B60226023600B602260236097
:2006E0000B60226023600B6018922260199312942360229E199F129DF1B2229C204623917C
:2007000002F044F82046F249149A189B139C14600F600B602F600F600B602F600F600B60DA
:200720002F600F600B602F600F600B602F600F600B602F600F600B602F600F600B602F601D
:2007400014600F600B602F600F600B602F600F600B602F600F600B602F600F600B602F6018
:200760000F600B602F600F600B602F600F600B602F6014600F600B602F600F600B602F60F8
:200780000F600B602F600F600B602F600F600B602F600F600B602F600F600B602F600F60DD
:2007A0000B602F6014600F600B602F600F600B602F600F600B602F600F600B602F600F60B8
:2007C0000B602F600F600B602F600F600B602F600F600B602F60001D40B2002897D5761CAF
:2007E0002398072888D30E9E700401907003049001F01CFCB7490870B74800240460B748F5
:200800000460B7480460B74804604460B6480480B6480068B6490860B648047072B6B64922
:200820000C7062B625A8401C05900F9402E00E9E0F9CB14972B60878002815D00878401EFD
:20084000087062B6AD480068012120918D040540AF0CAB490878B84209D1AA49087807285D
:200860003FD8401C08703CE062B630BFE2E70F70A4480470002D3FD0A348007800283BD0F0
:200880009A480068A1490968401AA149891C884202D2A048067022E09B4804709D4804701C
:2008A0009D490878401E072816D80C709B48048002F050FD86480B9901600C990160984C78
:2008C00020460F990F9A03F0CDF8012220460F9C214603F0C7F802E0002001F0A9FC8948F3
:2008E000007890490978CA1B514251410828304600D10846002852D08A480078002803D1C7
:200900003146C90704D016E087490978C90712D17648006885490968401A7D49884261D939
:2009200081480670784804707A480470012001F07FFC7C48007874490978002900D1304697
:20094000002D314600D10146C8074BD1674800686E490968401A6E49884243D900256A48E3
:2009600005706C4805706C490878401E072836D80D706A48058002F0EDFC55480B990160D8
:200980000C990160664C204629462A4603F06AF8012220460F9C294603F064F822E0614868
:2009A0000770002D0DD0514800686049086000205D4908705749097801299DD1524908709A
:2009C0009AE759480078002896D152490878012867D100200870022001F02AFC8CE700200E
:2009E00001F026FC4C480578082D58D82098A8405D21890008423D4E00D1C1E03768354864
:200A00000078012800D0BBE03A480078002806D1374800683168081A052800D2B0E0354823
:200A20000470472024A9022201F020FE002833D024A92F480068384A1578874200D19FE0DC
:200A4000381A142800D314202390098849BA0AB237480168531A6C1F36480178012C27D8FB
:200A6000042925D3D817229119464140081A229983281DD8D0171B4C0ACC083C89184341C5
:200A80000AC4194800882C49884202D0401C164908800F98124970E01F48057870E0134E64
:200AA0006EE019480670114800681849086023E7012C0F9801D8002904D10A49086048606F
:200AC000094908801D480078022839D0044840E0A0120A405407202014072020180720206F
:200AE00004072020E806202042072020200720201C072020530720204E07202080130A401E
:200B00005C0720205E0720205A07202034072020E70300005D0720205F07202040072020B6
:200B200000808640590720205B072020380720200C07202058072020FFFF00006007202017
:200B4000B34C2068191ACA17920F891889100B1820460360239858434000AE4909684018DD
:200B600023908324214602F0B5FCAB4A11684118116044432398001BA6490860A7480760CF
:200B8000681E072814D8A64800683168081AA54988420DD30A20A44908700025A3480580E7
:200BA00002F0D8FBA2480B9901600C99016096E2082D00D98DE22098A8408A21084271D1AF
:200BC00045218900084200D14CE19948089D0560079F0760099C04600D9802F059FF954E0B
:200BE00030682390129805609148076004600D9E304602F04DFF8F48006822908C490D6065
:200C0000129807600C60304602F042FF8948006821901298056012980760854804603046FD
:200C200002F036FF834800681F9081480560076012980460304602F02BFF7E4800681E909A
:200C4000129805607A48076012980460304602F01FFF784800681D907548056012980760C0
:200C600012980460304602F013FF724800681C901298056012980760129D2C60304602F05B
:200C800007FF6C48026872B66B4801686B48006862B66B4B1B78012B00D091E101F09CFB7A
:200CA000684E27E26248089F0760079D0560099C04600D9802F0ECFE5E4E30680001C00F16
:200CC0002390129807605A48056004600D9E304602F0DEFE57480068800E069908402399BE
:200CE0004018239052490F60129805600C60304602F0CEFE4F480068400E042122910840C3
:200D0000239940182390129807601298056048480460304602F0BCFE46480068000E0821A9
:200D20002191084023994018239041480760056012980460304602F0ABFE3E480068C00DC3
:200D400010210140239808182390129807603848056012980460304602F09AFE35480068AA
:200D6000800D20210140239808182390304807601298056012980460304602F089FE2D4876
:200D80000068400D4021014023980818239012980760129F3D603C60304602F079FE254827
:200DA0000068000D802101402398014372B622480068224A126862B6C3175840C01AD317AF
:200DC0005A40D21A1018002900D122E11E49097801290E9A1B4E1D4B00D01FE18109AE29AC
:200DE00000D81BE10A9838603068194908601948027019480178022900D016E10A98149995
:200E000008601648027030681549086006990CE10407202018072020140720201C07202048
:200E2000280720203C7300005F07202040072020A0120A4080130A40F4062020F806202016
:200E4000470720202007202056072020E8062020F00620204D0720206007202055072020C5
:200E6000240720204006800F00D132E1F8480268062D06D1F7480078C007F74800D0F748CE
:200E80008218F7480468171BF6488742384600DBF448F5492392511820180D1A2846FB49D2
:200EA00002F0DAFB681A391AF94A914200DCF84904190D192398281A129F00D0401EF34908
:200EC00002F0CAFB239A954200D0401CF14BEE49491C4143101B0818C11702464A40511ADF
:200EE000ED4A914201D300F0A3FC0B9818600C9818600025E94C204629462A4602F0B2FD0E
:200F000001222046294602F0ADFDE54800781328E44C05D8411CE24A1170132800D0E9E072
:200F2000E14F3888082801D200F080FD074603CC02F026FB0446384602F012FD01461E9064
:200F4000204602F087F92190D84F38687F21C905229101F08CFE04461F908720C0051E9989
:200F600002F078F9214601F082FE0146204602F071F904461E90CE4F3F682198394601F048
:200F800071FE0146204602F01FF9394601F06FFE0446C748046022981E9901F063FE014687
:200FA0001F9802F011F9C14908600021204602F07EFA002801D000F02EFDBF2000F02CFD0F
:200FC000CB175940C91AC3175840C01A4618B9480078012801D000F039FC03982860AD4859
:200FE0000499016002992960019901600022AB4C2046B14D294602F035FD012220462946CC
:2010000002F030FDAD488642AD4E73D901F0B4FF70E00E99AB4A1170A94EA24BAA49097844
:20102000022937D0A94A904234D9A9480078012801D100F03AFC0728A64C01D000F067FCDD
:2010400072B60020A4490860A449086062B63168A34A11608B4909683268A24B1870A24B4E
:201060001860A24B1A60A24A1160A249087091490870A14908702070FF21A04A1170A04919
:20108000209A0A709F4908709F4908809048219901702FE031689D480068091A142929D3F8
:2010A00014309A4908609A480088801C81B22429084600D32420964A1080142900D3142101
:2010C00030680A4600F0A6FE02F0DCFC002811D060E570480B9901600C99016000256F4CD9
:2010E000204629462A4602F0BDFC01222046294602F0B8FC874800780128664A0AD1864899
:2011000000683168081AC82804D30A9810600020804908708148007801280BD180480068FC
:201120003168081AC82805D37E480A99016000207A490870534804687B4800683168081A1A
:20114000642801D2FFF773FB5D48006876490860E017214641400D1A28463230642102F04B
:201160007BFA7249884200D3704871498D42714E00D806460027002C00D4064605D5002E03
:2011800003D025A82D21017001270A253046294602F062FA2390674886420AD93046664934
:2011A00002F05AFA302101437C1C25A8C019017004E06248864200D835E33C467D20C1007F
:2011C000304602F049FACD2109044143C90E6943401A30210143671C25A800190170584CF5
:2011E0006421304602F038FA21464143C90C6943401A30210143781C25AAD1550746204639
:20120000239C6043C00C6843201A3021084325AAD319D0552E2058706543701B08439870A3
:201220000020D8701578002D00D1B2E105992A46444B06E09A5C14180A78A01D491C002AB5
:2012400014D02D3AD2B20C2AF4D91222F3E7C0463007202057072020C063FFFF409C000096
:201260001407202020BF02003F7E050010980102354802F0D0FBE0B28021081A80B24008BC
:2012800025AB6AE0140720203F7E0500407E0500E040FDFFA0120A40DD0500000080864014
:2012A00058072020E806202042072020100720200807202046072020FC080000EF5500005D
:2012C000200720205607202060072020AF3B00005F0720204A072020F4062020F8062020CA
:2012E0002807202053072020040720201C072020E4062020470720204B072020490720205D
:20130000480720204C072020400720202C072020440720204D072020F006202055072020C0
:2013200024072020A0320A403C0720209F8601000D420F000F27000010270000E7030000C8
:20134000CDCC0000443B0000000020201046119B1D780C30002D00D120E129462D39C9B213
:201360000C29109A1692F94A159217D8F84ACA40D207109A1692F54A15920FD01C46EBB2D2
:2013800003222E2B209B169300D016928900F14B59584A43F0498918159123465B1C1193EC
:2013A00000231B9305E0901D179B5B1C16998B42CCD0024615981793C05C23901B981A92BC
:2013C00004E01D98801C06281A9AECD01D9010181C90C0B21E9010201B9B03E05B1C801DBC
:2013E000072B64D02399D940C907F7D0014610391F91411FCCB2E408072222921140209F24
:201400003E468E40E101D54A51181E9D491980390C7834430C70011FCCB2E608062221925C
:2014200011403A468A40F101CC4C6118491980390E7816430E70C11ECAB2D208229C2140C2
:201440003E468E40D101C54A511849192C4680390A7832430A70811ECAB2D208219D2940D6
:201460003E468E40D101BD4A5118091980390A7832430A70411ECAB2D208229D29403D462C
:201480008D40D101B54E7118091980390A782A430A701F9A21990A409740F82202401201DA
:2014A000B2181219803A14783C43147096E71C98401CC0B21E900027102004E07F1C801DCE
:2014C000072F00D17DE7239BFB40DB07F6D0014610391F91441FE5B2EE08072122910C40A9
:2014E000209B1946A140F4019C4A14191E9D6419803C26780E432670011FCCB2E6080622BC
:20150000219211401A468A40F101944C6118491980390E7816430E70C11ECAB2D208229CE7
:2015200021401E468E40D1018C4A511849192C4680390A7832430A70811ECAB2D208219D56
:2015400029401E468E40D101844A5118091980390A7832430A70411ECAB2D208229D2940BE
:201560001D468D40D1017D4E7118091980390A782A430A701F9A21990A4019469140F822CA
:2015800002401201B2181219803A13780B43137094E703200102714802F03DFA00216F4890
:2015A00023906F4E1B910AE01D98000236182399091823911F99062901D1FFF738F91F91FF
:2015C000C80166490918229165490818219080271B9C2046634D02E0401C802811D0239949
:2015E000095C325CFBB2802B034603D1914204D1F2D004E03B469142FAD01F46ECD00446AC
:20160000EAE778B201211F9A1D910A431E9200280BD4F8B21C901E9901F0B8F8229B199826
:20162000E1B220911C9A8A422ED91E98C0014B49091822914A4908182190802000210C4687
:20164000054602E0491C80296BD0239A5218125C73181B5CEFB2802F0F4603D19A4204D153
:20166000F0D004E02F469A42FAD03D46EAD00C46E8E71C601060229B5A5C219C62547F1CE0
:20168000F9B2209A9142D0D8F9B25B56149A139C146028602A46103A002B2C4600DA14462A
:2016A000189820601998106028605C062C4600D51446189820601998106028609C062C4661
:2016C00000D5144618982060199810602860DC062C4600D5144618982060199810602860A6
:2016E0001C072C4600D51446189820601998106028605C072C4600D5144618982060199868
:20170000106028609C072C4600D51446189820600446199810602860DB072B46A9D0134645
:20172000A7E768B21F99891C1F910028199F00D53AE7E8B21E901F9901F028F82298E1B2C0
:2017400020911E9A8A421CD92EE7C0465F3B0000FB1F0000B83A0000EC3A00000000202038
:2017600000032020A0120A401460199F07602298425C219B5A546D1CE9B2209A914200D94B
:2017800012E7E9B24256149B139C1C60D54B1F60002A129800DA0346189C1C60199B036066
:2017A000D04C23605306234600D50346189C1C60199B0360F64C23609306234600D503467E
:2017C000189C1C60199B0360F14C2360D306234600D50346189C1C60199B0360EC4C2360A0
:2017E0001307234600D50346189C1C60199B0360E74C23605307234600D50346189C1C603A
:20180000199B0360E24C23609307234600D50346189C1C60199F0760DD4B1F60D2071A46B0
:20182000A2D00246A0E7642EDA4C00D3D8E4E6E40F9AD94C22606260D84C2280D84C2270C8
:20184000D84A914200D28DE0D74D8DE01B9623980001C00F2299890E069E31400918219846
:20186000430E0420229003405B181F98000E08210840C0181E9BDD0D10231D4028181D9C51
:20188000A40D20252C4020181C9C640D40273C402018120D802414400443FF2C239477D1E2
:2018A0000F98C2490880C24E28E10029C14C00D1FBE172B60020C0490860C049086062B6B0
:2018C0003168BF4A1160BF490860BF49086018605860B24908803168BC4A1070BC4A1060CD
:2018E000BC4A1160BC490860BC490870BC490870BC4908702070FF21BB4A1170BB49209A99
:201900000A70BB490870A94908800220BBE072B60020A9490860A949086062B63168A84AFB
:201920001160A84909683268A84B1870A84B1860A84B1A60A84A1160A8490870A8490870B2
:20194000A84908702070FF21A74A1170A749209A0A70A749087095490880A64822990170F0
:20196000FFF7C8FBE122D500049ABF3A914201D2A14D6335012842DB039838600498186086
:201980000C98186029460025F74C2046FFF7AAFB22462098024021925242FF205E30824338
:2019A000204630401F9000D0FA3AF14E22982040229000D084E0214000D085E0234000D096
:2019C00086E0254000D087E0274000D0FA321F984008219C0019229CA4080019C908401821
:2019E0001909401869094018B9094018239F79B2002979D400287BD1E94800887EE00B98F8
:201A0000186002983860019818600021D64C20460A46FFF768FB3F200106204601F027F9DC
:201A200001F02AFFDF490860D94FD84C256065603D80D34823990160D2480560D248056073
:201A40003068D4490860D4480570D44C207805281DD1C6480B9901600C990160C24C204678
:201A600029462A4601F0FEFF01222046C74C294601F0F8FF256065603D80CB48057030687F
:201A8000CB4908600620C5490870FFF733FB72B6CB480560CB48056062B6CB48058030689A
:201AA000CA490860306800F0F9FF3068C0490860C7480570BA48058007202070FFF71AFB55
:201AC000963A214000D179E7323A234000D178E73232254000D177E79632274000D075E752
:201AE00075E7C046A0120A40AF2149005218401CC1B210B201F0EEFCA949088004B20998C8
:201B000060386043AF21490001F0E4FCB249884200DCB1487D218A01904200DB1046AF4AE1
:201B20009042024600DCAD4AC92C0B9B03DC039B129C2360049B904C15198C4A13600C9AD7
:201B400003D0029A129B1A60019A8B019D4200D31D468949091AC8178143994200DB194606
:201B6000824802600027804C20463A4601F07AFF012220462946154601F074FF239800285C
:201B80003CD097480E9C04709648077039464BE0A0120A40CDCC0000E806202042072020F1
:201BA0005807202031750000FC08000040072020200720204A072020F4062020F8062020E5
:201BC00028072020140720201807202053072020040720201C072020E406202047072020DC
:201BE000460720204B07202049072020480720204C0720205F072020DD0500007848007854
:201C00000128149A774B0E9C0CD177481B99814208D31878042823D2411C1970C01E41429B
:201C2000414101E00021197052481B9A824200D901270029204600D13846012801D0FFF7B5
:201C400059FA4F480068694A1268801A002901D0149A0AE051490978082929D1FEF79AFF05
:201C60004748006861490968401A0A99129B196031685F4B19605F490C704C49097802290E
:201C800006D10A9911605C490C7031685B4A11604249097808290BD147480178072904D85C
:201CA000481C454A1070072936D10920FEF773FF72B643490A684349096862B6504B98423A
:201CC00003DC504B984202DCFF254F480570D0174240101ACA175140891A814201D901203C
:201CE0000AE0884201D9002006E000202C49095E002903D00029F2DC44490870354804706B
:201D00000020434908703168294A11602449088000F062FBFFF7EEF918490978002901D126
:201D2000FEF738FF25494843224908600F480B9901600C99016000250B4C204629462A4688
:201D400001F090FE01222046294601F08BFE0F48056045600E480580134805703068144991
:201D6000086005208FE6C04600808640A0120A4020072020EF550000FC08000054072020CF
:201D8000140720201807202004072020E8062020420720201C072020530720205F072020E4
:201DA000400720200C072020580720206007202028072020300720205707202020BF02009E
:201DC000F4062020F8062020440720202C0720205607202047072020C0E0FFFF04F7FFFFCB
:201DE0004B0720204A072020823E0000E4062020F00620204D072020550720202407202005
:201E00008713000078ECFFFF49072020480720204C072020F0B587B07A4C237E012B00D0D5
:201E2000EEE0059014231429029100D31946142A104600D318460392019121820090608205
:201E4000EFF3108372B6704C2068704C2468002B00D162B66E4A1768C31B6E490E68A51B43
:201E6000106006940C60DC1763401C1BD460EB175D40EB1ACB600490B84201D00598906030
:201E80000698B042039F029905983ED1002940D0002F42D0FF262C36002904D05C4A956828
:201EA000451BB54206D8002F3AD05A4A9568401BB04235D9534F0498386006987860BC6050
:201EC000FB6001267E7655480168B14301600025514C204629462A4601F0C4FD20462946A3
:201EE000324601F0BFFD4E480C210160032041034C4A11600004106045480582454805828F
:201F00003D617D613D7607B0F0BD424A90600029BED13F4A9060002FBCD13E4A9060B9E7AD
:201F2000002000291AD00199091B394A546864183D4EB44200DC34460525EE01B44200DB34
:201F40003446019A8918C9000919A031CD17A9430F25AD01A94203DB294601E004460146B3
:201F6000009D2B4A54601182002F18D0EA1A2948406880182C4B984200DC18460523DB01AD
:201F8000984200DB18465219D2001218A032D3179A430F239B019A4202DB1A4600E002461F
:201FA0001C4F78603A8288B27D218C01604319214E0180198D01294601F04EFB0146002258
:201FC000154801F04FFD388AA84200D328464443A019294601F040FB014601220E4801F0EE
:201FE00041FD0B4BD8680B4CE168064A049D1560069D55609060D160188A9082208AD082DE
:2020000007B0F0BDA0062020FC06202000072020BC062020D006202000808640049886402D
:20202000A0320A40A0120A40C0FEFFFFF0B587B0752005AE01243146224600F017FB00257D
:20204000002800D1DAE03078682800D0D6E006A86B27077080214170022100F06FFE00285E
:2020600000D1CBE0674E30683168091A63290ED830BF3168091A632909D830BF3168091AA6
:20208000632904D830BF3168091A6429F0D306A807704470022100F051FE002800D1ADE01C
:2020A00006A86C21017000254570022100F046FE002800D1A2E006A81A2101700321417099
:2020C000022100F03BFE002800D197E006A81B21017008214170022100F030FE002800D1D5
:2020E0008CE006A81921017004214170022100F025FE002800D181E006A837210170002519
:202100004570022100F01AFE002877D006A8382101704470022100F011FE00286ED0306824
:202120003168091A13290ED830BF3168091A132909D830BF3168091A132904D830BF3168AE
:20214000091A1429F0D3304900250D7030680390306804900295019502E03946C82D2DD268
:202160003068039A801A00097C2823D80878002804D13068049A801A052817D300200F460F
:20218000087030680490472006A9022200F06EFA0028E2D0069801BAC917C0BA029A1218B6
:2021A00002920198484101906D1CD6E730BFC82DD6D303E0A02D01D200251FE0002702989D
:2021C00001992A463B4601F039FC1049086001F0FBFA0F4908600F488121C90501600E4869
:2021E00007600E48076047600D4807800D4807600D48076030680D4908602546284607B0DA
:20220000F0BDC04620072020530720200C072020080720201007202004072020E806202098
:202220004207202014072020180720201C072020F0B583B007464E4D4E4903200204400335
:202240000190086002920A60002428462146224601F008FC012628462146324601F002FCCE
:2022600045480770454D2878002802D1FFF7DEFE287043487102434A1460434A1460434A36
:202280001460434A14605460424A1480424D2A68424B1A60424A1470424A1470022F08D1A3
:2022A00001614148047041480460286800F0F6FB00E0016072B63E48047062B6022F1CD1C8
:2022C0002E480078C00718D13A480A2101703A48048001F03FF827480199016002990160AE
:2022E000234D28462146224601F0BCFB01222846214601F0B7FB03B0F0BD022F1FD11D4808
:2023000001990160029901602E46194D28462146224601F0A7FB01222846214601F0A2FB96
:202320001B48046044601B4804802A4804703068264908601F480521017003B0F0BD72B670
:202340001E4804601E48046062B61E48048028681D490860286800F0A1FB28681B49086011
:202360001B480470144804801248067003B0F0BD00808640A0120A406007202054072020F2
:2023800090320A40140720201807202004072020E806202042072020200720201C072020AB
:2023A000530720205507202057072020300720204E0720205F07202040072020F4062020D6
:2023C000F8062020440720202C072020280720205607202058072020F0B581B04C4C4D4813
:2023E0004D490978002912D0504D51490978091F4A424A4100234F49CC56264696404E490E
:2024000071434E4A1268002C1CDC571A1BE0434900220A70424901250D7042490A800146B4
:202420001039AB030B606B0303602B040B60690401603D4E2046314601F014FB20463146BC
:202440002A4661E08F1AF9173A464A40561AAE421CD203214A0302600904016000252C4CDC
:20246000204629462A4601F0FDFA01222046294601F0F8FA32490878132803D8421C0A706B
:20248000132843D100F078FD01B0F0BD012251032B4C2370012F00DB1A460B46BF3B294F7B
:2024A000294CA64201D3204C01E0E124E4003F789E4201D3254600E06335154C974211D14B
:2024C0000246103A0126B303136001600321090401600027204629463A4601F0C3FA204697
:2024E000394610E003214903016001461039012632040A6071040160002120460A4601F0A7
:20250000B1FA20462946324601F0ACFA01B0F0BD00808640A0120A40540720204707202063
:202520004607202040072020FC080000DD0500005F0720204907202090D6020014072020A8
:202540004C072020480720203175000070B53A4987228A63394804230360CA6308220260B1
:20256000374B9A1C0A600C680C604A604A684A600C68012255062C430C604C682C434C6037
:20258000304C23602568256081254D664B634E6B4E638D67CD678D604D61CD642646103E0B
:2025A00035602646143E35602646083E3560261F3560E363E66BE663E364E66CE6642362CA
:2025C000266A26622363266B2663E5618D64214618390D602365216D21651B491B4B0B6115
:2025E00009231B070B601A4B0B641A490B6892031A430A600A690F239B0413430B611649B7
:202600000A6A164B1A430A620A681A430A6001464039612252020A60026011480168114A63
:202620000A4302601048016A112212051143016201681143016070BD04804240D0320A408A
:2026400081000C00A080424090120A40007343000073439090130A4028100A40800000066E
:20266000A0330A400003030028300A40F0B583B014460D4602AA10700121104600F05EFB23
:20268000002818D03A4F3B4E30687968890614D43168091A092957D8796889060DD4316821
:2026A000091A092950D87968890606D43168091A0A29EAD348E0002452E0304801F0F8F8D0
:2026C0002F48801E2C490860381F01682D4A0A40D1320260200439682B4A0A408018C01D29
:2026E000386030680190002023491839096801E0501CAB54BA6A12071BD0BA68A04202D27F
:20270000431C2A5400E00346B86A00070ED0B868A34202D25A1CE85400E01A46B86A0007B8
:2027200006D0BB68A242E3D31046E3E7184600E01046134AD21E114206D1C90713D131688E
:20274000019A891A0A29CFD300243C600B4D284600F0C2FF284601F0ABF80748084901602C
:20276000204603B0F0BD001B44424441F8E7C04614120F402007202048100F4000000F40B6
:202780008304000000F8FFFFF8FF00F0F0B50125EE03404A16602A073F4C22602346103B27
:2027A000ED071D601A60226025601A6022601D601A6022601D601A60226025601A602260B8
:2027C0004F07274600D51F463D601A6022608F07274600D51F463D601A602260C907214656
:2027E00000D019460D601A602A490E60226025601A60226025601A60226025601A602260DD
:2028000025601A6022600107214600D519460D601A6022604107214600D519460D601A6061
:2028200022608107274600D51F4641B23D601A602260C707274600D01F463D601A60154F70
:202840003E60226025601A60226025601A60226025601A6022601D601A60226000292146CC
:2028600000DA19460D601A6022604106214600D519460D601A6022608106214600D5194649
:202880000D601A602260C00600D51C4625601A60F0BDC046A0320A40A0120A40F0B5394AE0
:2028A0008218394BC0183A4D4C790B79002C22D0466F202B02D00524E70100E0354F2E407F
:2028C000002B00D188273E434667846F2C403C438467446B2D4E34404463846B34408463C7
:2028E00000244465846554688F26F643344054609468344094600C688979202B09D0064606
:202900007036002B15D1641E4460C46E2C40882715E0641E4460C46E2C401E4E3443C466C7
:20292000046F2C40344304671B4D01246707064607E00527FF0164084460C46E2C403C434F
:20294000C46634682C403C433460C46A0F4D2C40C462046B2C4004630024C4640465C46FEC
:202960008F25ED432C40C46714682C401460194302680A4B1340BD220A40D118891C0160FA
:20298000F0BDC04684180000041800008888FDFF24493E0001040000FFFFFFCF4000FFCF36
:2029A000B0B53A4A80184A6842600A78222A56D8930001A4E3589F46552A00005F2A0000E6
:2029C000552A00005F2A00005F2A00005F2A00005F2A00005F2A00005F2A00005F2A0000B9
:2029E0005F2A00005F2A00005F2A00005F2A00005F2A00005F2A0000452A00005F2A0000A9
:202A0000452A00005F2A00005F2A00005F2A00005F2A00005F2A00005F2A00005F2A000088
:202A20005F2A00005F2A00005F2A00005F2A00005F2A00005F2A0000452A00005F2A000068
:202A4000452A0000036803242407A343012464071B1903E0036803242407A34303600B6943
:202A6000C360CB68C46A0A4D25400A4C1C402B19C3620368084C1C400460097A114302683B
:202A80003F239A43194051180160B0BD041800008888FDFF777702007F00FFFFF0B583B0FA
:202AA00000902F492F480322170455030A680124A2430A6000263146324600F0D3FF2948D1
:202AC0003146224600F0CEFF28480C2101600195254805600297076025490E82254A1682EF
:202AE0002548066146610676EFF3108772B6234B1B68234D2D68002F00D162B648C10E60B9
:202B00004E608E6060C2166056609660009F0F60176068C0066046608660C6600473124A3D
:202B20000198106010461038A103016002991160210401600B4D28463146324600F092FF21
:202B400028463146224600F08DFF054A101F7D218901016010682043106003B0F0BDC046F4
:202B60000498864000808640A0120A40A0320A40BC062020D0062020A0062020FC06202055
:202B800000072020F0B581B029480024046029490C60294A1268130E02252B405201D20F6D
:202BA0009A18264B1A70264A1268D30C2B40D201D20F9A18234B1A70EFF3108372B60268CF
:202BC0000868002B00D162B61F4F204914C73C607C60BC6011C10C604C608C601C4E346057
:202BE0007460B460F46034617461B461194801680125A9430160184821462246083F00F077
:202C000031FF154821462A4600F02CFF13480C21016003204103124A1160000410603C82E6
:202C20000A48048234617461347601B0F0BDC046FC0620200007202080130A405107202046
:202C400080330A4052072020BC062020D0062020A00620200498864000808640A0320A401C
:202C6000A0120A40FCB40127FF07794002E0FCB40127FF070C024D002D0E03D1002C52D148
:202C8000FCBC70473C43FF2D50D0A408002900D56442020243001B0E04D1002A43D108001F
:202CA000FCBC70473A43FF2B41D09208002800D552425E1B04D5170022003C0076422B0018
:202CC000192E06D527003741D2191C27F71B7F42BC40002A27D002D55242012700E000277B
:202CE000013B5200FCD51500802635400FD01500202635402C43803208D2150040263540AB
:202D00002C4304D101263602B24300E05B1C5200023308DDFF2B0BD2500ADB051843FF07B6
:202D20003843FCBC70470020FCBC70470800C70FFF07FF20C0053843FCBC7047F0B583B090
:202D40000A462C4E2C4B0921CC012D4F3D687168890612D43968491B092939D8716889061C
:202D60000BD43968491B092932D87168890604D43968491B0929EAD92AE0029201901F4D5E
:202D8000284600F0A9FCA01C1B4908602846029D01992A4600F041FB174BA84218D1301FE1
:202DA0000168184A0A40D032026028043168164A0A408018C01D3060386819461839096865
:202DC000214205D1890712D43968091A0A29F4D300253560094F38461E4600F07DFC3846AB
:202DE00000F066FDE01C3060284603B0F0BD0125FAE7C04614120F4048100F4000000F40AE
:202E00002007202000F8FFFFF8FF00F0F0B581B02649274A11200505104610380768084622
:202E2000103804682C407801800F15D000F072FC20480068010E02220A404001C00F1018A2
:202E40001D490A7892008218D2B21C4B9A561C4B1E68B2181A6008700326002C15D000F0B0
:202E600077FC18480068C10C02220A40C001C00F101815490A7892008218D2B20F4B9A564A
:202E8000124B1C68A2181A6008707006390602D50F4901220A70064A1168803008431060F0
:202EA000024908682843086001B0F0BD48300A4048100A4080130A404F072020243B0000F0
:202EC000F406202080330A4050072020F806202053072020F0B58B4200D1824204D90B005D
:202EE00002000021002040E0002B00D1002A0CD10B00020000210020002B00D1002A01D027
:202F0000C943C04300F0E7F92FE01C0015000B0002000CB4002126002F00FF19764102D2AC
:202F2000491C4029F9D100201E001700FF19764102D2401C4028F9D10E1A210028003200D0
:202F400000F036FD0C0005000CBC00200021A34200D1AA4201D3521BA341404149416D08ED
:202F6000E7073D436408761EF1D5059F002F01D03A607B60F0BDFEE770B51B4C2078022824
:202F800019D172B61C48002505601C48056062B61B4805801B4E30681B4908603068FFF70D
:202FA0007DFD306819490860194805700F4805800320207070BD092020700C4800240480EE
:202FC00000F0C8F903204103094A116000041060084D28462146224600F044FD012228464D
:202FE000214600F03FFD70BD5F07202040072020A0120A4000808640F4062020F80620202A
:2030000044072020200720202C0720202807202056072020002A49D084468B071CD1830729
:2030200022D1102A08D370B4103A78C978C0103AFBD270BC103238D0042A2CD3082A05D3DD
:203040000C2A01D308C908C008C908C008C908C092072AD0920F22E00B780370491C401CAE
:20306000521E22D08B07F7D1C30714D18307D8D0121F12D308C903801B0C4380001D121F11
:20308000F8D20AE008C903701B0A43701B0A83701B0AC370001D121FF4D2121D05D00B7855
:2030A0000370491C401C521EF9D160467047704770B582B01B491C4C204600F097FC1B491E
:2030C0002046FFF7EBFB1A4801681A4A0A40026000250095204629462A462B4600F0A2FCD5
:2030E000204629462A4600F073FC204629462A4600F0B8FC01260096204629462A462B46D0
:2031000000F090FC20462946324600F061FC20462946324600F0A6FC074886600321016000
:2031200002B070BD513B000000808640543B0000049886407F00FFFF0091864040B54200E2
:203140004B005E08164301D006004E4000D4D01A04D20120C90F06D1404204E003D9012039
:20316000C90F00D04042FF263606B24200D8B34200D9012040BD40B542004B005E081643CB
:2031800001D006004E4000D4D01A04D20120C90F06D1404204E003D90120C90F00D04042D9
:2031A000FF263606B24200D8B34201D90120404240BD42004B000020FF2109068A4200D8F3
:2031C0008B4200D901207047FCB40127FF0706004E4001D4002600E03E00020243001B0E76
:2031E00030D03A43FF2B30D00C024D002D0E29D03C43FF2D29D05B194240504042404C4061
:2032000061404C4000B500F0FDFA20BCAE464240504042404C4061404C4025001400002C63
:2032200001D46400013B803401D3013364087E3B08DDFF2B09D2BC43200ADB051843304377
:20324000FCBC70470020FCBC7047FF20C0053043FCBC7047FCB40127FF0706004E40F60F33
:20326000F607020243001B0E2DD03A43FF2B2DD00C024D002D0E26D03C43FF2D26D05B1B9D
:203280000020202164085208A2424041A24200D3121B013904D0002A01D05200F4D18840D6
:2032A000384201D14000013B803001D3013300E040007F3307DDFF2B08D2400ADB0518434F
:2032C0003043FCBC70470020FCBC7047FF20C0053043FCBC70477047F8B5451C0078002357
:2032E000082B32D02F78C2070CD16A780F241440E41C122C0BD102242E57F4B2002E08D46E
:20330000EE1C0EE06D1C4A1C0F7011461AE0AE1C08E02E1DED7800957F252C40009DED0164
:203320002C1912343D0112095219094DAA420ED0D243002C05D08D5C4F1C0D70641E394636
:20334000F7E7354640085B1CCAE72846C5E7F8BDFF0F000070B5114801680125A94301606D
:203360000F4E002430462146224600F07BFB304621462A4600F076FB0A480C210160032070
:203380004103094A1160000410600848048208480482084804614461048370BD0498864095
:2033A00000808640A0320A40A0120A40BC062020D0062020A00620208446830706D0002A5D
:2033C00029D001700130013A8307F8D1042A1CD30906090E0B0219430B041943082A10D398
:2033E0000B00102A09D370B40F24161B22400C000D003AC0103EFCD870BC082A01D30AC091
:20340000083A042A01D302C0043A002A03D0013A8154013AFCD260467047F0B581B0002AF5
:2034200022D091235B01C3180F200402901E0090561E0020DF6927421BD00F5C1F6086425A
:2034400010D0DF69274211D00F187D781D60009D854207D0DD6925420AD0BD781D60C01C11
:203460008242E7D1104604E0002002E0401C00E0801C80B201B0F0BD10B5FFF75FFE0028EC
:2034800001D0002010BD012010BD10B5FFF756FE002801DB002010BD012010BD10B5FFF7D7
:2034A0004DFE002801DD002010BD012010BD10B5FFF761FE002801DA002010BD012010BDE8
:2034C00010B5FFF758FE002801DC002010BD012010BD00001CB5002922D04C08002900D5BD
:2034E000494242105440002800D5404200230A00904201D95200FBE790425B41904200D3BC
:20350000801A914201D25208F6E71900002C00D54042640000D549420200080011001CBDE0
:2035200001000020FFF7C3FD1CBD000080B51149114800F029FA11480168032252020A4358
:203540000260026801210B02134303600022426107224262836B93438363836B12029343A3
:203560008363826A042313438362826A0A43826280BDC046623B000000000F4000120F406A
:203580000CB5030008001900BE228646002803D407D1002905D10CBD002349428341180071
:2035A00006D4013A4000CB0F184349000028F8D5803001D3013200E04000400AD2051043F8
:2035C0007346002B02D50122D20710430CBD0000B0B50A480A4941600A4A51600A4B59605A
:2035E0000A4C61600A4D69600A4901601160196021602960102000F04BFAB0BD00080A40C8
:20360000030000B100280A40008886400048084000080F40010000260D48002101600D48FC
:20362000011F0A680323DB4313400B604168012291434160416812029143416001683022C8
:203640009143016001680F22914301607047C04608030B4004010B401CB50A0017D000231E
:203660000124E407A04200D20400944201D95200FBE790425B41904200D3801A914201D24B
:203680005208F6E719000200080011001CBD01000020FFF70CFD1CBDF0B585B00A9CCD1789
:2036A000DE1769406840401BA94173407240921BB3416E4002AF0097FFF70CFC7140704024
:2036C000801BB141029A039B6B406A40521BAB410CC405B0F0BD000070B50D4D41190F2239
:2036E00012020123DC02465980231E43465148681040A04207D048681040A04203D048685C
:203700001040A042F3D108689843086070BDC0463812000010B50A480068010E02220A4087
:203720004001C00F101807490A7892008218D2B2054B9A56054B1C68A2181A60087010BD42
:2037400080130A4051072020343B0000FC06202010B50A480068C10C02220A40C001C00FF9
:20376000101807490A7892008218D2B2054B9A56054B1C68A2181A60087010BD80330A4015
:2037800052072020343B00000007202070B50A480A4C84420CD00A4D0A4EB54208D02A685B
:2037A0006968501C12789200A25890470835F4E700BF00BF70BDC046743B0000683B0000C4
:2037C000843B0000943B000006B49E22002802D404D106BC7047414204D400E00100013A1E
:2037E0004900FCD5803101D3013200E04900490AD2051143002802D50122D20711430800F9
:2038000006BC7047FCB4020C0B0CFF242402FF34204021400C00444315005D4306005E432E
:203820000F005743320C3B0CA818C01832043B040025A1186841C9186841FCBC70470000CD
:2038400010B50849084C204600F0D0F807492046FFF7A6F8064801680122114301600548BA
:20386000026010BD5C3B000000400840103B0000285008400851084006B54100090E7F3983
:203880000DD41F22511A0CD9864600020122D2071043C8407246002A00D5404206BD002075
:2038A00006BD02000120C007002A00D4401E06BD10B50A4BC118C4580122D2031443C450CA
:2038C0004868000705D04868000702D048680007F6D108689043086010BDC046381200008D
:2038E00008480068C0B201280AD107480168491D016006480178012902D80178491C017001
:203900007047C04620500840200720204E07202080B5FFF75DFEFEF719FEFFF77DFEFFF73D
:20392000C7FBFFF78DFFFFF701FE02489C210022425480BD00062020084880F3088800BFFA
:2039400000BF00F0B6F8002801D0FFF71FFF0020FCF7B6FB012000F0A5F8C04600802020C5
:2039600002B49E21002805D401D102BC704701394000FCD5803001D3013100E04000400A1F
:20398000C905084302BC704770B50122120383180C785D680C26B54334402C195C604978F8
:2039A00083580724A34321405918815070BD000018B520239B1A04D8010000205B42994013
:2039C00004E004009140DC402143904018BD000010B592008018044A83580724A404A34338
:2039E00021405918815010BD3018000010B50122120383180C789C604B7883508978014A15
:203A0000815010BD0C1100000B4611461A4680B5FFF7D2FC80BD0A46002180B5FFF7CCFC49
:203A200080BD000010B5029CA400001911431943014A815010BDC0465018000040B584B0F9
:203A400002AE0096FFF728FE029A039B04B040BD80B50B4603214258C11D184600F01EF893
:203A600080BD000092008018014A81507047C0461018000080B50A46032141581046FFF750
:203A8000CAFF80BD0148407E7047C046A0062020811E091F00BFFCD27047000080B5FFF740
:183AA000B9FA80BD00F001F8FEE700BF704743E7704701207047000021
:203AB8000A0000000B000000000000000000000001000000020000000300000004000000CF
:203AD80005000000060000000700000008000000090000007F417F427F4079494F49497F49
:203AF8000F087F4F49797F497901017F7F497F4F497F080808400000020000003F9C0000B2
:203B18000000000000000000000000000001FF00FF000001010000FF00FF010000FF01008D
:203B3800010000FFFF0000010001FF0012061212121212121212121212080000401F000028
:103B5800200000000800030000000800000000002A
:203B6800D9320000513A0000753A0000020000005F07000000030000FFF00000743B0000EF
:103B8800000020207C3B00005F0720200000000090
:00000001FF
