:2000000000802020233300007F2B00007F2B00000000000000000000000000000000000076
:200020000000000000000000000000007F2B000000000000000000007F2B00007F2B0000C2
:200040007F2B0000152A00007F2B00007F2B00007F2B00007F2B00007F2B00007F2B0000BB
:20006000000000007F2B00007F2B000000000000000000007F2B00007F2B00007F2B00002E
:20008000913100007F2B00007F2B00007F2B00007F2B00007F2B000000000000000000004C
:2000A0007F2B00007F2B000000000000000000007F2B0000000000007F2B00007F2B0000EE
:2000C00000B5A1B00126B0051190032001040E91310402910C9040030D90B0030390350314
:2000E0001920C00115907702340203F069F8294811990160149404601695056004461598CF
:2001000003F000F902F0AEFB234D28461038189007600B9727600D9820600E98206000248B
:200120001E4F38462146224603F0DEF838462146324603F0D9F81A480068010E02221140CD
:200140004001C00F08181749087017480068C10C1140C001C00F081814490870144802606F
:20016000026002990160134802600A92026001601148016831430160104801681396314390
:200180000160039828600E4A10681168091A772927D817E0A0120A40A0320A40008086407B
:2001A00080130A403D01202080330A403E01202080E200E000E100E004988640045808405F
:2001C0000C01202030BF1168091A772909D830BF1168091A772904D830BF1168091A782993
:2001E000F0D31398C2070707C303039818990860FC490B60FC4E3760304610380260076028
:20020000376032600760376002600760376032600760376002600760376002600760376007
:20022000026007603760326007600B60376002600760376002600760376032600760376013
:20024000026007603760326007603760026007603760326007603760026007600B603760F3
:2002600032600760376002600760376032600760376002600760376032600760376032607C
:2002800007603760326007603760326007600B603760026007603760326007603760026083
:2002A000076037603260076037600260076037603260076037603260076037603260076037
:2002C0000B6037603260076037603260076037600260076037600260076037600260076073
:2002E0003760026007603760026007603760026007600B60376002600760376002600760B3
:200300003760326007603760026007603760326007603760326007603760026007603760D6
:20032000026007600B603760326007603760326007603760326007603760326007603760B2
:20034000326007603760326007603760326007603760326007600B60376032600760376062
:2003600002600760376032600760376032600760376032600760376032600760376032604B
:2003800007603760326007600B603760026007603760326007603760326007603760326052
:2003A00007603760026007603760026007603760326007603760026007600B603760326092
:2003C000076037603260076037603260076037600260076037603260076037600260076046
:2003E0003760326007603760326007600B60376032600760376032600760376002600760F2
:200400003760326007603760326007603760326007603760326007603760326007600B60A1
:20042000376032600760376032600760376032600760376032600760376032600760376055
:20044000326007603760026007603760326007600B603760026007603760326007603760C1
:2004600002600760376032600760376032600760376032600760376032600760376002607A
:2004800007600B603760026007603760026007603760326007603760326007603760326081
:2004A00007603760326007603760326007603760326007600B603760026007603760026061
:2004C000076037603260076037600260076037600260076037603260076037600260076075
:2004E0003760326007600B60376032600760376032600760376032600760376002600760F1
:200500003760326007603760326007603760026007603760326007600B6037600260076000
:20052000376032600760376032600760376032600760376032600760376032600760376054
:20054000326007603760026007600B60376002600760376002600760376002600760376020
:20056000326007603760026007603760026007603760026007603760026007600B60376000
:200580000260076037600260076037603260076037600260076037600260076037603260B9
:2005A00007603760326007603760026007600B6037600260076037600260076037600260C0
:2005C000076037600260076037603260076037603260076037603260076037600260076044
:2005E00004E0C046A0320A40A0120A400B603760026007603760026007603760326007603E
:200600003760026007603760026007603760326007603760026007603760026007600B605F
:200620003760326007603760326007603760026007603760026007603760326007603760B3
:20064000326007603760326007603760326007600B6037600260076037603260076037608F
:20066000026007603760326007603760326007603760026007603760326007603760326078
:2006800007600B60376002600760376032600760376002600760376032600760376032607F
:2006A00007603760026007603760026007603760326007601A930B60376002600760376074
:2006C000326007603760026007603760326007603760026007603760026007603760026078
:2006E000076037601B92026007601B9BE3491A9A0A603760036007603760336007603760FD
:200700000360076037600360076037603360076037606107314600D501460B600760376022
:20072000A107314600D501460B60076037601994E107314600D001460B600760CF491A9C52
:200740000C6037603360076037603360076037603360076037603360076037603360076058
:200760003760336007603760336007603760336007600C6037603360076037603360076038
:2007800037603360076037600360076037603360076037603360076037603360076037601D
:2007A000336007600021189A1460376033603546103D2F60376033602F60376033602F6005
:2007C000376033602F60376033602F60376033602F60376033602F60376033602F60146008
:2007E000376033602F60376033602F60376033602F60376033602F60376033602F603760C5
:2008000033602F60376033602F60376033602F601460376033602F60376033602F603760C7
:2008200033602F60376033602F60376033602F60376033602F60376033602F603760336088
:200840002F601460376033602F60376033602F60376033602F60376033602F603760336087
:200860002F60376033602F60376033602F60376033602F60091D49B2002995D5199A541CE7
:20088000072A00D232E71398410401914003049001F0F0FA7A4908707A48002101607A48C7
:2008A00001607A4B18687A4A10607A48017072B6794A0F91117062B601E0744B764A7749E7
:2008C00072B61078002802D162B630BFF8E71078401E107062B6724800680122129292048A
:2008E0000240940C0878A042199206D16D49087807283ED8401C08703BE00C700F986949F3
:200900000870002A684A40D06848007800283CD0186867490968401A6649891C884203D229
:2009200013986549087022E00F9960480170624801701078401E072815D811705F4801805D
:2009400002F03EFA0D9830600E9830605C4E30460F990A4602F0C8FC01223046594E0F994C
:2009600002F0C2FC02E0002001F06CFB474B4D480078554909780A1B51425141082813988A
:2009800000D108460028484A54D04F480078002803D11399C90704D01AE04C490978C9071F
:2009A00016D118684A490968401A4249884200D895E01398454908700F983C4908703E49F4
:2009C0000870012001F03EFB374A304B3E48007836490978002900D113981999002913992E
:2009E00000D10146C8077AD1186831490968401A3049884273D900242C4804702E4804707B
:200A00001078401E072865D814702C48048002F0D7F90D9830600E983060294E3046214687
:200A2000224602F061FC01223046264E214602F05BFC52E024480470199800280CD01868FB
:200A4000234908600020214908701B49097801299BD11649087098E71C480078002894D186
:200A600015490878012801D000F05DFC00200870022001F0E7FA0C4A044B86E7A0320A409B
:200A80004201202000012020040120200C01202008012020410120203C0120204A0120202D
:200AA00080130A404C0120204D0120204801202024012020E70300004B0120203001202069
:200AC00000808640A0120A40470120204901202028012020002001F0B5FACD4ACD4B1078E2
:200AE000022801D0042844D11C68CB480078012846D1CA480078002805D1C94800681968E9
:200B0000081A05283CD30020C449087047201CA9022201F0A3FC002828D01CA9C04800689D
:200B20008442BC4BBA4A2BD00A78497812025118201A142800D3142009B2BA4A1268891AD0
:200B400041434800B8490968401819908321179102F098F9B54A1168411811601799414311
:200B60001998401AB0490860AD480460A94BA84A06E0AF490978022903D1401E0728B3D953
:200B80001078411E072914D8AA4909681A68511AA94A91420DD30A209D4908700024A748C0
:200BA000048002F00DF90D9830600E98306000F032FD082800D9CEE2129981408A2211420B
:200BC0006CD145229200114200D14DE1119830601498306016983060159802F093FB344633
:200BE000974E30681990119E2E601498206016982060159802F086FB9148006817902660AA
:200C00001498286016982060159802F07BFB8C48006810902E6014982860169820601598E4
:200C200002F070FB86480068099026601498206016982860159802F065FB814800680890D8
:200C40002E601498206016982860159802F05AFB7B48006807902660149C2C60169E2E60EA
:200C6000159802F04FFB764800680690119828602C602E60159802F045FB7148026872B65A
:200C8000704801687048006862B6704B1B78012B00D06EE101F098FA00F0C8FC119C3460EA
:200CA0001498306016983060159802F02BFB644800680001C00F19902C60149C34601698EA
:200CC0003060159802F01EFB5D480068800E0A990840199940181990119830602C60169820
:200CE0003060159802F00EFB55480068400E042117910840199940181990119C2C601498BC
:200D0000286016983060159E304602F0FBFA4C480068000E0821109108401999401819902E
:200D20004B480460149C046016982860304602F0E9FA43480068C00D102101401998081824
:200D400019901198286042480460169C2C60304602F0D8FA3A480068800D202101401998A9
:200D600008181990119E3A480660149828602C60159C204602F0C6FA31480068400D4021FB
:200D800001401998081819902E601498286016982860204602F0B6FA29480068000D802111
:200DA00001401998014372B626480068264A126862B6C3175840C01AD3175A40D21A101819
:200DC000002900D100E1234909780129114B00D0FEE08109AE2900D8FAE00B982860186859
:200DE0001D49086013981D490870114801780229174E0A9A00D0F3E00B981899086013988C
:200E0000174908701868174908601146E8E0C0464D0120200C0120204201202041012020AD
:200E200008012020FC00202004012020000120204E012020140120203C73000030012020A3
:200E400080130A40EC002020F000202035012020A0120A4044012020E80020203B012020BE
:200E600043012020100120204906890F00D172E1EF490A6806280AD1EE480178C807EE482B
:200E800000D0EE480029EE4900D001468A18ED480368D11AEC4881421091084600DBEA48B5
:200EA000EA4919925118179318180C1A2046E84902F082F8601A1099091AE64A914200DCC3
:200EC000E449179A801817900C181998201A00D0401EDF4902F070F8199A944200D0401C81
:200EE0000F9BDA49491C41431798101A0818C11702464A40511AD84A914200D331E10D98AF
:200F000030600E9830600024D44E30462146224602F0EAF901223046214602F0E5F9D048C3
:200F200000781328CF4B05D8411CCD4A1170132800D07CE3CC4E3078052800D050E2CB48A4
:200F40000D9901600E990160C44E30462146224602F0CAF901223046214602F0C5F9C14BBA
:200F6000BF4804701868C24908600620BE4908705DE3CB175940C91AC3175840C01A41181B
:200F8000BC4800780128059100D0F2E003982860B648049901600299296001990160002214
:200FA000AE4C2046B44E314602F09EF901222046314602F099F9B14805998142A94B00D825
:200FC00035E301F0DDFD31E31399AD4A1170A54BAC4909780229A54E33D0AB4A904230D99F
:200FE000A14A1078012800D1F4E0072800D071E172B60020A5490860A549086062B61968D2
:201000009B4A11608F4909681A68A24C2070A24C2260A24A1160A249087096490870A149C0
:201020000870A1490870FF21A04A1170A049129A0A70A0490870A04908808B48109901707D
:20104000F5E219689D480068091A142900D2EEE214309A4908609A480088821C96B2242EB8
:20106000304600D3242096490880142E7E4800D314260078072800D0B5E209926D48017890
:20108000C8076D4800D06D48694A126800296C4900D001468A186B480368D11A6A48814205
:2010A0000791084600DB6848684919925118179318180C1A2046664901F07EFF621A07985C
:2010C000801A6449884200DC6248179951180C181998201A089200D0401E5D4901F06CFF87
:2010E00019998C420C46109600D0401C5D4B5749491C414373480068179A8218089E92195C
:20110000A21A5118CA17920F891889100C186D480460099880B20A2800D263E2E017214637
:201120004140081A544A1146C8318842109E00D859E21018C730644901F03EFF022800D39C
:201140000220301A002C024600DC3246454B00DD4AE2064648E20D9830600E9830600024BD
:2011600059E23F4A1370594A914200D2E3E0424BE3E019980001C00F1799890E0A9B194007
:2011800008181099490E04260096314008180999090E08261796314008180899C90D10260C
:2011A00010963140081807998E0D20210E4036180698440D40200440A419120D8026164075
:2011C0002643FF2E199600D0CAE00F983A490880264E3CE1002900D1E0E172B600202B4996
:2011E00008602B49086062B61968214C2160154908603749086019681446264A1070264A3B
:20120000116026490860264908701A4908702549087025490870FF21244A11702449129AD0
:201220000A70244908702449088002202070FEE11C01202045012020E0B1FFFF204E0000E9
:20124000C063FFFF0001202020BF02003F7E0500407E0500E040FDFFDD0500000080864082
:20126000460120200C0120204D012020A0120A401401202034012020FC080000EF550000FE
:20128000440120204E012020AF3B0000EC002020F00020204101202008012020E400202005
:2012A00035012020390120203801202037012020360120203A012020300120201801202091
:2012C000320120202001202088130000317500000401202072B60020F2490860F249086026
:2012E00062B61968F14A1160F14909681A68F14C2070F14C2260F14A1160F1490870F14958
:201300000870F1490870F1490870FF21F04A1170F049129A0A70F0490870F0490880F0480D
:201320001799017083E11398EE4908701868EE490860FFF72AFBE122D300049ABF3A914254
:2013400001D2EA4B6333012865DB03982860049830600E9830600024E54E304619465DE197
:201360003446129A144009946242FF245E34A24334461C40089400D0FA3A009B334000D0C4
:20138000963A179C3440179400D0323A109C344010941FD0323231401ED1304000D0FA328C
:2013A000089C6408099EA4199E08A419179BDE08A419109B1B09E3184909591880090818CB
:2013C000199949B2002937D40028CA4E39D1C34800883CE03140E0D096323040DFD1DFE764
:2013E000C548046072B6AF480460AF48046062B6C24804801868C2490860186801F0BEF9DD
:20140000C04B1868A9490860BF480470B3480480072030700BE10D9830600298286001984A
:2014200030600021B24C20460A461E4601F05CFF012220463146F7E0AF2149005218401CE1
:20144000AC4EC1B210B201F01DFDA449088004B2169860386043AF21490001F013FDAB4930
:20146000884200DCA9487D218A01904200DB1046A74A9042024600DCA54AC92C0D9B02DC58
:20148000039B2B60049BA34C141933600E9A02D0029A2A60019A8B019C4200D31C46179450
:2014A000F749091AC8178143994200DB1946326000248F4E3046224601F016FF0122304601
:2014C0001799179201F010FF1998002808D013987D4908707D48047021468A4B059E19E008
:2014E0001994794800780128864B7D4A774C059E0DD1E44886420AD3207804287D4E25D2AA
:20150000411C2170C01E41424141059E01E000212170199CDC48864200D901240029139851
:2015200000D12046012800D081E061480068634A1268801A002902D06E4E694A0BE0684A41
:20154000117808296B4E2DD10A2028E0584800685A490968401A0B9929601968FB4C2160FC
:201560001399FC4C2170FC490978022909D10B99189A11605A4A1399FB4C21701968FB4C64
:201580002160117808290DD1FB480178072905D8481CFC4B1870072900D022E30920107088
:2015A000FFF7FCFA72B63F490A683F49096862B6FD4CA04204DCFE4CA04204DCFF2017902F
:2015C0004348179C0470D0174240101ACA175140891A814201D90120F3E2884200D8E8E2B2
:2015E0000020EEE2109E32461868B1B292B200F035FB01F081FE434B002818D00A203849D5
:20160000087000243548048001F0DAFB39480D9901600E990160364E30462146224601F01D
:2016200063FE01223046214601F05EFE354BD448007801280BD1CF4800681968081AC828D1
:2016400005D32C480B9901600020CD490870D148007801280BD1D14800681968081AC828E1
:2016600005D3D9480B9901600020CA4908701CA8D6495CC95CC0097801700D480068D449D1
:201680000968204A1268511A64291A4E01D2FFF714F91C490968CE4A116000283CD43230C6
:2016A0003FE0C046EC002020F000202014012020000120204101202008012020E400202024
:2016C0003501202034012020390120203801202037012020360120203A0120203001202051
:2016E0004D0120204801202024012020DD05000000808640A0120A40200120203201202076
:20170000180120200C01202044012020C0E0FFFF04F7FFFFFC0800001CA92D228A713221A1
:20172000081A642101F048FCAA49884200D3A948A9494143CB0D302119910B431CAAD371AB
:201740008308A6494B435B0CCD245C43E40A0A214C431B1B04461790199803431372A04B54
:201760006343DB0C9F4C5C43240C4C431C1B0443547210914B431798C01A199908431792F1
:20178000D07291481A9C046037601B9929602F60376031602F60376029602F60376029602B
:2017A0002F60376031602F60376031602F60376029602F60376029602F6004603760316042
:2017C0002F60376031602F60376031602F60376031602F60376031602F60376031602F60E7
:2017E000376031602F60376031602F600460376031602F60376031602F60376031602F60F2
:20180000376029602F60376031602F60376031602F60376031602F60376029602F604123E1
:20182000189922E002461A9C0C60376030603046103807603760326007603760326007601F
:20184000376032600760376032600760376032600760376032600760376032600760179809
:201860000378002B01D1FFF728F8203B2E2BFA4800D9BEE00022980004A31B58F6489F4676
:20188000FC080000823E0000EF550000EB190000F3190000F3190000F3190000F31900000C
:2018A000F3190000F3190000F3190000F3190000F3190000F319000049190000F319000072
:2018C0007D190000AD190000F3190000B5190000891900009119000099190000BD190000FE
:2018E000B9190000611900008D190000651900005D190000A1190000F3190000F319000030
:20190000F3190000F3190000F3190000F3190000A5190000F3190000F3190000C5190000E3
:20192000C1190000F319000051190000F3190000F3190000F3190000F3190000711900009D
:20194000F3190000E91900000B224EE0E800202012224AE03B0120204E012020109A44E0BF
:20196000072242E0092240E0430120201001202013223AE0E8002020450120200C2234E0BD
:201980003B0120204501202002222EE008222CE00C9A2AE043012020042226E0100120202C
:2019A0000E2222E00F2220E0871300000D221CE078ECFFFF129A18E0062216E0052214E0C0
:2019C000112212E0102210E0A0320A40B03300002C0120200F270000C52000007B140000AA
:2019E000CDCC00009A1900001422052050439A4A101819901798401C1790002304E01B988C
:201A000010602760DB1C1A9C1998C2560C603760002A344600DA2C461B9820602F6037600D
:201A20005406344600D52C461B9820602F6037609406344600D52C461B9820602F6037607E
:201A4000D406344600D52C461B9820602F6037601407344600D52C461B9820602F6037605D
:201A60005407344600D52C461B9820602F6037609407344600D52C461B9820602F6037603C
:201A8000D207324600D02A461998C4181B9810602F600122A2561A9808603760002A00DAA6
:201AA0002E461B9830602F6060490F60560600D529461B9808602F605C490F6096060E467A
:201AC00000D52E461B9830602F600F60D6060E4600D52E461B9830602F600F6016070E4651
:201AE00000D52E461B9830602F600F6056070E4600D52E461B9830602F600F6096070E4630
:201B000000D52E461B9830602F60484E3760D2073246189900D02A461B9810602F60032B5B
:201B200000D17FE60222A2561A98086037603446103C002A00DA26461B98306027603B491E
:201B40000F6056060E4600D526461B98306027600F6096060E4600D526461B9830602760F1
:201B60000F60D6060E4600D526461B98306027600F6016070E4600D526461B9830602760D0
:201B80000F6056070E4600D526461B98306027600F6096070E4600D526461B9830602760AF
:201BA000224E3760D2073246189900D127E7224625E700202049095E002904D0002900DDD6
:201BC00009E5234908701398204908700020214908701968194A11601749088000F0F4FA8A
:201BE00024E514490978002900D1ADE415494843134908600D9830600E98306000240A48E5
:201C000021461646224601F06FFB01220648214601F06AFB0C480470054B186807490860C0
:201C20000520307003E5C04600808640A0120A400C01202042012020300120201401202019
:201C40001C01202020BF02004601202035012020360120203A01202030330000F0B587B018
:201C60007A4C237E012B00D0EEE0059014231429029100D31946142A104600D3184603920B
:201C80000191218200906082EFF3108372B6704C2068704C2468002B00D162B66E4A176829
:201CA000C31B6E490E68A51B106006940C60DC1763401C1BD460EB175D40EB1ACB6004907F
:201CC000B84201D0059890600698B042039F029905983ED1002940D0002F42D0FF262C3632
:201CE000002904D05C4A9568451BB54206D8002F3AD05A4A9568401BB04235D9534F04989C
:201D0000386006987860BC60FB6001267E7655480168B14301600025514C204629462A46C1
:201D200001F0E2FA20462946324601F0DDFA4E480C210160032041034C4A116000041060BB
:201D400045480582454805823D617D613D7607B0F0BD424A90600029BED13F4A9060002FEC
:201D6000BCD13E4A9060B9E7002000291AD00199091B394A546864183D4EB44200DC34463B
:201D80000525EE01B44200DB3446019A8918C9000919A031CD17A9430F25AD01A94203DB6C
:201DA000294601E004460146009D2B4A54601182002F18D0EA1A2948406880182C4B9842CC
:201DC00000DC18460523DB01984200DB18465219D2001218A032D3179A430F239B019A4208
:201DE00002DB1A4600E002461C4F78603A8288B27D218C01604319214E0180198D01294658
:201E000001F0DAF801460022154801F06DFA388AA84200D328464443A019294601F0CCF890
:201E2000014601220E4801F05FFA0B4BD8680B4CE168064A049D1560069D55609060D16083
:201E4000188A9082208AD08207B0F0BDA0002020F4002020F8002020BC002020D000202016
:201E60000080864004988640A0320A40A0120A40C0FEFFFFF0B587B0752005AE0124314626
:201E8000224600F0EBFA0025002800D1CAE03078682800D0C6E006A86B2707708021417086
:201EA000022100F04FFD002800D1BBE05F4E30683168091A63290ED830BF3168091A632985
:201EC00009D830BF3168091A632904D830BF3168091A6429F0D306A807704470022100F027
:201EE00031FD002800D19DE006A86C21017000254570022100F026FD002800D192E006A869
:201F00001A21017003214170022100F01BFD002800D187E006A81B2101700821417002215D
:201F200000F010FD002800D17CE006A81921017004214170022100F005FD002872D006A8F3
:201F40003721017000254570022100F0FBFC002868D006A8382101704470022100F0F2FC47
:201F600000285FD030683168091A13290ED830BF3168091A132909D830BF3168091A1329E5
:201F800004D830BF3168091A1429F0D3284900250D7030680390306804900295019502E041
:201FA0003946C82D2DD23068039A801A00097C2823D80878002804D13068049A801A0528BD
:201FC00017D300200F46087030680490472006A9022200F043FA0028E2D0069801BAC91784
:201FE000C0BA029A121802920198484101906D1CD6E730BFC82DD6D303E0A02D01D20025DF
:2020000010E00027029801992A463B4601F058F90849086008480760084807603068084932
:2020200008602546284607B0F0BDC0460C01202041012020FC002020000120200401202064
:2020400008012020F0B583B00746484D48490320020440030190086002920A6000242846F7
:202060002146224601F040F9012628462146324601F03AF93F4807703F4D2878002802D1AA
:20208000FFF7F8FE28703D4871023D4A14603D4A14603D4D2A683D4B1A603D4A14703D4A1E
:2020A0001470022F08D101613B4804703B480460286800F063FB00E0016072B63848047017
:2020C00062B6022F1CD12C480078C00718D135480A2101703448048000F072FE24480199AF
:2020E000016002990160214D28462146224601F0FBF801222846214601F0F6F803B0F0BDBD
:20210000022F1AD11A4801990160029901602E46164D28462146224601F0E6F801222846D6
:20212000214601F0E1F8274804703068234908601C480521017003B0F0BD72B61B480460D5
:202140001B48046062B61B48048028681A490860286800F013FB28681849086018480470A3
:20216000114804800F48067003B0F0BD00808640A0120A404E0120204201202090320A40F5
:2021800000012020040120200C012020080120204101202043012020450120201C0120203A
:2021A0003C0120204D01202030012020EC002020F000202032012020180120201401202026
:2021C0004401202046012020F0B581B04C4C4D484D490978002912D0504D51490978091FEE
:2021E0004A424A4100234F49CC56264696404E4971434E4A1268002C1CDC571A1BE0434930
:2022000000220A70424901250D7042490A8001461039AB030B606B0303602B040B6069045E
:2022200001603D4E2046314601F05EF8204631462A4661E08F1AF9173A464A40561AAE42DD
:202240001CD203214A0302600904016000252C4C204629462A4601F047F801222046294645
:2022600001F042F832490878132803D8421C0A70132843D100F084FC01B0F0BD01225103B6
:202280002B4C2370012F00DB1A460B46BF3B294F294CA64201D3204C01E0E124E4003F78E8
:2022A0009E4201D3254600E06335154C974211D10246103A0126B3031360016003210904F7
:2022C00001600027204629463A4601F00DF82046394610E0032149030160014610390126CE
:2022E00032040A6071040160002120460A4600F0FBFF20462946324600F0F6FF01B0F0BD17
:2023000000808640A0120A4042012020350120203401202030012020FC080000DD050000B6
:202320004D0120203701202090D60200000120203A012020360120203175000070B53A49AE
:2023400087228A63394804230360CA6308220260374B9A1C0A600C680C604A604A684A609B
:202360000C68012255062C430C604C682C434C60304C23602568256081254D664B634E6BF0
:202380004E638D67CD678D604D61CD642646103E35602646143E35602646083E3560261F6A
:2023A0003560E363E66BE663E364E66CE6642362266A26622363266B2663E5618D642146EA
:2023C00018390D602365216D21651B491B4B0B6109231B070B601A4B0B641A490B68920375
:2023E0001A430A600A690F239B0413430B6116490A6A164B1A430A620A681A430A60014693
:202400004039612252020A60026011480168114A0A4302601048016A112212051143016210
:2024200001681143016070BD04804240D0320A4081000C00A080424090120A40007343002E
:202440000073439090130A4028100A4080000006A0330A400003030028300A40F0B583B0A4
:2024600014460D4602AA10700121104600F06AFA002818D03A4F3B4E30687968890614D4A5
:202480003168091A092957D8796889060DD43168091A092950D87968890606D43168091AB2
:2024A0000A29EAD348E0002452E0304800F058FE2F48801E2C490860381F01682D4A0A407D
:2024C000D1320260200439682B4A0A408018C01D386030680190002023491839096801E0AE
:2024E000501CAB54BA6A12071BD0BA68A04202D2431C2A5400E00346B86A00070ED0B86844
:20250000A34202D25A1CE85400E01A46B86A000706D0BB68A242E3D31046E3E7184600E0F6
:202520001046134AD21E114206D1C90713D13168019A891A0A29CFD300243C600B4D2846E8
:2025400000F07AFD284600F00BFE074808490160204603B0F0BD001B44424441F8E7C046DB
:2025600014120F400C01202048100F4000000F408304000000F8FFFFF8FF00F0F0B5394A17
:202580008218394BC0183A4D4C790B79002C22D0466F202B02D00524E70100E0354F2E40A2
:2025A000002B00D188273E434667846F2C403C438467446B2D4E34404463846B34408463EA
:2025C00000244465846554688F26F643344054609468344094600C688979202B09D0064629
:2025E0007036002B15D1641E4460C46E2C40882715E0641E4460C46E2C401E4E3443C466EB
:20260000046F2C40344304671B4D01246707064607E00527FF0164084460C46E2C403C4372
:20262000C46634682C403C433460C46A0F4D2C40C462046B2C4004630024C4640465C46F0F
:202640008F25ED432C40C46714682C401460194302680A4B1340BD220A40D118891C01601D
:20266000F0BDC04684180000041800008888FDFF24493E0001040000FFFFFFCF4000FFCF59
:20268000B0B53A4A80184A6842600A78222A56D8930001A4E3589F46352700003F2700004F
:2026A000352700003F2700003F2700003F2700003F2700003F2700003F2700003F270000F4
:2026C0003F2700003F2700003F2700003F2700003F2700003F270000252700003F270000E4
:2026E000252700003F2700003F2700003F2700003F2700003F2700003F2700003F270000C4
:202700003F2700003F2700003F2700003F2700003F2700003F270000252700003F270000A3
:2027200025270000036803242407A343012464071B1903E0036803242407A34303600B6989
:20274000C360CB68C46A0A4D25400A4C1C402B19C3620368084C1C400460097A114302685E
:202760003F239A43194051180160B0BD041800008888FDFF777702007F00FFFFF0B583B01D
:2027800000902F492F480322170455030A680124A2430A6000263146324600F0A5FD294824
:2027A0003146224600F0A0FD28480C2101600195254805600297076025490E82254A168242
:2027C0002548066146610676EFF3108772B6234B1B68234D2D68002F00D162B648C10E60DC
:2027E0004E608E6060C2166056609660009F0F60176068C0066046608660C6600473124A61
:202800000198106010461038A103016002991160210401600B4D28463146324600F064FD74
:2028200028463146224600F05FFD054A101F7D218901016010682043106003B0F0BDC04647
:202840000498864000808640A0120A40A0320A40BC002020D0002020A0002020F400202098
:20286000F8002020F0B581B029480024046029490C60294A1268130E02252B405201D20F9F
:202880009A18264B1A70264A1268D30C2B40D201D20F9A18234B1A70EFF3108372B60268F2
:2028A0000868002B00D162B61F4F204914C73C607C60BC6011C10C604C608C601C4E34607A
:2028C0007460B460F46034617461B461194801680125A9430160184821462246083F00F09A
:2028E00003FD154821462A4600F0FEFC13480C21016003204103124A1160000410603C826B
:202900000A48048234617461347601B0F0BDC046F4002020F800202080130A403F0120209E
:2029200080330A4040012020BC002020D0002020A00020200498864000808640A0320A4069
:20294000A0120A40F0B583B00A462C4E2C4B0921CC012D4F3D687168890612D43968491BF7
:20296000092939D8716889060BD43968491B092932D87168890604D43968491B0929EAD952
:202980002AE0029201901F4D284600F055FBA01C1B4908602846029D01992A4600F042FA23
:2029A000174BA84218D1301F0168184A0A40D032026028043168164A0A408018C01D3060A6
:2029C0003868194618390968214205D1890712D43968091A0A29F4D300253560094F384639
:2029E0001E4600F029FB384600F0BAFBE01C3060284603B0F0BD0125FAE7C04614120F4060
:202A000048100F4000000F400C01202000F8FFFFF8FF00F0F0B581B02649274A11200505A5
:202A20001046103807680846103804682C407801800F15D000F01EFB20480068010E022222
:202A40000A404001C00F10181D490A7892008218D2B21C4B9A561C4B1E68B2181A6008705C
:202A60000326002C15D000F023FB18480068C10C02220A40C001C00F101815490A789200E1
:202A80008218D2B20F4B9A56124B1C68A2181A6008707006390602D50F4901220A70064A70
:202AA0001168803008431060024908682843086001B0F0BD48300A4048100A4080130A4005
:202AC0003D012020C1330000EC00202080330A403E012020F000202041012020F0B58B42B8
:202AE00000D1824204D90B0002000021002040E0002B00D1002A0CD10B00020000210020A5
:202B0000002B00D1002A01D0C943C04300F0B9F92FE01C0015000B0002000CB400212600B9
:202B20002F00FF19764102D2491C4029F9D100201E001700FF19764102D2401C4028F9D1A5
:202B40000E1A21002800320000F076FB0C0005000CBC00200021A34200D1AA4201D3521B74
:202B6000A341404149416D08E7073D436408761EF1D5059F002F01D03A607B60F0BDFEE712
:202B800070B51B4C2078022819D172B61C48002505601C48056062B61B4805801B4E30681D
:202BA0001B4908603068FFF7E9FD306819490860194805700F4805800320207070BD0920B8
:202BC00020700C480024048000F0FAF803204103094A116000041060084D28462146224656
:202BE00000F082FB01222846214600F07DFB70BD4D01202030012020A0120A40008086409A
:202C0000EC002020F0002020320120200C012020180120201401202044012020002A49D022
:202C200084468B071CD1830722D1102A08D370B4103A78C978C0103AFBD270BC103238D045
:202C4000042A2CD3082A05D30C2A01D308C908C008C908C008C908C092072AD0920F22E032
:202C60000B780370491C401C521E22D08B07F7D1C30714D18307D8D0121F12D308C9038096
:202C80001B0C4380001D121FF8D20AE008C903701B0A43701B0A83701B0AC370001D121F6E
:202CA000F4D2121D05D00B780370491C401C521EF9D160467047704770B582B01B491C4C22
:202CC000204600F0D7FA1B492046FFF757FC1A4801681A4A0A400260002500952046294650
:202CE0002A462B4600F0D4FA204629462A4600F0B3FA204629462A4600F0F6FA0126009671
:202D0000204629462A462B4600F0C2FA20462946324600F0A1FA20462946324600F0E4FA5E
:202D2000074886600321016002B070BD9933000000808640E4330000049886407F00FFFFF2
:202D400000918640F8B5451C00780023082B32D02F78C2070CD16A780F241440E41C122C4A
:202D60000BD102242E57F4B2002E08D4EE1C0EE06D1C4A1C0F7011461AE0AE1C08E02E1D68
:202D8000ED7800957F252C40009DED012C1912343D0112095219094DAA420ED0D243002CEE
:202DA00005D08D5C4F1C0D70641E3946F7E7354640085B1CCAE72846C5E7F8BDFF0F0000C6
:202DC00070B5114801680125A94301600F4E002430462146224600F087FA304621462A4615
:202DE00000F082FA0A480C21016003204103094A11600004106008480482084804820848EC
:202E000004614461048370BD0498864000808640A0320A40A0120A40BC002020D000202028
:202E2000A0002020F0B581B0002A22D091235B01C3180F200402901E0090561E0020DF6986
:202E400027421BD00F5C1F60864210D0DF69274211D00F187D781D60009D854207D0DD69E0
:202E600025420AD0BD781D60C01C8242E7D1104604E0002002E0401C00E0801C80B201B010
:202E8000F0BD70471CB5002922D04C08002900D5494242105440002800D5404200230A0073
:202EA000904201D95200FBE790425B41904200D3801A914201D25208F6E71900002C00D58E
:202EC0004042640000D549420200080011001CBD01000020FFF7EFFE1CBD000080B511494C
:202EE000114800F095F911480168032252020A430260026801210B021343036000224261FA
:202F000007224262836B93438363836B120293438363826A042313438362826A0A43826211
:202F200080BDC046EC33000000000F4000120F40B0B50A480A4941600A4A51600A4B5960C1
:202F40000A4C61600A4D69600A4901601160196021602960102000F0D5F9B0BD00080A40E5
:202F6000030000B100280A40008886400048084000080F40010000260D48002101600D48A3
:202F8000011F0A680323DB4313400B6041680122914341604168120291434160016830226F
:202FA0009143016001680F22914301607047C04608030B4004010B401CB50A0017D00023C5
:202FC0000124E407A04200D20400944201D95200FBE790425B41904200D3801A914201D2F2
:202FE0005208F6E719000200080011001CBD01000020FFF760FE1CBDF0B585B00A9CCD17DB
:20300000DE1769406840401BA94173407240921BB3416E4002AF0097FFF760FD7140704075
:20302000801BB141029A039B6B406A40521BAB410CC405B0F0BD000070B50D4D41190F22DF
:2030400012020123DC02465980231E43465148681040A04207D048681040A04203D0486802
:203060001040A042F3D108689843086070BDC0463812000010B50A480068010E02220A402E
:203080004001C00F101807490A7892008218D2B2054B9A56054B1C68A2181A60087010BDE9
:2030A00080130A403F012020D1330000F400202010B50A480068C10C02220A40C001C00F31
:2030C000101807490A7892008218D2B2054B9A56054B1C68A2181A60087010BD80330A40BC
:2030E00040012020D1330000F800202070B50A480A4C84420CD00A4D0A4EB54208D02A6894
:203100006968501C12789200A25890470835F4E700BF00BF70BDC046FC330000F03300006A
:203120000C3400001C34000010B50849084C204600F0A0F807492046FFF7A2FA06480168A8
:203140000122114301600548026010BDE1330000004008409C33000028500840085108404F
:2031600010B50A4BC118C4580122D2031443C4504868000705D04868000702D04868000711
:20318000F6D108689043086010BDC0463812000008480068C0B201280AD107480168491D54
:2031A000016006480178012902D80178491C01707047C046205008400C0120203C01202055
:2031C00080B5FFF7B5FEFFF7B9F8FFF7D5FEFFF773FDFFF7A9FFFFF781FE02489C210022FF
:2031E000425480BD00002020084880F3088800BF00BF00F098F8002801D0FFF777FF0020E6
:20320000FCF75EFF012000F087F8C0460080202070B50122120383180C785D680C26B5439D
:2032200034402C195C60497883580724A34321405918815070BD000018B520239B1A04D8FB
:20324000010000205B42994004E004009140DC402143904018BD000010B592008018044ABC
:2032600083580724A404A34321405918815010BD3018000010B50122120383180C789C60EA
:203280004B7883508978014A815010BD0C11000010B5029CA400001911431943014A8150A5
:2032A00010BDC0465018000003228058002805D0401E4A1C00230B701146F7E7704700008B
:2032C00040B584B002AE0096FFF796FE029A039B04B040BD80B50B4603214258C11D18468A
:2032E00000F016F880BD000092008018014A81507047C046101800000148407E7047C046A4
:20330000A0002020811E091F00BFFCD27047000080B5FFF783FC80BD00F001F8FEE700BF4E
:10332000704761E77047012070470000000000000F
:2033300000000000003E5149453E00427F400042615149462141454B311814127F10274542
:203350004545393C4A49493001710905033649494936064949291E08083E0808080808082B
:2033700008006060000000363600007E1111117E7F4141221C7F494949413E4149497A7FF6
:20339000404040407F020C107F080000020000003F9C00000000000000000000000000001C
:2033B000414E474C453A2B3030302E3020444547000001FF00FF000001010000FF00FF0153
:2033D0000000FF0100010000FFFF0000010001FF00080003401F000020000000080000004B
:2033F000452D0000D5320000A9320000020000004D01000000030000FFF00000FC330000F8
:1034100000002020043400004D01202000000000A6
:00000001FF
