:2000000000802020233200007F2A00007F2A00000000000000000000000000000000000079
:200020000000000000000000000000007F2A000000000000000000007F2A00007F2A0000C5
:200040007F2A0000152900007F2A00007F2A00007F2A00007F2A00007F2A00007F2A0000C3
:20006000000000007F2A00007F2A000000000000000000007F2A00007F2A00007F2A000033
:20008000913000007F2A00007F2A00007F2A00007F2A00007F2A0000000000000000000052
:2000A0007F2A00007F2A000000000000000000007F2A0000000000007F2A00007F2A0000F3
:2000C00000B5A1B00126B0051190032001040E91310402910C9040030D90B0030390350314
:2000E0001920C00115907702340202F0E9FF29481199016014940460169505600446159849
:2001000003F080F802F02EFB234D28461038189007600B9727600D9820600E98206000248C
:200120001E4F38462146224603F05EF838462146324603F059F81A480068010E02221140CD
:200140004001C00F08181749087017480068C10C1140C001C00F081814490870144802606F
:20016000026002990160134802600A92026001601148016831430160104801681396314390
:200180000160039828600E4A10681168091A772927D817E0A0120A40A0320A40008086407B
:2001A00080130A403901202080330A403A01202080E200E000E100E0049886400458084067
:2001C0000C01202030BF1168091A772909D830BF1168091A772904D830BF1168091A782993
:2001E000F0D31398C2070707C303039818990860FC490B60FC4E3760304610380260076028
:20020000376032600760376002600760376032600760376002600760376002600760376007
:20022000026007603760326007600B60376002600760376002600760376032600760376013
:20024000026007603760326007603760026007603760326007603760026007600B603760F3
:2002600032600760376002600760376032600760376002600760376032600760376032607C
:2002800007603760326007603760326007600B603760026007603760326007603760026083
:2002A000076037603260076037600260076037603260076037603260076037603260076037
:2002C0000B6037603260076037603260076037600260076037600260076037600260076073
:2002E0003760026007603760026007603760026007600B60376002600760376002600760B3
:200300003760326007603760026007603760326007603760326007603760026007603760D6
:20032000026007600B603760326007603760326007603760326007603760326007603760B2
:20034000326007603760326007603760326007603760326007600B60376032600760376062
:2003600002600760376032600760376032600760376032600760376032600760376032604B
:2003800007603760326007600B603760026007603760326007603760326007603760326052
:2003A00007603760026007603760026007603760326007603760026007600B603760326092
:2003C000076037603260076037603260076037600260076037603260076037600260076046
:2003E0003760326007603760326007600B60376032600760376032600760376002600760F2
:200400003760326007603760326007603760326007603760326007603760326007600B60A1
:20042000376032600760376032600760376032600760376032600760376032600760376055
:20044000326007603760026007603760326007600B603760026007603760326007603760C1
:2004600002600760376032600760376032600760376032600760376032600760376002607A
:2004800007600B603760026007603760026007603760326007603760326007603760326081
:2004A00007603760326007603760326007603760326007600B603760026007603760026061
:2004C000076037603260076037600260076037600260076037603260076037600260076075
:2004E0003760326007600B60376032600760376032600760376032600760376002600760F1
:200500003760326007603760326007603760026007603760326007600B6037600260076000
:20052000376032600760376032600760376032600760376032600760376032600760376054
:20054000326007603760026007600B60376002600760376002600760376002600760376020
:20056000326007603760026007603760026007603760026007603760026007600B60376000
:200580000260076037600260076037603260076037600260076037600260076037603260B9
:2005A00007603760326007603760026007600B6037600260076037600260076037600260C0
:2005C000076037600260076037603260076037603260076037603260076037600260076044
:2005E00004E0C046A0320A40A0120A400B603760026007603760026007603760326007603E
:200600003760026007603760026007603760326007603760026007603760026007600B605F
:200620003760326007603760326007603760026007603760026007603760326007603760B3
:20064000326007603760326007603760326007600B6037600260076037603260076037608F
:20066000026007603760326007603760326007603760026007603760326007603760326078
:2006800007600B60376002600760376032600760376002600760376032600760376032607F
:2006A00007603760026007603760026007603760326007601A930B60376002600760376074
:2006C000326007603760026007603760326007603760026007603760026007603760026078
:2006E000076037601B92026007601B9BE3491A9A0A603760036007603760336007603760FD
:200700000360076037600360076037603360076037606107314600D501460B600760376022
:20072000A107314600D501460B60076037601994E107314600D001460B600760CF491A9C52
:200740000C6037603360076037603360076037603360076037603360076037603360076058
:200760003760336007603760336007603760336007600C6037603360076037603360076038
:2007800037603360076037600360076037603360076037603360076037603360076037601D
:2007A000336007600021189A1460376033603546103D2F60376033602F60376033602F6005
:2007C000376033602F60376033602F60376033602F60376033602F60376033602F60146008
:2007E000376033602F60376033602F60376033602F60376033602F60376033602F603760C5
:2008000033602F60376033602F60376033602F601460376033602F60376033602F603760C7
:2008200033602F60376033602F60376033602F60376033602F60376033602F603760336088
:200840002F601460376033602F60376033602F60376033602F60376033602F603760336087
:200860002F60376033602F60376033602F60376033602F60091D49B2002995D5199A541CE7
:20088000072A00D232E71398410401914003049001F070FA7A4908707A48002101607A4847
:2008A00001607A4B18687A4A10607A48017072B6794A0F91117062B601E0744B764A7749E7
:2008C00072B61078002802D162B630BFF8E71078401E107062B6724800680122129292048A
:2008E0000240940C0878A042199206D16D49087807283ED8401C08703BE00C700F986949F3
:200900000870002A684A40D06848007800283CD0186867490968401A6649891C884203D229
:2009200013986549087022E00F9960480170624801701078401E072815D811705F4801805D
:2009400002F0BEF90D9830600E9830605C4E30460F990A4602F048FC01223046594E0F994D
:2009600002F042FC02E0002001F0ECFA474B4D480078554909780A1B51425141082813988B
:2009800000D108460028484A54D04F480078002803D11399C90704D01AE04C490978C9071F
:2009A00016D118684A490968401A4249884200D895E01398454908700F983C4908703E49F4
:2009C0000870012001F0BEFA374A304B3E48007836490978002900D11398199900291399AF
:2009E00000D10146C8077AD1186831490968401A3049884273D900242C4804702E4804707B
:200A00001078401E072865D814702C48048002F057F90D9830600E983060294E3046214607
:200A2000224602F0E1FB01223046264E214602F0DBFB52E024480470199800280CD01868FD
:200A4000234908600020214908701B49097801299BD11649087098E71C480078002894D186
:200A600015490878012801D000F0DEFD00200870022001F067FA0C4A044B86E7A0320A4099
:200A80003E01202000012020040120200C012020080120203D01202038012020460120203D
:200AA00080130A4048012020490120204401202020012020E7030000470120202C01202081
:200AC00000808640A0120A40430120204501202024012020002001F035FAEB4AEB4B107832
:200AE000022801D0042844D11C68E9480078012846D1E8480078002805D1E748006819688F
:200B0000081A05283CD30020E249087047201CA9022201F023FC002828D01CA9DE480068E1
:200B20008442DA4BD84A2BD00A78497812025118201A142800D3142009B2D84A1268891A76
:200B400041434800D6490968401819908321179102F018F9D34A1168411811601799414355
:200B60001998401ACE490860CB480460C74BC64A06E0CD490978022903D1401E0728B3D9BD
:200B80001078411E072913D8C84909681A68511AC74A91420CD30A20BB4908700024C5484A
:200BA000048002F08DF80D9830600E983060F8E1082800D9F0E1129981408A2211426BD175
:200BC00045229200114200D11DE1119830601498306016983060159802F014FB3446B64E1B
:200BE00030681990119E2E601498206016982060159802F007FBB048006817902660149843
:200C0000286016982060159802F0FCFAAA48006810902E601498286016982060159802F000
:200C2000F1FAA5480068099026601498206016982860159802F0E6FA9F48006808902E60FF
:200C40001498206016982860159802F0DBFA9A48006807902660149C2C60169E2E6015982C
:200C600002F0D0FA944800680690119828602C602E60159802F0C6FA8F48026872B68F48F4
:200C800001688F48006862B68E4B1B78012B00D0CEE001F019FA8FE1119C3460149830608D
:200CA00016983060159802F0ADFA834800680001C00F19902C60149C346016983060159849
:200CC00002F0A0FA7C480068800E0A990840199940181990119830602C6016983060159880
:200CE00002F090FA74480068400E042117910840199940181990119C2C6014982860169823
:200D00003060159E304602F07DFA6B480068000E0821109108401999401819906A480460AD
:200D2000149C046016982860304602F06BFA62480068C00D10210140199808181990119828
:200D4000286061480460169C2C60304602F05AFA59480068800D2021014019980818199072
:200D6000119E59480660149828602C60159C204602F048FA50480068400D40210140199812
:200D8000081819902E601498286016982860204602F038FA48480068000D80210140199870
:200DA000014372B645480068454A126862B6C3175840C01AD3175A40D21A1018002900D1D3
:200DC00084E0F44909780129304B00D082E08109AE297FD90B9828601868EF49086013986B
:200DE000EE490870304801780229374E0A9A79D10B98189908601398E94908701868E949F2
:200E0000086011466EE04906890F00D1C4E0E6490A68062801D000F079FCE4480078002898
:200E200003D0C00701D000F06FFCE14800F06DFCCB175940C91AC3175840C01A4118DD4842
:200E400000780128059100D067E3039828601E480499016002992960019901600022D64C57
:200E60002046D64E314602F0BFF901222046314602F0BAF9D24805998142044B00D89CE004
:200E800001F0FEFD98E0C046490120200C0120203E0120203D01202008012020FC0020208F
:200EA00004012020000120204A012020140120203C7300002C01202080130A40EC002020A7
:200EC000F000202031012020A0120A401399B14A1170FB4BFB4909780229FC4E33D0FC4A83
:200EE000904230D9FB4A1078012800D145E3072800D070E372B60020FC490860FC49086034
:200F000062B61968FB4A1160FB4909681A68FB4C2070FB4C2260FB4A1160FB490870A5494B
:200F20000870FA490870FA490870FF21F94A1170F949129A0A70F9490870F9490880EA48C1
:200F40001099017039E01968F6480068091A142933D31430F3490860F3480088801C81B257
:200F6000242900D32421F048018018680A4600F0F5FD02F041F9DA4B00281ED00A20DA49ED
:200F800008700024E648048001F09AFED5480D9901600E99016004E00D9830600E983060FF
:200FA0000024854E30462146224602F01DF901223046214602F018F9C94B78480078012875
:200FC0000BD1754800681968081AC82805D3C5480B990160002071490870714800780128E7
:200FE0000BD1704800681968081AC82805D3CF480B99016000206A4908701CA8CC495CC925
:201000005CC009780170BC480068CA490968B44A1268511A6429B34E00D24EE4B0490968F3
:20102000C44A1160002801D4323004E01CA92D228A713221081A642101F03EFFBE498842E6
:2010400000D3BD48BD494143CB0D302119910B431CAAD3718308BA494B435B0CCD245C43F0
:20106000E40A0A214C431B1B04461790199803431372B44B6343DB0CB34C5C43240C4C433C
:201080001C1B0443547210914B431798C01A199908431792D072A5481A9C046037601B991A
:2010A00029602F60376031602F60376029602F60376029602F60376031602F603760316024
:2010C0002F60376029602F60376029602F600460376031602F60376031602F603760316029
:2010E0002F60376031602F60376031602F60376031602F60376031602F60376031602F60CE
:201100000460376031602F60376031602F60376031602F60376029602F60376031602F60E0
:20112000376031602F60376031602F60376029602F604123189922E002461A9C0C6037607A
:2011400030603046103807603760326007603760326007603760326007603760326007609A
:2011600037603260076037603260076037603260076017980378002B01D1FFF79EFB203BAE
:201180002E2B724800D9E8E0002298000DA31B586E489F4640012020E80020203701202002
:2011A0003F012020100120201C01202041012020C063FFFF3001202000808640FC080000A3
:2011C000EF550000531300005B1300005B1300005B1300005B1300005B1300005B130000D1
:2011E0005B1300005B1300005B1300005B130000811200005B13000099120000B5120000C4
:201200005B130000B91200009D120000A5120000A9120000C9120000BD1200008D1200002B
:20122000A11200009112000089120000AD1200005B1300005B1300005B1300005B13000046
:201240005B1300005B130000B11200005B1300005B130000DD120000D91200005B130000CB
:20126000851200005B1300005B1300005B1300005B130000951200005B13000051130000A6
:201280000B2266E0122264E0109A62E0072260E009225EE013225CE00C225AE0022258E070
:2012A000082256E00C9A54E0042252E00E2250E00F224EE00D224CE0129A4AE0062248E05C
:2012C0000C0120204A012020052242E0A0120A40AF3B00004901202011223AE0102238E0E6
:2012E0000C012020A0120A4049012020EC002020F000202014012020000120203D012020AB
:2013000008012020E4002020310120203501202034012020330120203201202036012020A5
:201320002C012020180120202E012020A0320A40B0320000280120200F270000C5200000F6
:201340007B140000CDCC00009A19000030320000142205205043D74A101819901798401C65
:201360001790002304E01B9810602760DB1C1A9C1998C2560C603760002A344600DA2C46AC
:201380001B9820602F6037605406344600D52C461B9820602F6037609406344600D52C4625
:2013A0001B9820602F603760D406344600D52C461B9820602F6037601407344600D52C4604
:2013C0001B9820602F6037605407344600D52C461B9820602F6037609407344600D52C46E3
:2013E0001B9820602F603760D207324600D02A461998C4181B9810602F600122A2561A98F7
:2014000008603760002A00DA2E461B9830602F60A9490F60560600D529461B9808602F60D8
:20142000A5490F6096060E4600D52E461B9830602F600F60D6060E4600D52E461B98306019
:201440002F600F6016070E4600D52E461B9830602F600F6056070E4600D52E461B98306056
:201460002F600F6096070E4600D52E461B9830602F60914E3760D2073246189900D02A46AA
:201480001B9810602F60032B00D155E60222A2561A98086037603446103C002A00DA26465D
:2014A0001B983060276084490F6056060E4600D526461B98306027600F6096060E4600D537
:2014C00026461B98306027600F60D6060E4600D526461B98306027600F6016070E4600D577
:2014E00026461B98306027600F6056070E4600D526461B98306027600F6096070E4600D556
:2015000026461B98306027606B4E3760D2073246189900D127E7224625E719980001C00F6F
:201520001799890E0A9B194008181099490E04260096314008180999090E082617963140F0
:2015400008180899C90D102610963140081807998E0D20210E4036180698440D40200440DC
:20156000A419120D802616402643FF2E199663D10F9852490880504E97E1002900D13BE223
:2015800072B600204E4908604E49086062B619684D4C21604D4908604D490860196814467B
:2015A0004C4A10704C4A11604C4908604C4908704C4908704C4908704C490870FF214C4A27
:2015C00011704C49129A0A704B4908703B49088002202070F1E472B600203949086039497C
:2015E000086062B61968384A1160384909681A68384C2070384C2260384A1160384908707D
:20160000384908703849087038490870FF21384A11703849129A0A70374908702749088025
:20162000364817990170C8E4139835490870186834490860FFF7A9F93446129A14400994AA
:201640006242FF245E34A24334461C40089400D0FA3A009B334000D0963A179C3440179456
:2016600000D0323A109C3440109400D009E1314000D00AE1304000D0FA32089C6408099E61
:20168000A4199E08A419179BDE08A419109B1B09E3184909591880090818199949B20029C9
:2016A00000D5F7E00028044E00D0F8E003480088FBE0C04630320000A0120A402C012020DD
:2016C000EC002020F00020201401202000012020040120203D01202008012020E4002020E8
:2016E000310120203001202035012020340120203301202032012020360120204901202034
:201700004401202020012020F9481218F1480368D11AF84881421091084600DBF548E849AE
:2017200019925118179318180C1A2046F24901F0C3FB601A1099091AF04A914200DCEF49DE
:20174000179A801817900C181998201A00D0401EE94901F0B1FB199A944200D0401C0F9B2E
:20176000D749491C41431798101A0818C11702464A40511AD54A91423AD20D9830600E9879
:2017800030600024CB4E30462146224601F02CFD01223046214601F027FDD9480078132834
:2017A000C64B06D8411CD64A1170132801D0FFF704FCC94E3078052837D1BF480D99016038
:2017C0000E990160BB4E30462146224601F00CFD01223046214601F007FDB84BC84804703D
:2017E0001868C04908600620BB490870FFF7E5FBC34A1370C34A914201D3B34B01E0E1225A
:20180000D300049ABF3A914201D2B04B6333012825DB03982860049830600E983060002455
:20182000A44E30461946FFF7BFFB72B6B6480460B648046062B6B64804801868B5490860C5
:20184000186800F01BFF9D4B1868A6490860B2480470A248048007203070FFF7AEFB0D9858
:20186000306002982860019830600021914C20460A461E4601F0B8FC012220463146FFF7DA
:2018800099FB3232314000D1F4E69632304000D0F2E6F2E6AF2149005218401C864EC1B256
:2018A00010B201F06FFA8D49088004B2169860386043AF21490001F065FA9949884200DC1E
:2018C00097487D218A01904200DB1046954A9042024600DC934AC92C0D9B02DC039B2B60A7
:2018E000049B794C141933600E9A02D0029A2A60019A8B019C4200D31C4617947249091A61
:20190000C8178143994200DB194632600024694E3046224601F068FC01223046179917927D
:2019200001F062FC1998002808D013987E4908707E4804702146614B059E19E019947A4865
:20194000007801285D4B644A784C059E0DD1784886420AD320780428574E26D2411C217097
:20196000C01E41424141059E01E000212170199C5448864200D901240029139800D120462C
:20198000012801D0FFF719FB52480068694A1268801A002902D0484E4F4A0BE04E4A117844
:2019A0000829454E2CD10A2027E04A48006861490968401A0B99296019685F4C2160139940
:2019C0005E4C217046490978022909D10B99189A1160414A13995A4C21701968594C2160DB
:2019E000117808290CD141480178072904D8481C3E4B187007293AD109201070FFF7CEF82D
:201A000072B641490A684149096862B64E4CA04204DC4E4CA04204DCFF2017904C48179CCA
:201A20000470D0174240101ACA175140891A814201D901200AE0884201D9002006E0002018
:201A40002649095E002903D00029F2DC4149087013983249087000203F4908701968214A11
:201A600011601E49088000F02FFBFFF7A5FA18490978002997D01F4948431B4908600D9881
:201A800030600E98306000240A4821461646224601F0AAFB01220748214601F0A5FB18487F
:201AA0000470064B18680F49086005203070FFF784FAC04600808640A0120A400C01202053
:201AC0003F7E0500EF550000FC080000DD0500003E01202000012020490120202C01202063
:201AE0004A012020140120201C01202041012020409C000020BF0200407E0500E040FDFF8B
:201B00004201202031750000EC002020F00020202E01202018012020400120203101202085
:201B2000C0E0FFFF04F7FFFF3501202034012020823E0000E4002020E8002020370120209F
:201B40003F012020100120208713000078ECFFFF330120203201202036012020F0B587B07E
:201B60007A4C237E012B00D0EEE0059014231429029100D31946142A104600D3184603920C
:201B80000191218200906082EFF3108372B6704C2068704C2468002B00D162B66E4A17682A
:201BA000C31B6E490E68A51B106006940C60DC1763401C1BD460EB175D40EB1ACB60049080
:201BC000B84201D0059890600698B042039F029905983ED1002940D0002F42D0FF262C3633
:201BE000002904D05C4A9568451BB54206D8002F3AD05A4A9568401BB04235D9534F04989D
:201C0000386006987860BC60FB6001267E7655480168B14301600025514C204629462A46C2
:201C200001F0E2FA20462946324601F0DDFA4E480C210160032041034C4A116000041060BC
:201C400045480582454805823D617D613D7607B0F0BD424A90600029BED13F4A9060002FED
:201C6000BCD13E4A9060B9E7002000291AD00199091B394A546864183D4EB44200DC34463C
:201C80000525EE01B44200DB3446019A8918C9000919A031CD17A9430F25AD01A94203DB6D
:201CA000294601E004460146009D2B4A54601182002F18D0EA1A2948406880182C4B9842CD
:201CC00000DC18460523DB01984200DB18465219D2001218A032D3179A430F239B019A4209
:201CE00002DB1A4600E002461C4F78603A8288B27D218C01604319214E0180198D01294659
:201D000001F0DAF801460022154801F06DFA388AA84200D328464443A019294601F0CCF891
:201D2000014601220E4801F05FFA0B4BD8680B4CE168064A049D1560069D55609060D16084
:201D4000188A9082208AD08207B0F0BDA0002020F4002020F8002020BC002020D000202017
:201D60000080864004988640A0320A40A0120A40C0FEFFFFF0B587B0752005AE0124314627
:201D8000224600F0EBFA0025002800D1CAE03078682800D0C6E006A86B2707708021417087
:201DA000022100F04FFD002800D1BBE05F4E30683168091A63290ED830BF3168091A632986
:201DC00009D830BF3168091A632904D830BF3168091A6429F0D306A807704470022100F028
:201DE00031FD002800D19DE006A86C21017000254570022100F026FD002800D192E006A86A
:201E00001A21017003214170022100F01BFD002800D187E006A81B2101700821417002215E
:201E200000F010FD002800D17CE006A81921017004214170022100F005FD002872D006A8F4
:201E40003721017000254570022100F0FBFC002868D006A8382101704470022100F0F2FC48
:201E600000285FD030683168091A13290ED830BF3168091A132909D830BF3168091A1329E6
:201E800004D830BF3168091A1429F0D3284900250D7030680390306804900295019502E042
:201EA0003946C82D2DD23068039A801A00097C2823D80878002804D13068049A801A0528BE
:201EC00017D300200F46087030680490472006A9022200F043FA0028E2D0069801BAC91785
:201EE000C0BA029A121802920198484101906D1CD6E730BFC82DD6D303E0A02D01D20025E0
:201F000010E00027029801992A463B4601F058F90849086008480760084807603068084933
:201F200008602546284607B0F0BDC0460C0120203D012020FC002020000120200401202069
:201F400008012020F0B583B00746484D48490320020440030190086002920A6000242846F8
:201F60002146224601F040F9012628462146324601F03AF93F4807703F4D2878002802D1AB
:201F8000FFF7F8FE28703D4871023D4A14603D4A14603D4D2A683D4B1A603D4A14703D4A1F
:201FA0001470022F08D101613B4804703B480460286800F063FB00E0016072B63848047018
:201FC00062B6022F1CD12C480078C00718D135480A2101703448048000F072FE24480199B0
:201FE000016002990160214D28462146224601F0FBF801222846214601F0F6F803B0F0BDBE
:20200000022F1AD11A4801990160029901602E46164D28462146224601F0E6F801222846D7
:20202000214601F0E1F8274804703068234908601C480521017003B0F0BD72B61B480460D6
:202040001B48046062B61B48048028681A490860286800F013FB28681849086018480470A4
:20206000114804800F48067003B0F0BD00808640A0120A404A0120203E01202090320A40FE
:2020800000012020040120200C012020080120203D0120203F012020410120201C01202047
:2020A00038012020490120202C012020EC002020F00020202E012020180120201401202037
:2020C0004001202042012020F0B581B04C4C4D484D490978002912D0504D51490978091FF7
:2020E0004A424A4100234F49CC56264696404E4971434E4A1268002C1CDC571A1BE0434931
:2021000000220A70424901250D7042490A8001461039AB030B606B0303602B040B6069045F
:2021200001603D4E2046314601F05EF8204631462A4661E08F1AF9173A464A40561AAE42DE
:202140001CD203214A0302600904016000252C4C204629462A4601F047F801222046294646
:2021600001F042F832490878132803D8421C0A70132843D100F084FC01B0F0BD01225103B7
:202180002B4C2370012F00DB1A460B46BF3B294F294CA64201D3204C01E0E124E4003F78E9
:2021A0009E4201D3254600E06335154C974211D10246103A0126B3031360016003210904F8
:2021C00001600027204629463A4601F00DF82046394610E0032149030160014610390126CF
:2021E00032040A6071040160002120460A4600F0FBFF20462946324600F0F6FF01B0F0BD18
:2022000000808640A0120A403E01202031012020300120202C012020FC080000DD050000C7
:20222000490120203301202090D602000001202036012020320120203175000070B53A49BF
:2022400087228A63394804230360CA6308220260374B9A1C0A600C680C604A604A684A609C
:202260000C68012255062C430C604C682C434C60304C23602568256081254D664B634E6BF1
:202280004E638D67CD678D604D61CD642646103E35602646143E35602646083E3560261F6B
:2022A0003560E363E66BE663E364E66CE6642362266A26622363266B2663E5618D642146EB
:2022C00018390D602365216D21651B491B4B0B6109231B070B601A4B0B641A490B68920376
:2022E0001A430A600A690F239B0413430B6116490A6A164B1A430A620A681A430A60014694
:202300004039612252020A60026011480168114A0A4302601048016A112212051143016211
:2023200001681143016070BD04804240D0320A4081000C00A080424090120A40007343002F
:202340000073439090130A4028100A4080000006A0330A400003030028300A40F0B583B0A5
:2023600014460D4602AA10700121104600F06AFA002818D03A4F3B4E30687968890614D4A6
:202380003168091A092957D8796889060DD43168091A092950D87968890606D43168091AB3
:2023A0000A29EAD348E0002452E0304800F058FE2F48801E2C490860381F01682D4A0A407E
:2023C000D1320260200439682B4A0A408018C01D386030680190002023491839096801E0AF
:2023E000501CAB54BA6A12071BD0BA68A04202D2431C2A5400E00346B86A00070ED0B86845
:20240000A34202D25A1CE85400E01A46B86A000706D0BB68A242E3D31046E3E7184600E0F7
:202420001046134AD21E114206D1C90713D13168019A891A0A29CFD300243C600B4D2846E9
:2024400000F07AFD284600F00BFE074808490160204603B0F0BD001B44424441F8E7C046DC
:2024600014120F400C01202048100F4000000F408304000000F8FFFFF8FF00F0F0B5394A18
:202480008218394BC0183A4D4C790B79002C22D0466F202B02D00524E70100E0354F2E40A3
:2024A000002B00D188273E434667846F2C403C438467446B2D4E34404463846B34408463EB
:2024C00000244465846554688F26F643344054609468344094600C688979202B09D006462A
:2024E0007036002B15D1641E4460C46E2C40882715E0641E4460C46E2C401E4E3443C466EC
:20250000046F2C40344304671B4D01246707064607E00527FF0164084460C46E2C403C4373
:20252000C46634682C403C433460C46A0F4D2C40C462046B2C4004630024C4640465C46F10
:202540008F25ED432C40C46714682C401460194302680A4B1340BD220A40D118891C01601E
:20256000F0BDC04684180000041800008888FDFF24493E0001040000FFFFFFCF4000FFCF5A
:20258000B0B53A4A80184A6842600A78222A56D8930001A4E3589F46352600003F26000052
:2025A000352600003F2600003F2600003F2600003F2600003F2600003F2600003F260000FD
:2025C0003F2600003F2600003F2600003F2600003F2600003F260000252600003F260000ED
:2025E000252600003F2600003F2600003F2600003F2600003F2600003F2600003F260000CD
:202600003F2600003F2600003F2600003F2600003F2600003F260000252600003F260000AC
:2026200025260000036803242407A343012464071B1903E0036803242407A34303600B698B
:20264000C360CB68C46A0A4D25400A4C1C402B19C3620368084C1C400460097A114302685F
:202660003F239A43194051180160B0BD041800008888FDFF777702007F00FFFFF0B583B01E
:2026800000902F492F480322170455030A680124A2430A6000263146324600F0A5FD294825
:2026A0003146224600F0A0FD28480C2101600195254805600297076025490E82254A168243
:2026C0002548066146610676EFF3108772B6234B1B68234D2D68002F00D162B648C10E60DD
:2026E0004E608E6060C2166056609660009F0F60176068C0066046608660C6600473124A62
:202700000198106010461038A103016002991160210401600B4D28463146324600F064FD75
:2027200028463146224600F05FFD054A101F7D218901016010682043106003B0F0BDC04648
:202740000498864000808640A0120A40A0320A40BC002020D0002020A0002020F400202099
:20276000F8002020F0B581B029480024046029490C60294A1268130E02252B405201D20FA0
:202780009A18264B1A70264A1268D30C2B40D201D20F9A18234B1A70EFF3108372B60268F3
:2027A0000868002B00D162B61F4F204914C73C607C60BC6011C10C604C608C601C4E34607B
:2027C0007460B460F46034617461B461194801680125A9430160184821462246083F00F09B
:2027E00003FD154821462A4600F0FEFC13480C21016003204103124A1160000410603C826C
:202800000A48048234617461347601B0F0BDC046F4002020F800202080130A403B012020A3
:2028200080330A403C012020BC002020D0002020A00020200498864000808640A0320A406E
:20284000A0120A40F0B583B00A462C4E2C4B0921CC012D4F3D687168890612D43968491BF8
:20286000092939D8716889060BD43968491B092932D87168890604D43968491B0929EAD953
:202880002AE0029201901F4D284600F055FBA01C1B4908602846029D01992A4600F042FA24
:2028A000174BA84218D1301F0168184A0A40D032026028043168164A0A408018C01D3060A7
:2028C0003868194618390968214205D1890712D43968091A0A29F4D300253560094F38463A
:2028E0001E4600F029FB384600F0BAFBE01C3060284603B0F0BD0125FAE7C04614120F4061
:2029000048100F4000000F400C01202000F8FFFFF8FF00F0F0B581B02649274A11200505A6
:202920001046103807680846103804682C407801800F15D000F01EFB20480068010E022223
:202940000A404001C00F10181D490A7892008218D2B21C4B9A561C4B1E68B2181A6008705D
:202960000326002C15D000F023FB18480068C10C02220A40C001C00F101815490A789200E2
:202980008218D2B20F4B9A56124B1C68A2181A6008707006390602D50F4901220A70064A71
:2029A0001168803008431060024908682843086001B0F0BD48300A4048100A4080130A4006
:2029C00039012020C1320000EC00202080330A403A012020F00020203D012020F0B58B42C6
:2029E00000D1824204D90B0002000021002040E0002B00D1002A0CD10B00020000210020A6
:202A0000002B00D1002A01D0C943C04300F0B9F92FE01C0015000B0002000CB400212600BA
:202A20002F00FF19764102D2491C4029F9D100201E001700FF19764102D2401C4028F9D1A6
:202A40000E1A21002800320000F076FB0C0005000CBC00200021A34200D1AA4201D3521B75
:202A6000A341404149416D08E7073D436408761EF1D5059F002F01D03A607B60F0BDFEE713
:202A800070B51B4C2078022819D172B61C48002505601C48056062B61B4805801B4E30681E
:202AA0001B4908603068FFF7E9FD306819490860194805700F4805800320207070BD0920B9
:202AC00020700C480024048000F0FAF803204103094A116000041060084D28462146224657
:202AE00000F082FB01222846214600F07DFB70BD490120202C012020A0120A4000808640A3
:202B0000EC002020F00020202E0120200C012020180120201401202040012020002A49D02B
:202B200084468B071CD1830722D1102A08D370B4103A78C978C0103AFBD270BC103238D046
:202B4000042A2CD3082A05D30C2A01D308C908C008C908C008C908C092072AD0920F22E033
:202B60000B780370491C401C521E22D08B07F7D1C30714D18307D8D0121F12D308C9038097
:202B80001B0C4380001D121FF8D20AE008C903701B0A43701B0A83701B0AC370001D121F6F
:202BA000F4D2121D05D00B780370491C401C521EF9D160467047704770B582B01B491C4C23
:202BC000204600F0D7FA1B492046FFF757FC1A4801681A4A0A400260002500952046294651
:202BE0002A462B4600F0D4FA204629462A4600F0B3FA204629462A4600F0F6FA0126009672
:202C0000204629462A462B4600F0C2FA20462946324600F0A1FA20462946324600F0E4FA5F
:202C2000074886600321016002B070BD9932000000808640E4320000049886407F00FFFFF5
:202C400000918640F8B5451C00780023082B32D02F78C2070CD16A780F241440E41C122C4B
:202C60000BD102242E57F4B2002E08D4EE1C0EE06D1C4A1C0F7011461AE0AE1C08E02E1D69
:202C8000ED7800957F252C40009DED012C1912343D0112095219094DAA420ED0D243002CEF
:202CA00005D08D5C4F1C0D70641E3946F7E7354640085B1CCAE72846C5E7F8BDFF0F0000C7
:202CC00070B5114801680125A94301600F4E002430462146224600F087FA304621462A4616
:202CE00000F082FA0A480C21016003204103094A11600004106008480482084804820848ED
:202D000004614461048370BD0498864000808640A0320A40A0120A40BC002020D000202029
:202D2000A0002020F0B581B0002A22D091235B01C3180F200402901E0090561E0020DF6987
:202D400027421BD00F5C1F60864210D0DF69274211D00F187D781D60009D854207D0DD69E1
:202D600025420AD0BD781D60C01C8242E7D1104604E0002002E0401C00E0801C80B201B011
:202D8000F0BD70471CB5002922D04C08002900D5494242105440002800D5404200230A0074
:202DA000904201D95200FBE790425B41904200D3801A914201D25208F6E71900002C00D58F
:202DC0004042640000D549420200080011001CBD01000020FFF7EFFE1CBD000080B511494D
:202DE000114800F095F911480168032252020A430260026801210B021343036000224261FB
:202E000007224262836B93438363836B120293438363826A042313438362826A0A43826212
:202E200080BDC046EC32000000000F4000120F40B0B50A480A4941600A4A51600A4B5960C3
:202E40000A4C61600A4D69600A4901601160196021602960102000F0D5F9B0BD00080A40E6
:202E6000030000B100280A40008886400048084000080F40010000260D48002101600D48A4
:202E8000011F0A680323DB4313400B60416801229143416041681202914341600168302270
:202EA0009143016001680F22914301607047C04608030B4004010B401CB50A0017D00023C6
:202EC0000124E407A04200D20400944201D95200FBE790425B41904200D3801A914201D2F3
:202EE0005208F6E719000200080011001CBD01000020FFF760FE1CBDF0B585B00A9CCD17DC
:202F0000DE1769406840401BA94173407240921BB3416E4002AF0097FFF760FD7140704076
:202F2000801BB141029A039B6B406A40521BAB410CC405B0F0BD000070B50D4D41190F22E0
:202F400012020123DC02465980231E43465148681040A04207D048681040A04203D0486803
:202F60001040A042F3D108689843086070BDC0463812000010B50A480068010E02220A402F
:202F80004001C00F101807490A7892008218D2B2054B9A56054B1C68A2181A60087010BDEA
:202FA00080130A403B012020D1320000F400202010B50A480068C10C02220A40C001C00F37
:202FC000101807490A7892008218D2B2054B9A56054B1C68A2181A60087010BD80330A40BD
:202FE0003C012020D1320000F800202070B50A480A4C84420CD00A4D0A4EB54208D02A689A
:203000006968501C12789200A25890470835F4E700BF00BF70BDC046FC320000F03200006D
:203020000C3300001C33000010B50849084C204600F0A0F807492046FFF7A2FA06480168AB
:203040000122114301600548026010BDE1320000004008409C320000285008400851084052
:2030600010B50A4BC118C4580122D2031443C4504868000705D04868000702D04868000712
:20308000F6D108689043086010BDC0463812000008480068C0B201280AD107480168491D55
:2030A000016006480178012902D80178491C01707047C046205008400C012020380120205A
:2030C00080B5FFF7B5FEFFF7B9F8FFF7D5FEFFF773FDFFF7A9FFFFF781FE02489C21002200
:2030E000425480BD00002020084880F3088800BF00BF00F098F8002801D0FFF777FF0020E7
:20310000FCF7DEFF012000F087F8C0460080202070B50122120383180C785D680C26B5431E
:2031200034402C195C60497883580724A34321405918815070BD000018B520239B1A04D8FC
:20314000010000205B42994004E004009140DC402143904018BD000010B592008018044ABD
:2031600083580724A404A34321405918815010BD3018000010B50122120383180C789C60EB
:203180004B7883508978014A815010BD0C11000010B5029CA400001911431943014A8150A6
:2031A00010BDC0465018000003228058002805D0401E4A1C00230B701146F7E7704700008C
:2031C00040B584B002AE0096FFF796FE029A039B04B040BD80B50B4603214258C11D18468B
:2031E00000F016F880BD000092008018014A81507047C046101800000148407E7047C046A5
:20320000A0002020811E091F00BFFCD27047000080B5FFF783FC80BD00F001F8FEE700BF4F
:10322000704761E770470120704700000000000010
:2032300000000000003E5149453E00427F400042615149462141454B311814127F10274543
:203250004545393C4A49493001710905033649494936064949291E08083E0808080808082C
:2032700008006060000000363600007E1111117E7F4141221C7F494949413E4149497A7FF7
:20329000404040407F020C107F080000020000003F9C00000000000000000000000000001D
:2032B000414E474C453A2B3030302E3020444547000001FF00FF000001010000FF00FF0154
:2032D0000000FF0100010000FFFF0000010001FF00080003401F000020000000080000004C
:2032F000452C0000D5310000A9310000020000004901000000030000FFF00000FC32000001
:1033100000002020043300004901202000000000AC
:00000001FF
