:2000000000802020232D00007F2500007F2500000000000000000000000000000000000088
:200020000000000000000000000000007F25000000000000000000007F2500007F250000D4
:200040007F250000152400007F2500007F2500007F2500007F2500007F2500007F250000EB
:20006000000000007F2500007F25000000000000000000007F2500007F2500007F2500004C
:20008000912B00007F2500007F2500007F2500007F2500007F250000000000000000000070
:2000A0007F2500007F25000000000000000000007F250000000000007F2500007F2500000C
:2000C00000B5A1B00125A8051290032001040C91290404910D9040030B90A803029028033B
:2000E00015901920C7016E022C0202F069FD2A4812990160139404601599016004461497D7
:20010000384602F0FFFD02F043F8244F3846103819900660069626600B9820600C98206095
:2001200000241F4E30462146224602F0DDFD30461B9421462A4602F0D7FD1A480068010E82
:20014000022211404001C00F08181749087017480068C10C1140C001C00F081814490870B8
:200160001448026002600499016013480260026001601248016829430160114801681195E9
:2001800029430160029838600E4B18681968091A772928D818E0C046A0120A40A0320A402D
:2001A0000080864080130A402D01202080330A402E01202080E200E000E100E004988640DD
:2001C000045808400C01202030BF1968091A772909D830BF1968091A772904D830BF19689B
:2001E000091A7829F0D30F921198C4070507C203029819990860FC490A60FC4E35603046DA
:20020000103804600560356034600560356004600560356034600560356004600560356060
:20022000046005603560046005603560346005600A6035600460056035600460056035604E
:200240003460056035600460056035603460056035600460056035603460056035600460D4
:2002600005600A6035603460056035600460056035603460056035600460056035603460AE
:2002800005603560346005603560346005603560346005600A60356004600560356034605E
:2002A000056035600460056035603460056035600460056035603460056035603460056073
:2002C0003560346005600A603560346005603560346005603560046005603560046005604E
:2002E0003560046005603560046005603560046005603560046005600A60356004600560BE
:200300003560046005603560346005603560046005603560346005603560346005603560E2
:20032000046005603560046005600A603560346005603560346005603560346005603560ED
:20034000346005603560346005603560346005603560346005603560346005600A6035606D
:20036000346005603560046005603560346005603560346005603560346005603560346053
:2003800005603560346005603560346005600A60356004600560356034600560356034605D
:2003A0000560356034600560356004600560356004600560356034600560356004600560A2
:2003C0000A603560346005603560346005603560346005603560046005603560346005601D
:2003E0003560046005603560346005603560346005600A60356034600560356034600560FD
:200400003560046005603560346005603560346005603560346005603560346005603560B1
:20042000346005600A6035603460056035603460056035603460056035603460056035608C
:20044000346005603560346005603560046005603560346005600A603560046005603560CC
:20046000346005603560046005603560346005603560346005603560346005603560346052
:2004800005603560046005600A6035600460056035600460056035603460056035603460BC
:2004A00005603560346005603560346005603560346005603560346005600A60356004603C
:2004C000056035600460056035603460056035600460056035600460056035603460056081
:2004E0003560046005603560346005600A60356034600560356034600560356034600560FC
:200500003560046005603560346005603560346005603560046005603560346005600A600B
:20052000356004600560356034600560356034600560356034600560356034600560356090
:20054000346005603560346005603560046005600A603560046005603560046005603560FB
:20056000046005603560346005603560046005603560046005603560046005603560046011
:2005800005600A6035600460056035600460056035603460056035600460056035600460EB
:2005A00005603560346005603560346005603560046005600A60356004600560356004609B
:2005C000056035600460056035600460056035603460056035603460056035603460056050
:2005E00035600460056003E0A0320A40A0120A400A603560046005603560046005603560E7
:20060000346005603560046005603560046005603560346005603560046005603560046040
:2006200005600A6035603460056035603460056035600460056035600460056035603460EA
:2006400005603560346005603560346005603560346005600A60356004600560356034609A
:200660000560356004600560356034600560356034600560356004600560356034600560AF
:200680003560346005600A603560046005603560346005603560046005603560346005608A
:2006A0003560346005603560046005603560046005603560346005601A920A603560046053
:2006C00005603560346005603560046005603560346005603560046005603560046005607F
:2006E0003560046005603560046005601B9A1A9BE2490B6035600460056035603460056052
:2007000035600460056035600460056035603460056035605107314600D501460C6005603E
:2007200035609107314600D501460C60056035601B92D107314600D001460C600560CF4997
:200740000B6035603460056035603460056035603460056035603460056035603460056068
:200760003560346005603560346005603560346005600B6035603460056035603460056048
:2007800035603460056035600460056035603460056035603460056035603460056035602E
:2007A000346005600021199A1360356034603746103F3D60356034603D60356034603D60DB
:2007C000356034603D60356034603D60356034603D60356034603D60356034603D601360C8
:2007E000356034603D60356034603D60356034603D60356034603D60356034603D60356086
:2008000034603D60356034603D60356034603D601360356034603D60356034603D60356087
:2008200034603D60356034603D60356034603D60356034603D60356034603D603560346046
:200840003D601360356034603D60356034603D60356034603D60356034603D603560346047
:200860003D60356034603D60356034603D60356034603D60091D49B2002995D51B9A511CB3
:20088000072A0A4600D233E71198410403914003019001F047F87A4908707A4800210160E6
:2008A0007948016079480068794A10607948017072B6794A0A91117062B678490E9401E025
:2008C000754A764972B61078002847D01078401E107062B672480B46016801201B90800469
:2008E0000840810C1A788A423BD16E4B1A78072A01D8521C1A706C4B1B785E1A7342734141
:20090000082A119A00D11A46002A684E2DD1664A1170002800D008E265480078002824D196
:2009200064490878401E032800D962E3002218920A706148028001F043FF0B9830600C9868
:2009400030605E4E304618990A4602F0CDF901223046564E189902F0C7F906E062B630BF9F
:20096000B0E719700A984F4908704F480078002803D11198C00704D011E04D480078C00791
:200980000DD1424800684E490968401AC0087D2805D3119846490870012001F069FC45482C
:2009A0000078042801D0022846D1384802683448007801283ED137480078002806D13448F9
:2009C000006832490968081A052833D3189200203049087047201CA9022201F0D5F900287C
:2009E00028D01CA92A480068189B834222D00A78497812025118181A142800D3142009B206
:200A0000304A1268891A414348001F490968401817908321169101F035FF1A4A11684118F5
:200A20001160169941431798401A174908601848189901601F480078401E032815D822490F
:200A40000968124A1268511A204A91420DD306201849087000211B911748018001F0B0FE7C
:200A60000B9830600C983060D4E2032800D953E178440079400087442BBA2BBAA0320A40FB
:200A80003201202000012020040120200C01202008012020310120202C0120203601202071
:200AA00080130A403701202034012020A0120A4035012020380120202001202000808640DA
:200AC00018012020FC002020100120203C730000129830601398306015983060149802F031
:200AE00011F9EC4800680001C00F1890129838601398306015983060149802F003F9E54857
:200B00000068800E0F990840189940181890129830601398386015983060149802F0F2F8FC
:200B2000DC480068400E0421179108401899401818901298386013983860159830601498A7
:200B400002F0E0F8D3480068000E082101401898081818901298306013983060159838609E
:200B6000149802F0CFF8CB480068C00D1021014018980818189012983860139830601598B4
:200B80003860149802F0BEF8C2480068800D2021014018980818189012983060139E3E60E7
:200BA00015983860149802F0ADF8BA480068400D40210140189808181890129838603E60FC
:200BC00015983860149802F09DF8B2480068010D802008401899084372B6AF490B68AF49BE
:200BE0000A6862B600D1A7E0AD490978A7E0129830601398306015983060149802F082F84B
:200C00003146A44E30681890129E3E601398086015980860149802F075F89E4800681790B5
:200C2000A0490E601398386015980860149802F069F89848006816903E601398386015988A
:200C400098490860149802F05DF892480068109094490E601398086015983860149802F035
:200C600051F88C48006809903E6013988D49086015983860149802F045F8864800680890E1
:200C800088480660139E3E6015983860149802F039F8804800680790129838603E60159867
:200CA0003860149802F02EF87A48026872B67A4801687A48006862B67B4B1B78012B02D1BF
:200CC00000F018FFB1E1CB175940C91AC3175840C01A4118754800780128059100D0ACE028
:200CE000029838606F4801990160049939600399016000226E4E30466E4901F0F5FF0122CA
:200D000030466C4901F0F0FF6B480599814200D88BE101F035FC88E10B9830600C9830607E
:200D2000002163480A460E4678E164480068644908600020634917E61199594E317018915D
:200D4000D9174B40591AD3175A40D21A5318411E88419A090021AE2A1B9A00D80A465A4E81
:200D6000B34200D81B91189908401040119900D11B9901293FD10028544E08D00698386070
:200D80004E480068524908601198524908703078012800D0BEE050480078002800D12CE141
:200DA00072B600203C4908603C49086062B6434B19684A4A11604A4908604A49086019686E
:200DC000494B1870494B19604949086036490870364908704749087047490870FF21474A41
:200DE00011700121464A117046490870464908800F98307019E13148016844480068091AE7
:200E0000142900D211E114304049086040480088801C81B2242900D32421FB480180274825
:200E200000680A4600F072FC01F066FF002800D1FBE0062025490870E1E018980001C00F25
:200E40001799890E0F9B194008181699490E04231793194008181099090E082316931940EB
:200E600008180999C90D10231093194009180898860D20200640761807994B0D40210B409F
:200E80009B19120D802616401E43FF2E18966AD10A984CE380130A40EC002020F000202002
:200EA00033012020A0120A40250120202401202000808640FC080000EF5500000C0120201C
:200EC0001801202035012020AF3B000038012020E80020202B012020390120201001202081
:200EE00000012020040120203101202008012020E400202029012020280120202701202052
:200F0000260120202A01202020012020140120202201202072B60020FC490860FC49086044
:200F200062B6FE4A1168FE4B1960FE4909681268FD4B1870FD4B1A60FD4A1160FD490870DC
:200F4000FD490870AA490870AA490870FF21AA4A11700121A94A1170A9490870A9490880EE
:200F60001798307061E008901B9A32401B925242FF235E339A43189B1E460F9806400996AE
:200F800000D0FA3A179E1E401796089800D0963A169E1E40169600D0323A109E1E401096A1
:200FA00021D03232184020D1194000D0FA32099B5B081B9E9B19179EB6089B19169EF608F1
:200FC0009B19109E36099B194009181889094018189949B2002900D5A1E2002800D0A2E2B0
:200FE00088480088A5E21840DED096321940DDD1DDE7002001F03CF9B7E4052030700021B2
:201000001B918048018001F0DBFBCC480B9901600C990160CA481B9E3146324601F064FEE8
:201020000122C748314601F05FFEC648007801280CD1C5480068B9490968081AC82805D35B
:20104000BE48069901600020BE4908701CA81B90BE491B9C4DC94DC41B9408781B9908703C
:20106000B0480068BA490968AC4A1268511A6429B24E0E9C00D223E4A8490968B44A1160E0
:20108000002801D4323004E01CA92D228A713221081A642101F090FCAE49884200D3AD48FE
:2010A000AD494143CA0D30211B910A431CA91691CA718208A94B5A43520CCD235343DB0A0A
:2010C000014618900A204343D21A1B9B1A43169B1A72A34A4A43D20CA24B53431B0C4343AD
:2010E000D31A1B990B4316994B72109042431898801A1B9908431699C8729B481A99016047
:2011000035603C603D60356034603D6035603C603D6035603C603D60356034603D60356044
:2011200034603D6035603C603D6035603C603D600160356034603D60356034603D60356060
:2011400034603D60356034603D60356034603D60356034603D60356034603D60356034601D
:201160003D600160356034603D60356034603D60356034603D6035603C603D603560346028
:201180003D60356034603D60356034603D6035603C603D60412221E01A99016035603460B7
:2011A00030461038056035603460056035603460056035603460056035603460056035603F
:2011C0003460056035603460056035603460056016980278002A01D1FFF772FB203A2E2AC1
:2011E000624B00D9C9E00021900008A212589746290120202801202027012020260120207C
:201200002A0120202001202022012020731300007B1300007B1300007B1300007B130000E1
:201220007B1300007B1300007B1300007B1300007B1300007B130000C91200007B130000F1
:20124000E1120000FD1200007B13000001130000E5120000ED120000F112000009130000D5
:2012600005130000D5120000E9120000D9120000D1120000F51200007B1300007B13000083
:201280007B1300007B1300007B1300007B130000F91200007B1300007B13000019130000C3
:2012A000151300007B130000CD1200007B1300007B1300007B1300007B130000DD12000072
:2012C0007B130000711300000B2152E0122150E010994EE007214CE009214AE0132148E060
:2012E0000C2146E00F9944E0082142E00D9940E004213EE00E213CE00F213AE00D2138E0A0
:20130000012136E0062134E0052132E0EC002020F000202011212CE010212AE00C01202000
:2013200010012020000120203101202008012020E40020202501202024012020A0120A4075
:20134000008086402B012020E8002020B02D00001C0120200F270000C52000007B140000CF
:20136000CDCC00009A190000A0320A40302D0000142105204843E4490B181698401C1690C3
:2013800000211998179303E00C6015601B99C91C1B9159561A9A026035600029324600DAF3
:2013A0003A4614603D6035604A06324600D53A4614603D6035608A06324600D53A46146073
:2013C0003D603560CA06324600D53A4614603D6035600A07324600D53A4614603D60356014
:2013E0004A07324600D53A4614603D6035608A07324600D53A4614603D602A463560C907E5
:20140000314600D039461B9D5D1923460C603A600121189569561A9D05603260002900DA2A
:201420003E461C4633603A60A04802604E0600D5384604603A609D4802608E060646179BD1
:2014400000D53E46346015463A600260CE06064600D53E4634603D6005600E07064600D503
:201460003E4634603D6005604E07064600D53E4634603D6005608E07064600D53E463460F4
:201480003D608A4E3560C9073146199800D039460C603D601B99032900D17DE60221189A09
:2014A00051561A9A026035603246103A002900DA1646346015607D4805604E06064600D511
:2014C00016463460156005608E06064600D51646346015600560CE06064600D516463460DE
:2014E000156005600E07064600D516463460156005604E07064600D51646346015600560D2
:201500008E07064600D5164634601560674E3560C9073146199800D136E7114634E7AF213E
:2015200049005218401CC1B210B201F0ABF96449088001B2159860380E464843AF214900AD
:2015400001F0A0F96349884200DC62487D2117918A01904200DB10465F4A9042024600DC92
:201560005D4A5249C92E0B9B02DC029B3B60019B514E92191B920E460B600C9A02D0049A0E
:201580003A60039A17998B011B99994200D31B934949091AC8178143994200DB19463260C9
:2015A00000224148164601F09FFB01223E481B991B9201F099FB1898002807D01198474922
:2015C0000870474806703046059B15E01896434800780128424A059B0BD14248834208D377
:2015E000107804281BD2411C1170C11E4842484101E000201070189E2E498B4200D90126FF
:201600000028119900D13146012900D00DE52B490968354A1268891A002805D10DE02748E9
:20162000006831490968411A06983860204800682E4A106011982E4A107072B62248026871
:201640002248006862B62B4B994204DC2A4B994204DCFF211B9129491B9B0B70D1174A405E
:20166000511AC2175040801A884201D901200AE0814201D9002006E000201149095E0029A0
:2016800003D00029F2DC1E49087011981049087000201C490870064909680A4A1160084954
:2016A000088000F027FAC0E400808640A0120A400C012020EF550000FC08000000012020D5
:2016C0002001202010012020EC002020F000202025012020C0E0FFFF04F7FFFF2901202095
:2016E00028012020823E0000E4002020E80020202B0120208713000078ECFFFF27012020A5
:20170000260120202A012020302D0000F0B587B07A4C237E012B00D0EEE005901423142984
:20172000029100D31946142A104600D3184603920191218200906082EFF3108372B6704C8A
:201740002068704C2468002B00D162B66E4A1768C31B6E490E68A51B106006940C60DC173A
:2017600063401C1BD460EB175D40EB1ACB600490B84201D0059890600698B042039F0299D3
:2017800005983ED1002940D0002F42D0FF262C36002904D05C4A9568451BB54206D8002F98
:2017A0003AD05A4A9568401BB04235D9534F0498386006987860BC60FB6001267E765548A8
:2017C0000168B14301600025514C204629462A4601F08AFA20462946324601F085FA4E487C
:2017E0000C210160032041034C4A11600004106045480582454805823D617D613D7607B06B
:20180000F0BD424A90600029BED13F4A9060002FBCD13E4A9060B9E7002000291AD00199CD
:20182000091B394A546864183D4EB44200DC34460525EE01B44200DB3446019A8918C90089
:201840000919A031CD17A9430F25AD01A94203DB294601E004460146009D2B4A54601182E0
:20186000002F18D0EA1A2948406880182C4B984200DC18460523DB01984200DB184652198F
:20188000D2001218A032D3179A430F239B019A4202DB1A4600E002461C4F78603A8288B26B
:2018A0007D218C01604319214E0180198D01294601F082F801460022154801F015FA388A48
:2018C000A84200D328464443A019294601F074F8014601220E4801F007FA0B4BD8680B4C32
:2018E000E168064A049D1560069D55609060D160188A9082208AD08207B0F0BDA0002020CC
:20190000F4002020F8002020BC002020D00020200080864004988640A0320A40A0120A408F
:20192000C0FEFFFFF0B587B0752005AE01243146224600F029FA0025002800D1CAE0307840
:20194000682800D0C6E006A86B27077080214170022100F0F7FC002800D1BBE05F4E306899
:201960003168091A63290ED830BF3168091A632909D830BF3168091A632904D830BF316886
:20198000091A6429F0D306A807704470022100F0D9FC002800D19DE006A86C2101700025CC
:2019A0004570022100F0CEFC002800D192E006A81A21017003214170022100F0C3FC002801
:2019C00000D187E006A81B21017008214170022100F0B8FC002800D17CE006A81921017025
:2019E00004214170022100F0ADFC002872D006A83721017000254570022100F0A3FC0028C0
:201A000068D006A8382101704470022100F09AFC00285FD030683168091A13290ED830BFFD
:201A20003168091A132909D830BF3168091A132904D830BF3168091A1429F0D328490025C9
:201A40000D7030680390306804900295019502E03946C82D2DD23068039A801A00097C28B4
:201A600023D80878002804D13068049A801A052817D300200F46087030680490472006A9D8
:201A8000022200F081F90028E2D0069801BAC917C0BA029A121802920198484101906D1C95
:201AA000D6E730BFC82DD6D303E0A02D01D2002510E00027029801992A463B4601F000F90E
:201AC0000849086008480760084807603068084908602546284607B0F0BDC0460C012020FE
:201AE00031012020FC002020000120200401202008012020F0B581B04C4C4D484D4909784F
:201B0000002912D0504D51490978091F4A424A4100234F49CC56264696404E4971434E4AC1
:201B20001268002C1CDC571A1BE0434900220A70424901250D7042490A8001461039AB03F2
:201B40000B606B0303602B040B60690401603D4E2046314601F0C8F8204631462A4661E03A
:201B60008F1AF9173A464A40561AAE421CD203214A0302600904016000252C4C20462946A1
:201B80002A4601F0B1F801222046294601F0ACF832490878132803D8421C0A70132843D176
:201BA00000F0EEFC01B0F0BD012251032B4C2370012F00DB1A460B46BF3B294F294CA642E1
:201BC00001D3204C01E0E124E4003F789E4201D3254600E06335154C974211D10246103AFF
:201BE0000126B303136001600321090401600027204629463A4601F077F82046394610E0F1
:201C000003214903016001461039012632040A6071040160002120460A4601F065F820463B
:201C20002946324601F060F801B0F0BD00808640A0120A4032012020250120202401202096
:201C400020012020FC080000DD050000380120202701202090D60200000120202A01202048
:201C6000260120203175000070B53A4987228A63394804230360CA6308220260374B9A1C1D
:201C80000A600C680C604A604A684A600C68012255062C430C604C682C434C60304C236059
:201CA0002568256081254D664B634E6B4E638D67CD678D604D61CD642646103E35602646F2
:201CC000143E35602646083E3560261F3560E363E66BE663E364E66CE6642362266A26629C
:201CE0002363266B2663E5618D64214618390D602365216D21651B491B4B0B6109231B07C8
:201D00000B601A4B0B641A490B6892031A430A600A690F239B0413430B6116490A6A164B18
:201D20001A430A620A681A430A6001464039612252020A60026011480168114A0A43026072
:201D40001048016A112212051143016201681143016070BD04804240D0320A4081000C0095
:201D6000A080424090120A40007343000073439090130A4028100A4080000006A0330A40C7
:201D80000003030028300A40F0B583B014460D4602AA10700121104600F0D4FA002818D0A4
:201DA0003A4F3B4E30687968890614D43168091A092957D8796889060DD43168091A0929C5
:201DC00050D87968890606D43168091A0A29EAD348E0002452E0304800F0C2FE2F48801E2A
:201DE0002C490860381F01682D4A0A40D1320260200439682B4A0A408018C01D38603068F7
:201E00000190002023491839096801E0501CAB54BA6A12071BD0BA68A04202D2431C2A54BA
:201E200000E00346B86A00070ED0B868A34202D25A1CE85400E01A46B86A000706D0BB6885
:201E4000A242E3D31046E3E7184600E01046134AD21E114206D1C90713D13168019A891A32
:201E60000A29CFD300243C600B4D284600F0E4FD284600F075FE074808490160204603B04B
:201E8000F0BD001B44424441F8E7C04614120F400C01202048100F4000000F40830400004B
:201EA00000F8FFFFF8FF00F0F0B5394A8218394BC0183A4D4C790B79002C22D0466F202B39
:201EC00002D00524E70100E0354F2E40002B00D188273E434667846F2C403C438467446BFC
:201EE0002D4E34404463846B3440846300244465846554688F26F64334405460946834400A
:201F000094600C688979202B09D006467036002B15D1641E4460C46E2C40882715E0641E46
:201F20004460C46E2C401E4E3443C466046F2C40344304671B4D01246707064607E0052737
:201F4000FF0164084460C46E2C403C43C46634682C403C433460C46A0F4D2C40C462046B84
:201F60002C4004630024C4640465C46F8F25ED432C40C46714682C401460194302680A4BB4
:201F80001340BD220A40D118891C0160F0BDC04684180000041800008888FDFF24493E00B4
:201FA00001040000FFFFFFCF4000FFCFB0B53A4A80184A6842600A78222A56D8930001A439
:201FC000E3589F46612000006B200000612000006B2000006B2000006B2000006B20000028
:201FE0006B2000006B2000006B2000006B2000006B2000006B2000006B2000006B20000089
:202000006B200000512000006B200000512000006B2000006B2000006B2000006B2000009C
:202020006B2000006B2000006B2000006B2000006B2000006B2000006B2000006B20000048
:202040006B200000512000006B20000051200000036803242407A343012464071B1903E03E
:20206000036803242407A34303600B69C360CB68C46A0A4D25400A4C1C402B19C362036820
:20208000084C1C400460097A114302683F239A43194051180160B0BD041800008888FDFFF4
:2020A000777702007F00FFFFF0B583B000902F492F480322170455030A680124A2430A60DE
:2020C00000263146324600F00FFE29483146224600F00AFE28480C21016001952548056040
:2020E0000297076025490E82254A16822548066146610676EFF3108772B6234B1B68234DE2
:202100002D68002F00D162B648C10E604E608E6060C2166056609660009F0F60176068C00E
:20212000066046608660C6600473124A0198106010461038A1030160029911602104016076
:202140000B4D28463146324600F0CEFD28463146224600F0C9FD054A101F7D218901016005
:2021600010682043106003B0F0BDC0460498864000808640A0120A40A0320A40BC002020F2
:20218000D0002020A0002020F4002020F8002020F0B581B029480024046029490C60294AC3
:2021A0001268130E02252B405201D20F9A18264B1A70264A1268D30C2B40D201D20F9A1877
:2021C000234B1A70EFF3108372B602680868002B00D162B61F4F204914C73C607C60BC6036
:2021E00011C10C604C608C601C4E34607460B460F46034617461B461194801680125A94374
:202200000160184821462246083F00F06DFD154821462A4600F068FD13480C2101600320F8
:202220004103124A1160000410603C820A48048234617461347601B0F0BDC046F4002020D7
:20224000F800202080130A402F01202080330A4030012020BC002020D0002020A00020209F
:202260000498864000808640A0320A40A0120A40F0B581B0064603204103204A1160000436
:2022800010601F4F002438462146224600F02CFD0125384621462A4600F026FD1948067071
:2022A000194E3078002802D1FFF73CFB30701748046017480460174E30681749086017489D
:2022C000047072B61648047062B672B6154804601548046062B61548048030681449086078
:2022E0003068FFF7E1FE30681249086012480470124804801248057001B0F0BDA0120A4041
:2023000000808640390120203201202000012020040120200C0120200801202031012020FC
:202320002C012020EC002020F00020202201202014012020100120203301202020012020F6
:2023400038012020F0B583B00A462C4E2C4B0921CC012D4F3D687168890612D43968491B80
:20236000092939D8716889060BD43968491B092932D87168890604D43968491B0929EAD958
:202380002AE0029201901F4D284600F055FBA01C1B4908602846029D01992A4600F042FA29
:2023A000174BA84218D1301F0168184A0A40D032026028043168164A0A408018C01D3060AC
:2023C0003868194618390968214205D1890712D43968091A0A29F4D300253560094F38463F
:2023E0001E4600F029FB384600F0BAFBE01C3060284603B0F0BD0125FAE7C04614120F4066
:2024000048100F4000000F400C01202000F8FFFFF8FF00F0F0B581B02649274A11200505AB
:202420001046103807680846103804682C407801800F15D000F01EFB20480068010E022228
:202440000A404001C00F10181D490A7892008218D2B21C4B9A561C4B1E68B2181A60087062
:202460000326002C15D000F023FB18480068C10C02220A40C001C00F101815490A789200E7
:202480008218D2B20F4B9A56124B1C68A2181A6008707006390602D50F4901220A70064A76
:2024A0001168803008431060024908682843086001B0F0BD48300A4048100A4080130A400B
:2024C0002D012020C12D0000EC00202080330A402E012020F000202031012020F0B58B42F4
:2024E00000D1824204D90B0002000021002040E0002B00D1002A0CD10B00020000210020AB
:20250000002B00D1002A01D0C943C04300F0B9F92FE01C0015000B0002000CB400212600BF
:202520002F00FF19764102D2491C4029F9D100201E001700FF19764102D2401C4028F9D1AB
:202540000E1A21002800320000F076FB0C0005000CBC00200021A34200D1AA4201D3521B7A
:20256000A341404149416D08E7073D436408761EF1D5059F002F01D03A607B60F0BDFEE718
:2025800070B51B4C2078022819D172B61C48002505601C48056062B61B4805801B4E306823
:2025A0001B4908603068FFF77FFD306819490860194805700F4805800320207070BD05202C
:2025C00020700C480024048000F0FAF803204103094A116000041060084D2846214622465C
:2025E00000F082FB01222846214600F07DFB70BD3801202020012020A0120A4000808640C5
:20260000EC002020F0002020220120200C012020140120201001202033012020002A49D051
:2026200084468B071CD1830722D1102A08D370B4103A78C978C0103AFBD270BC103238D04B
:20264000042A2CD3082A05D30C2A01D308C908C008C908C008C908C092072AD0920F22E038
:202660000B780370491C401C521E22D08B07F7D1C30714D18307D8D0121F12D308C903809C
:202680001B0C4380001D121FF8D20AE008C903701B0A43701B0A83701B0AC370001D121F74
:2026A000F4D2121D05D00B780370491C401C521EF9D160467047704770B582B01B491C4C28
:2026C000204600F0D7FA1B492046FFF7EDFB1A4801681A4A0A4002600025009520462946C1
:2026E0002A462B4600F0D4FA204629462A4600F0B3FA204629462A4600F0F6FA0126009677
:20270000204629462A462B4600F0C2FA20462946324600F0A1FA20462946324600F0E4FA64
:20272000074886600321016002B070BD992D000000808640E42D0000049886407F00FFFF04
:2027400000918640F8B5451C00780023082B32D02F78C2070CD16A780F241440E41C122C50
:202760000BD102242E57F4B2002E08D4EE1C0EE06D1C4A1C0F7011461AE0AE1C08E02E1D6E
:20278000ED7800957F252C40009DED012C1912343D0112095219094DAA420ED0D243002CF4
:2027A00005D08D5C4F1C0D70641E3946F7E7354640085B1CCAE72846C5E7F8BDFF0F0000CC
:2027C00070B5114801680125A94301600F4E002430462146224600F087FA304621462A461B
:2027E00000F082FA0A480C21016003204103094A11600004106008480482084804820848F2
:2028000004614461048370BD0498864000808640A0320A40A0120A40BC002020D00020202E
:20282000A0002020F0B581B0002A22D091235B01C3180F200402901E0090561E0020DF698C
:2028400027421BD00F5C1F60864210D0DF69274211D00F187D781D60009D854207D0DD69E6
:2028600025420AD0BD781D60C01C8242E7D1104604E0002002E0401C00E0801C80B201B016
:20288000F0BD70471CB5002922D04C08002900D5494242105440002800D5404200230A0079
:2028A000904201D95200FBE790425B41904200D3801A914201D25208F6E71900002C00D594
:2028C0004042640000D549420200080011001CBD01000020FFF7EFFE1CBD000080B5114952
:2028E000114800F095F911480168032252020A430260026801210B02134303600022426100
:2029000007224262836B93438363836B120293438363826A042313438362826A0A43826217
:2029200080BDC046EC2D000000000F4000120F40B0B50A480A4941600A4A51600A4B5960CD
:202940000A4C61600A4D69600A4901601160196021602960102000F0D5F9B0BD00080A40EB
:20296000030000B100280A40008886400048084000080F40010000260D48002101600D48A9
:20298000011F0A680323DB4313400B60416801229143416041681202914341600168302275
:2029A0009143016001680F22914301607047C04608030B4004010B401CB50A0017D00023CB
:2029C0000124E407A04200D20400944201D95200FBE790425B41904200D3801A914201D2F8
:2029E0005208F6E719000200080011001CBD01000020FFF760FE1CBDF0B585B00A9CCD17E1
:202A0000DE1769406840401BA94173407240921BB3416E4002AF0097FFF760FD714070407B
:202A2000801BB141029A039B6B406A40521BAB410CC405B0F0BD000070B50D4D41190F22E5
:202A400012020123DC02465980231E43465148681040A04207D048681040A04203D0486808
:202A60001040A042F3D108689843086070BDC0463812000010B50A480068010E02220A4034
:202A80004001C00F101807490A7892008218D2B2054B9A56054B1C68A2181A60087010BDEF
:202AA00080130A402F012020D12D0000F400202010B50A480068C10C02220A40C001C00F4D
:202AC000101807490A7892008218D2B2054B9A56054B1C68A2181A60087010BD80330A40C2
:202AE00030012020D12D0000F800202070B50A480A4C84420CD00A4D0A4EB54208D02A68B0
:202B00006968501C12789200A25890470835F4E700BF00BF70BDC046FC2D0000F02D00007C
:202B20000C2E00001C2E000010B50849084C204600F0A0F807492046FFF738FA0648016824
:202B40000122114301600548026010BDE12D0000004008409C2D0000285008400851084061
:202B600010B50A4BC118C4580122D2031443C4504868000705D04868000702D04868000717
:202B8000F6D108689043086010BDC0463812000008480068C0B201280AD107480168491D5A
:202BA000016006480178012902D80178491C01707047C046205008400C0120202C0120206B
:202BC00080B5FFF7B5FEFFF74FF8FFF7D5FEFFF773FDFFF7A9FFFFF781FE02489C2100226F
:202BE000425480BD00002020084880F3088800BF00BF00F098F8002801D0FFF777FF0020EC
:202C0000FDF75EFA012000F087F8C0460080202070B50122120383180C785D680C26B543A7
:202C200034402C195C60497883580724A34321405918815070BD000018B520239B1A04D801
:202C4000010000205B42994004E004009140DC402143904018BD000010B592008018044AC2
:202C600083580724A404A34321405918815010BD3018000010B50122120383180C789C60F0
:202C80004B7883508978014A815010BD0C11000010B5029CA400001911431943014A8150AB
:202CA00010BDC0465018000003228058002805D0401E4A1C00230B701146F7E77047000091
:202CC00040B584B002AE0096FFF796FE029A039B04B040BD80B50B4603214258C11D184690
:202CE00000F016F880BD000092008018014A81507047C046101800000148407E7047C046AA
:202D0000A0002020811E091F00BFFCD27047000080B5FFF783FC80BD00F001F8FEE700BF54
:102D2000704761E770470120704700000000000015
:202D300000000000003E5149453E00427F400042615149462141454B311814127F10274548
:202D50004545393C4A49493001710905033649494936064949291E08083E08080808080831
:202D700008006060000000363600007E1111117E7F4141221C7F494949413E4149497A7FFC
:202D9000404040407F020C107F080000020000003F9C000000000000000000000000000022
:202DB000414E474C453A2B3030302E3020444547000001FF00FF000001010000FF00FF0159
:202DD0000000FF0100010000FFFF0000010001FF00080003401F0000200000000800000051
:202DF00045270000D52C0000A92C0000020000003801000000030000FFF00000FC2D00002B
:102E100000002020042E00003801202000000000C7
:00000001FF
