:2000000000802020432800002724000027240000000000000000000000000000000000001F
:200020000000000000000000000000002724000000000000000000002724000027240000DF
:2000400027240000CD200000272400002724000027240000272400002724000027240000A6
:20006000000000002724000027240000000000000000000027240000272400002724000009
:20008000BD2600002724000027240000272400002724000027240000000000000000000006
:2000A0002724000027240000000000000000000027240000000000002724000027240000C9
:2000C00000B5A3B00125A8051290032001040E91290405910C9040030D90A80303902C0330
:2000E0001920C7012E0202F001FB284812990160149606601694046004461597384602F0E1
:2001000091FB234E3146103968021A9108600D9820600E98206000241E4F3846214622467C
:2001200002F078FB3846274621462A4602F072FB19480068010E022211404001C00F0818BC
:200140001649087016480068C10C1140C001C00F0818144908701448026002600599016040
:200160001248026002600160114801682943016010480168139529430160039830600E4BB7
:2001800018681968091A772927D817E0A0120A40A0320A400080864080130A40DA00202050
:2001A00080330A40DB00202080E200E000E100E00498864004580840BC00202030BF1968B2
:2001C000091A772909D830BF1968091A772904D830BF1968091A7829F0D306921398C30768
:2001E0000607C20303981A990860FC490A60FC4D2E6028461038036006602E602B600660F3
:200200002E60036006602E602B6006602E60036006602E60036006602E60036006602E6075
:200220002B6006600A602E60036006602E60036006602E602B6006602E60036006602E6051
:200240002B6006602E60036006602E602B6006602E60036006600A602E602B6006602E6009
:20026000036006602E602B6006602E60036006602E602B6006602E602B6006602E602B60C8
:2002800006602E602B6006600A602E60036006602E602B6006602E60036006602E602B60C9
:2002A00006602E60036006602E602B6006602E602B6006602E602B6006600A602E602B6081
:2002C00006602E602B6006602E60036006602E60036006602E60036006602E6003600660DD
:2002E0002E60036006602E60036006600A602E60036006602E60036006602E602B600660B9
:200300002E60036006602E602B6006602E602B6006602E60036006602E60036006600A6070
:200320002E602B6006602E602B6006602E602B6006602E602B6006602E602B6006602E60B4
:200340002B6006602E602B6006602E602B6006600A602E602B6006602E60036006602E60E0
:200360002B6006602E602B6006602E602B6006602E602B6006602E602B6006602E602B6077
:2003800006600A602E60036006602E602B6006602E602B6006602E602B6006602E600360C8
:2003A00006602E60036006602E602B6006602E60036006600A602E602B6006602E602B60A8
:2003C00006602E602B6006602E60036006602E602B6006602E60036006602E602B6006608C
:2003E0002E602B6006600A602E602B6006602E602B6006602E60036006602E602B60066040
:200400002E602B6006602E602B6006602E602B6006602E602B6006600A602E602B600660F7
:200420002E602B6006602E602B6006602E602B6006602E602B6006602E602B6006602E60B3
:20044000036006602E602B6006600A602E60036006602E602B6006602E60036006602E602F
:200460002B6006602E602B6006602E602B6006602E602B6006602E60036006600A602E60BF
:20048000036006602E60036006602E602B6006602E602B6006602E602B6006602E602B60A6
:2004A00006602E602B6006602E602B6006600A602E60036006602E60036006602E602B60A7
:2004C00006602E60036006602E60036006602E602B6006602E60036006602E602B600660B3
:2004E0000A602E602B6006602E602B6006602E602B6006602E60036006602E602B6006603F
:200500002E602B6006602E60036006602E602B6006600A602E60036006602E602B60066046
:200520002E602B6006602E602B6006602E602B6006602E602B6006602E602B6006602E60B2
:20054000036006600A602E60036006602E60036006602E60036006602E602B6006602E6056
:20056000036006602E60036006602E60036006602E60036006600A602E60036006602E605E
:20058000036006602E602B6006602E60036006602E60036006602E602B6006602E602B60CD
:2005A00006602E60036006600A602E60036006602E60036006602E60036006602E6003601E
:2005C00006602E602B6006602E602B6006602E602B6006602E600360066003E0A0320A40E2
:2005E000A0120A400A602E60036006602E60036006602E602B6006602E60036006602E6083
:20060000036006602E602B6006602E60036006602E60036006600A602E602B6006602E606D
:200620002B6006602E60036006602E60036006602E602B6006602E602B6006602E602B6004
:2006400006602E602B6006600A602E60036006602E602B6006602E60036006602E602B6005
:2006600006602E602B6006602E60036006602E602B6006602E602B6006600A602E600360E5
:2006800006602E602B6006602E60036006602E602B6006602E602B6006602E6003600660C9
:2006A0002E60036006602E602B6006601B920A602E60036006602E602B6006602E60036086
:2006C00006602E602B6006602E60036006602E60036006602E60036006602E601D9303608F
:2006E00006603A461B9BF8490B602E601D99016006602E60296006602E60016006602E6047
:20070000016006602E60296006602E605107294600D501461D9C0C6006602E609107294604
:2007200000D501461D9C0C6006602E601C92D107294600D001461D9A0A600660E7490B6056
:200740002E602A6006602E602A6006602E602A6006602E602A6006602E602A6006602E6095
:200760002A6006602E602A6006602E602A6006600B602E602A6006602E602A6006602E6098
:200780002A6006602E60026006602E602A6006602E602A6006602E602A6006602E602A6081
:2007A000066000211A9A13602E601D9C2C602F46103F3E602E602C603E602E602C603E60E6
:2007C0002E602C603E602E602C603E602E602C603E602E602C603E602E602C603E6013600E
:2007E0002E602C603E602E602C603E602E602C603E602E602C603E602E602C603E602E60D3
:200800002C603E602E602C603E602E602C603E6013602E602C603E602E602C603E602E60CD
:200820002C603E602E602C603E602E602C603E602E602C603E602E602C603E602E602C6094
:200840003E6013602E602C603E602E602C603E602E602C603E602E602C603E602E602C608D
:200860003E602E602C603E602E602C603E602E602C603E60091D49B2002994D51C9A511CDC
:20088000072A0A4600D22EE71398410404914003029001F0ABF89449087072B69349002089
:2008A0001090087062B600E09049914B72B60878002802D162B630BFF8E70878401E087094
:2008C00062B68C4801680120119080040840810C1A788A4242D1884B1A78072A01D8521C5A
:2008E0001A70864B1B785D1A6B426B41082A139A00D11A46002A824D824B34D17F4A117015
:20090000002801D000F06DFD7F48007800282AD17E4A1078401E032801D900F026FE00213A
:2009200011707B4801807B4801607B4801600A4618687A4908607A4811461C9202700D98D1
:2009400028600E982860774D284601F063FF012228466B4D1C9901F05DFF03E019701098FD
:2009600065490870674B65480078002801D1139801E065480078654AC00728D118686A492D
:200980000968401AC0087D2821D313985E490870109C14705E4804805E4804605E480460F3
:2009A00018685E4908605E4804700D9828600E9828605C4D28462146224601F02BFF01220F
:2009C00028464F4D214601F025FF504A4D4B1078401E032848D818681C90434800780128D6
:2009E0004DD14F480078002805D14C4800681968081A052843D300204949087047201EA992
:200A0000022201F06BF900282BD01EA9434800681C9A82423B4B3D4A31D00A7849781202A1
:200A200051181C9A101A142800D3142009B23F4A1268891A4143480037490968401819900B
:200A40008321189101F0F0FC324A116841181160189941431998401A2F4908602F481C9961
:200A60000160284B294A0AE010992A4801602A4801601868294B1860224B294801701078B3
:200A8000401E032822D82A4909681A68511A1A46284B99421AD3114606201C4A10700022E2
:200AA0001B4802801B4802601B48026008681B4908601B4802700D9828600E9828601948FA
:200AC00011461546E1E1C046A0320A40032800D9D3E103A14000085A40008744A0320A405B
:200AE0002D0018012D001801DD002020D9002020E100202080130A40E2002020DF002020F5
:200B0000A0120A40BC002020E0002020E3002020D0002020B0002020B4002020B8002020AE
:200B2000DC00202000808640C8002020AC002020C00020203C73000012982860149828604A
:200B400016982860159801F06DFE2946E04D28681890129D3D6014980860169808600C46BA
:200B6000159801F05FFEDA480068179025601498386016982060159801F054FED4480068DE
:200B80000F903D60149838601698D2490860159801F048FECE4800680B90CE490D60149877
:200BA000086016983860159801F03CFEC84800680A903D601498C7490860169838601598E9
:200BC00001F030FEC24800680990C2480560149D3D6016983860159801F024FEBC480068BC
:200BE0000890129838603D6016983860159801F019FEB74800680790B7480068C1174840BE
:200C0000421AB6480068C1174840401A1C921990151A0321284601F007FC0146B04881424A
:200C200000DCAF49AF208000814200DB0146AA1D00200D2A0246A74D00D30A46A9490978BC
:200C4000012913D11546A8480068A8490968401A282101F0E9FBA649884200DCA4484B210C
:200C6000C900884200DB08462A469A4D8018A149884200DC9F4818990901C90F179A920E6E
:200C8000069B1A4051180F9A520E042301931A4051180B9A120E0823134059180A9AD20D32
:200CA000102313405918099A920D202313405918089A520D402313405918079A120D802369
:200CC00013400B4318937D21C900884200DB0846F04A8118179103993960029929600599FC
:200CE0003960111A049828600022EB4D28460F9201F090FD012228461799179201F08AFDC3
:200D0000189D002D00D174E3E448007874E3129828601498286016982860159801F082FD15
:200D200029466B4D28681C90129D3D6014980860169808600C46159801F074FD6448006865
:200D4000199025601498386016982060159801F069FD5F48006818903D60149838601698A9
:200D60005C490860159801F05DFD59480068179058490D601498086016983860159801F0B8
:200D800051FD534800680F903D6014985149086016983860159801F045FD4D4800680B905A
:200DA0004C480560149D3D6016983860159801F039FD474800680A90129838603D601698B4
:200DC0003860159801F02EFD414802684248016842480068F44B1B78012B02D100F006FD16
:200DE0005AE0CB175940C91AC3175840C01A4118EE4800780128099100D045E3039838601A
:200E000034480299016005993960049901600022A14D28469F491C9201F0FCFC0122284697
:200E20009C4901F0F7FCE24809998142E14A34D91078022800D0C5E372B627481C9B036047
:200E40002648036062B62848006828490860DA480068DA49086091480370D94803800C984F
:200E600010701EA81C90D7491C9C2DC92DC41C9408781C990870174D26E00D9828600E9827
:200E80002860002184480A460D4601F0C3FC01228148294601F0BEFCC64A107819901EA87D
:200EA0001C90C84A1C9C2BCA2BC41C9410781C9908701998401E032833D8064D78440079A6
:200EC000400087440119011907480068074916E080130A40A0120A40A4002020A800202031
:200EE00044FDFFFFDD002020B0002020C4002020A8FDFFFF18FCFFFFB3480068B34909681D
:200F0000401AB3490968AC4A1268511A642900D2CAE4A9490968AE4A1160002804D43230F4
:200F200007E00020AB4DECE71EA92D228A713221081A642101F012FBA749884200D3A6485B
:200F4000A6494143CA0D30211C910A431EA91791CA718208A24B5A43520CCD235343DB0A75
:200F6000014619900A204343D21A1C9B1A43179B1A729C4A4A43D20C9B4B53431B0C434319
:200F8000D31A1C990B4317994B720F9042431998801A1C9908431799C87294481B990160AA
:200FA0002E601D9A3A603E602E602A603E602E603A603E602E603A603E602E602A603E60BC
:200FC0002E602A603E602E603A603E602E603A603E6001602E602A603E602E602A603E6002
:200FE0002E602A603E602E602A603E602E602A603E602E602A603E602E602A603E602E60D5
:201000002A603E6001602E602A603E602E602A603E602E602A603E602E603A603E602E60D1
:201020002A603E602E602A603E602E602A603E602E603A603E60412222E01B9901602E604E
:201040001D9929602846103806602E60296006602E60296006602E60296006602E602960A7
:2010600006602E60296006602E60296006602E602960066017980278002A01D1FFF714FC68
:20108000203A2E2A5A4B00D9B9E00021900004A212589746FC08000000808640DE00202081
:2010A000F7110000FF110000FF110000FF110000FF110000FF110000FF110000FF110000B8
:2010C000FF110000FF110000FF1100005D110000FF1100007511000091110000FF1100002A
:2010E000951100007911000081110000851100009D11000099110000691100007D11000038
:201100006D1100006511000089110000FF110000FF110000FF110000FF110000FF110000F1
:20112000FF1100008D110000FF110000FF110000A5110000A1110000FF11000061110000F7
:20114000FF110000FF110000FF110000FF11000071110000FF110000F51100000B214AE061
:20116000122148E00F9946E0072144E0092142E0132140E00C213EE002213CE008213AE08D
:201180000C9938E0042136E00E2134E00F2132E00D2130E011992EE006212CE005212AE079
:2011A000112128E0102126E0D3002020D2002020EF550000E3002020BC002020C000202036
:2011C000D0002020D0280000B0002020A0002020CC002020A0120A400F270000C520000014
:2011E0007B140000CDCC00009A190000A0320A4050280000142105204843F1490B1817988F
:20120000401C179000211A98189304E01D9C0C6016601C99C91C1C9159561B9A02602E6033
:2012200000292A4600DA3A461D9C14603E602E604A062A4600D53A461D9C14603E602E60F4
:201240008A062A4600D53A461D9C14603E602E60CA062A4600D53A461D9C14603E602E60F2
:201260000A072A4600D53A461D9C14603E602E604A072A4600D53A461D9C14603E602E60D0
:201280008A072A4600D53A461D9C14603E6032462E60C907294600D039461C9E9E191D9C6F
:2012A00023460C603A600121199671561B9E06602A60002900DA3D462B603A60CC4802605D
:2012C0004D06054600D53D461D9828603A60C84802608D060546189B00D53D461D982860A9
:2012E00016463A60C2480260CD06054600D53D461D9828603E60BE4806600D07054600D59B
:201300003D461D9828603E60B94806604D07054600D53D461D9828603E60B54806608D073F
:20132000054600D53D461D9828603E60B04D2E60C90729461A9800D039461D9A0A603E60A5
:201340001C99032900D178E60221199A51561B9A02602E602A46103A002900DA15461D988E
:2013600028601660A24806604D06054600D515461D98286016609E4806608D06054600D59F
:2013800015461D9828601660F8480660CD06054600D515461D9828601660F44806600D07E2
:2013A000054600D515461D9828601660EF4806604D07054600D515461D9828601660EB48AD
:2013C00006608D07054600D515461D9828601660E64D2E60C90729461A9800D116E711460E
:2013E00014E71868E64908600020E6490870FFF7BAFA1398ED490870E34A1C99199B59180A
:20140000F94B9942179B00D80F9B8909AE29139908D81946C00707D0002D08D119460129F8
:2014200008D03AE5C007F7D11946002DF6D0012900D032E5107872B60021D84A1160D84A3D
:20144000116062B60128069B00D0019BC8480268D5480260CD480268DD480260D548017040
:20146000D5480170D7480170D7480170FF22DB4802700122DA480270DA480170CC48018029
:20148000C148199303700AE51C980001C00F1999890E069B194008181899490E04231C9370
:2014A000194008181799090E08231893194008180F99C90D10231793194009180B98850D93
:2014C000202005406D180A994B0D40210B405B19120D802515401D43FF2D199501D110981A
:2014E00090E00A902B46119A13400F935A42FF235E339A432B46069803400B9300D0FA3AB1
:201500001C9B2B401C930A9800D0963A189B2B40189300D0323A179B2B4017931FD0323299
:2015200028401ED1294000D0FA320B9B5B080F9D5B191C9DAD085B19189DED085B19179D12
:201540002D095B194009181889094018199949B200294FD4002851D19548008854E028403A
:20156000E0D096322940DFD1DFE784480078002805D100F03BFA844A7D4B804908700020B6
:2015800082490860824908601968824B19608249087072B6814908608149086062B67B4973
:2015A0000968804B1960724909687F4B1960704B7E4908707E49088001201070FFF7D3F95B
:2015C000502800000520107079481C9A02806F4802606F480260664800686E4908606E48D8
:2015E000027062480D9901600E990160FFF767FAA0120A40AF2149005218401CC1B210B259
:2016000000F012FF6A49088001B2169860380D464843AF21490000F007FF6849884200DC51
:2016200066487D2118918A01904200DB1046644A9042024600DC624A4C49C92D0D9B02DCC6
:20164000039B3B60029B4C4D52191C920D460B600E9A02D0059A3A60049A18998B011C9901
:20166000994200D31C934449091AC8178143994200DB19462A6000223B48154601F0CAF868
:20168000012239481C991C9201F0C4F81998002809D013984B4908704B482B460570284646
:2016A000394A099D18E01995464800780128364A099D0DD1454885420AD3434800780328C9
:2016C00016D8411C404B1970C11E4842484102E000203D490870199B26498D4200D90123CA
:2016E0000028139800D11846012801D0FFF7D5FB2648006836490968421A284801682848BD
:201700000068344B9A421A4B04DC334DAA4204DCFF221C92314A1C9D1570CA175140891AD8
:20172000C2175040801A884201D901200AE0814201D9002006E000201D49095E002903D06B
:201740000029F2DC2649087013981A4908700020244908701968144A11601549088000F0FA
:2017600045F8FFF799FBC04600808640A0120A40BC002020EF550000FC080000DD002020F9
:20178000C8002020E0002020E3002020B0002020B4002020B8002020DC002020A400202022
:2017A000A8002020C4002020C0002020DE002020D0002020D3002020D2002020C0E0FFFF4C
:2017C00004F7FFFFD7002020D6002020823E0000A00020208713000078ECFFFFD500202032
:2017E000D4002020D8002020AF3B0000F0B583B0644C654F6548007800280DD06848006855
:201800000021684A5356684A5A431018674A1268002B1CDC141A1BE05D48002202705D4880
:20182000012505705C48028038461038A9030160690339602904016068043860574E204672
:20184000314600F0E7FF204631462A4695E0841AE01722464240121A5548824233D8032639
:201860003004710301913960029038600025454C204629462A4600F0CDFF012220462946BC
:2018800000F0C8FF4B490878032803D8421C0A70032874D14B480178022953D172B64E4915
:2018A0000D604E490D6062B6404909684C4A1160464909684B4A11604B490D7036490D807B
:2018C000067003B0F0BD012358033A4D2970012C00DB0B460146BF39374C384D384EB24279
:2018E00001D32E4E01E02E46C83624788A4200D335469C4212D1394610390126B2030A60C0
:20190000386003200004386000271E4C204629463A4600F07FFF2046394611E003204003E0
:20192000386038461038012631040160700438600021144C20460A4600F06CFF2046294619
:2019400032461AE00521017013480580174805601D4805601D4800681D4908601D4805709B
:201960000198386002983860064C204629462A4600F050FF01222046294600F04BFF03B049
:20198000F0BDC04600808640A0120A40DD002020D3002020D2002020D0002020FC080000FC
:2019A000A0002020D500202020BF0200B0002020DC050000D8002020D40020204C04000004
:2019C00031750000E3002020B4002020BC002020B8002020DC002020A4002020A80020206E
:2019E000C4002020C0002020DE002020F0B587B0752005AE01243146224600F06FF9002520
:201A0000002800D1CAE03078682800D0C6E006A86B27077080214170022100F0EFFA002848
:201A200000D1BBE05F4E30683168091A63290ED830BF3168091A632909D830BF3168091A04
:201A4000632904D830BF3168091A6429F0D306A807704470022100F0D1FA002800D19DE0F6
:201A600006A86C21017000254570022100F0C6FA002800D192E006A81A2101700321417073
:201A8000022100F0BBFA002800D187E006A81B21017008214170022100F0B0FA002800D133
:201AA0007CE006A81921017004214170022100F0A5FA002872D006A837210170002545702E
:201AC000022100F09BFA002868D006A8382101704470022100F092FA00285FD030683168AB
:201AE000091A13290ED830BF3168091A132909D830BF3168091A132904D830BF3168091A6B
:201B00001429F0D3284900250D7030680390306804900295019502E03946C82D2DD2306841
:201B2000039A801A00097C2823D80878002804D13068049A801A052817D300200F46087075
:201B400030680490472006A9022200F0C7F80028E2D0069801BAC917C0BA029A1218029289
:201B60000198484101906D1CD6E730BFC82DD6D303E0A02D01D2002510E0002702980199EC
:201B80002A463B4600F032FE0849086008480760084807603068084908602546284607B02C
:201BA000F0BDC046BC002020DC002020AC002020B0002020B4002020B800202070B53A49EA
:201BC00087228A63394804230360CA6308220260374B9A1C0A600C680C604A604A684A6023
:201BE0000C68012255062C430C604C682C434C60304C23602568256081254D664B634E6B78
:201C00004E638D67CD678D604D612646103E35602646143E35602646083E3560261F35608D
:201C2000E363E66BE663E364E66CE6642362266A26622363266B2663E5618D6421461839B5
:201C40000D602365216D21651B491C4B0B6109231B070B601A4B0B641A490B6892031A43EF
:201C60000A600A690F239B0413430B6116490A6A164B1A430A620A681A430A6001464039FE
:201C8000612252020A60026011480168114A0A4302601148016A11221205114301620168A7
:201CA0001143016070BDC04604804240D0320A4081000C00A080424090120A40007143001B
:201CC0000071439090130A4028100A4080000006A0330A400003030028300A40F0B583B02E
:201CE00014460D4602AA10700121104600F086F9002818D03A4F3B4E30687968890614D412
:201D00003168091A092957D8796889060DD43168091A092950D87968890606D43168091A39
:201D20000A29EAD348E0002452E0304800F0AEFC2F48801E2C490860381F01682D4A0A40B0
:201D4000D1320260200439682B4A0A408018C01D386030680190002023491839096801E035
:201D6000501CAB54BA6A12071BD0BA68A04202D2431C2A5400E00346B86A00070ED0B868CB
:201D8000A34202D25A1CE85400E01A46B86A000706D0BB68A242E3D31046E3E7184600E07E
:201DA0001046134AD21E114206D1C90713D13168019A891A0A29CFD300243C600B4D284670
:201DC00000F00CFC284600F061FC074808490160204603B0F0BD001B44424441F8E7C0467E
:201DE00014120F40BC00202048100F4000000F408304000000F8FFFFF8FF00F0F0B5394AF0
:201E00008218394BC0183A4D4C790B79002C22D0466F202B02D00524E70100E0354F2E4029
:201E2000002B00D188273E434667846F2C403C438467446B2D4E34404463846B3440846371
:201E400000244465846554688F26F643344054609468344094600C688979202B09D00646B0
:201E60007036002B15D1641E4460C46E2C40882715E0641E4460C46E2C401E4E3443C46672
:201E8000046F2C40344304671B4D01246707064607E00527FF0164084460C46E2C403C43FA
:201EA000C46634682C403C433460C46A0F4D2C40C462046B2C4004630024C4640465C46F97
:201EC0008F25ED432C40C46714682C401460194302680A4B1340BD220A40D118891C0160A5
:201EE000F0BDC04684180000041800008888FDFF24493E0001040000FFFFFFCF4000FFCFE1
:201F0000B0B53A4A80184A6842600A78222A56D8930001A4E3589F46B51F0000BF1F0000E6
:201F2000B51F0000BF1F0000BF1F0000BF1F0000BF1F0000BF1F0000BF1F0000BF1F0000BB
:201F4000BF1F0000BF1F0000BF1F0000BF1F0000BF1F0000BF1F0000A51F0000BF1F0000AB
:201F6000A51F0000BF1F0000BF1F0000BF1F0000BF1F0000BF1F0000BF1F0000BF1F00008B
:201F8000BF1F0000BF1F0000BF1F0000BF1F0000BF1F0000BF1F0000A51F0000BF1F00006B
:201FA000A51F0000036803242407A343012464071B1903E0036803242407A34303600B6999
:201FC000C360CB68C46A0A4D25400A4C1C402B19C3620368084C1C400460097A11430268E6
:201FE0003F239A43194051180160B0BD041800008888FDFF777702007F00FFFFF0B583B0A5
:202000000A462C4E2C4B0921CC012D4F3D687168890612D43968491B092939D87168890669
:202020000BD43968491B092932D87168890604D43968491B0929EAD92AE0029201901F4DAB
:20204000284600F0CBFAA01C1B4908602846029D01992A4600F0B8F9174BA84218D1301F99
:202060000168184A0A40D032026028043168164A0A408018C01D30603868194618390968B2
:20208000214205D1890712D43968091A0A29F4D300253560094F38461E4600F09FFA3846D8
:2020A00000F0F4FAE01C3060284603B0F0BD0125FAE7C04614120F4048100F4000000F4070
:2020C000BC00202000F8FFFFF8FF00F0F0B5234C234B11210905103B1B68103C24680C4073
:2020E0005D01AD0F13D01F4D2D682E0E022737406D01ED0F7D191C4E3778BF00EF19FFB275
:202100001A48C0571A4F3A681018386035700325002C13D017480068C20C02241440C001CF
:20212000C00F2018144A1478A4000419E4B20F4E3457124E37683C19346010706C06180677
:2021400002D50F4801220270054A1068803404431460024A106808431060F0BD48300A4098
:2021600048100A4080130A40DA002020E1280000A400202080330A40DB002020A8002020D9
:20218000DC002020F0B58B4200D1824204D90B0002000021002040E0002B00D1002A0CD1CE
:2021A0000B00020000210020002B00D1002A01D0C943C04300F011FA2FE01C0015000B0085
:2021C00002000CB4002126002F00FF19764102D2491C4029F9D100201E001700FF19764168
:2021E00002D2401C4028F9D10E1A21002800320000F0B8FA0C0005000CBC00200021A34239
:2022000000D1AA4201D3521BA341404149416D08E7073D436408761EF1D5059F002F01D084
:202220003A607B60F0BD002A49D084468B071CD1830722D1102A08D370B4103A78C978C077
:20224000103AFBD270BC103238D0042A2CD3082A05D30C2A01D308C908C008C908C008C9AD
:2022600008C092072AD0920F22E00B780370491C401C521E22D08B07F7D1C30714D18307B4
:20228000D8D0121F12D308C903801B0C4380001D121FF8D20AE008C903701B0A43701B0AFF
:2022A00083701B0AC370001D121FF4D2121D05D00B780370491C401C521EF9D1604670476D
:2022C00070B582B01B491C4C204600F069FA1B492046FFF793FD1A4801681A4A0A400260F7
:2022E00000250095204629462A462B4600F066FA204629462A4600F045FA204629462A4665
:2023000000F088FA01260096204629462A462B4600F054FA20462946324600F033FA2046CA
:202320002946324600F076FA074886600321016002B070BDB928000000808640F42800007A
:20234000049886407F00FFFF00918640F8B5451C00780023082B32D02F78C2070CD16A783A
:202360000F241440E41C122C0BD102242E57F4B2002E08D4EE1C0EE06D1C4A1C0F701146A4
:202380001AE0AE1C08E02E1DED7800957F252C40009DED012C1912343D0112095219094D0C
:2023A000AA420ED0D243002C05D08D5C4F1C0D70641E3946F7E7354640085B1CCAE7284634
:2023C000C5E7F8BDFF0F0000F0B581B0002A22D091235B01C3180F200402901E0090561ECA
:2023E0000020DF6927421BD00F5C1F60864210D0DF69274211D00F187D781D60009D854200
:2024000007D0DD6925420AD0BD781D60C01C8242E7D1104604E0002002E0401C00E0801C40
:2024200080B201B0F0BDFEE71CB5002922D04C08002900D5494242105440002800D54042F9
:2024400000230A00904201D95200FBE790425B41904200D3801A914201D25208F6E71900CC
:20246000002C00D54042640000D549420200080011001CBD0100002000F001F81CBD704787
:2024800080B51149114800F059F911480168032252020A430260026801210B0213430360D6
:2024A0000022426107224262836B93438363836B120293438363826A042313438362826AE8
:2024C0000A43826280BDC046FC28000000000F4000120F40B0B50A480A4941600A4A516004
:2024E0000A4B59600A4C61600A4D69600A4901601160196021602960102000F093F9B0BDD6
:2025000000080A40030000B100280A40008886400048084000080F40010000260D48002171
:2025200001600D48011F0A680323DB4313400B6041680122914341604168120291434160DE
:20254000016830229143016001680F22914301607047C04608030B4004010B401CB50A007E
:2025600017D000230124E407A04200D20400944201D95200FBE790425B41904200D3801AF8
:20258000914201D25208F6E719000200080011001CBD01000020FFF772FF1CBDF0B585B016
:2025A0000A9CCD17DE1769406840401BA94173407240921BB3416E4002AF0097FFF7E2FD35
:2025C00071407040801BB141029A039B6B406A40521BAB410CC405B0F0BD704770B50D4DBD
:2025E00041190F2212020123DC02465980231E43465148681040A04207D048681040A04265
:2026000003D048681040A042F3D108689843086070BDC0463812000070B50A480A4C84427E
:202620000CD00A4D0A4EB54208D02A686968501C12789200A25890470835F4E700BF00BFEE
:2026400070BDC0460C290000002900001C2900002C29000010B50849084C204600F0A0F8F7
:2026600007492046FFF74CFC064801680122114301600548026010BDF128000000400840BA
:20268000BC280000285008400851084010B50A4BC118C4580122D2031443C45048680007CC
:2026A00005D04868000702D048680007F6D108689043086010BDC0463812000008480068BE
:2026C000C0B201280AD107480168491D016006480178012902D80178491C01707047C0462E
:2026E00020500840BC002020D900202080B5FFF7F1FEFFF763FAFFF711FFFFF7E1FDFFF7D0
:20270000A9FFFFF7BDFE02489C210022425480BD00002020084880F3088800BF00BF00F063
:2027200092F8002801D0FFF777FF0020FDF7C8FC012000F081F8C0460080202070B501223A
:20274000120383180C785D680C26B54334402C195C60497883580724A34321405918815091
:2027600070BD000018B520239B1A04D8010000205B42994004E004009140DC4021439040EB
:2027800018BD000010B592008018044A83580724A404A34321405918815010BD30180000DB
:2027A00010B50122120383180C789C604B7883508978014A815010BD0C11000010B5029C01
:2027C000A400001911431943014A815010BDC0465018000003228058002805D0401E4A1C77
:2027E00000230B701146F7E77047000040B584B002AE0096FFF7D2FE029A039B04B040BD2F
:2028000080B50B4603214258C11D184600F010F880BD000092008018014A81507047C04600
:2028200010180000811E091F00BFFCD27047000080B5FFF7F8FC80BD00F001F8FEE700BF7C
:10284000704767E7704701207047000000000000F4
:2028500000000000003E5149453E00427F400042615149462141454B311814127F1027452D
:202870004545393C4A49493001710905033649494936064949291E08083E08080808080816
:2028900008006060000000363600007E1111117E7F4141221C7F494949413E4149497A7FE1
:2028B000404040407F020C107F080000020000003F9C000000000000000000000000000007
:2028D000414E474C453A2B3030302E3020444547000001FF00FF000001010000FF00FF013E
:1028F00000080003401F0000200000000800000046
:202900004D23000001280000D527000002000000E3000000000100FFF00000000C29000018
:102920000000202014290000E30020200000000007
:00000001FF
