:2000000000802020970C0000C3080000C308000000000000000000000000000000000000E7
:20002000000000000000000000000000C30800000000000000000000C3080000C30800005F
:20004000C308000081070000C3080000C3080000C3080000C3080000C3080000C30800008B
:2000600000000000C3080000C30800000000000000000000C3080000C3080000C308000089
:20008000C1000000C3080000C3080000C3080000C3080000C30800000000000000000000A8
:2000A000C3080000C30800000000000000000000C308000000000000C3080000C308000049
:2000C000F0B58DB0E3480068C0B2012800D0AEE1E2490125E34F3868401D38600968A8047C
:2000E0000840810CE04A13788B4233D1DF4B1A78072A01D8521C1A70DD4B1C78661A7442F5
:200100007441082A2A4600D12246002A26D11970002800D031E1D848007800281ED1D74CC9
:20012000D7480178012900D08AE100260670D548068003204103CA4A116000041060C64815
:200140003146324600F090FD0122C348314600F08BFD7AE11170C54800210170C448017816
:20016000C548002903D12946C90703D023E00178C90720D13968BF4A1268891AC9087D29E8
:2001800019D30570BE4800260670BE48068003204103B34A116000041060AF4C20463146AF
:2001A000324600F061FD204631462A4600F05CFD6802B2490860B2480078012800D09AE031
:2001C00001218A050B92A64C226008020C90206009910F0327601920C50128460A9500F008
:2001E0004BFD9E4800680001C00F089020462646103E0B9C34600C9901600760284600F0DB
:200200003BFD96480068800E022101910840089940180890924804600C9C346007602846F5
:2002200000F02AFD8D480068400E0421029108400899401808900B9830603460884807608D
:200240003C460797284600F017FD84480068000E0821039108400899401808900B9F8048C2
:2002600007600C9901603460284600F005FD7B480068C00D10210491084008994018089086
:2002800037603D460C9C76480460079F37600A9800F0F2FC71480068800D202105910840F0
:2002A0000899401808906E480560346037600A9D284600F0E1FC69480068400D4021069127
:2002C00008400899401808900B98306034600C963760284600F0D0FC60480068000D80215D
:2002E000014008980143FF2913D1664900200880594E099F50E003204103594A1160000478
:2003000010600025544E304629462A4600F0ACFC88E00A46099F3A405042FF235E339843BF
:20032000019B0B4000D0FA384B4E5B089A18029B0B4000D096389B08D218039B0B4000D05A
:200340003238DB08D218049B0B4000D032301B09D218059B0B4000D096305B09D218069BCC
:200360000B4000D0FA309B09D21849B2002909D4002A0BD1434800880EE038683D49086014
:200380003D48E9E6AF2149004018521CD1B200B200F062FB3B490880BA037B0300B203218B
:2003A0004843C40F00194410E01725464540401B354D4519E8178543281B00B22C19002827
:2003C00004DD15461A460C9B1D6003E000281D46F9D44A0324B27D043B04214F3A60002C09
:2003E00004DD1A462B460C990A6003E0002C2A46F9D40B041A490B6024498C4200DC0C46AA
:20040000234A944215DA884216DD904200DB1046C1174840411A0022304600F025FCE0178F
:200420004440251A01223046294600F01DFC0DB0F0BD14468842E8DC08469042E7DAE7E7E7
:20044000104900220A800570103401204002206084E6C046205008400080864080130A40B0
:20046000A0120A40A8002020B4002020B5002020B2002020AC002020B300202090320A40D2
:20048000B6002020B0002020FC08000048F4FFFFB80B0000F0B5394A8218394BC0183A4DD0
:2004A0004C790B79002C22D0466F202B02D00524E70100E0354F2E40002B00D188273E43F4
:2004C0004667846F2C403C438467446B2D4E34404463846B344084630024446584655468A5
:2004E0008F26F643344054609468344094600C688979202B09D006467036002B15D1641E63
:200500004460C46E2C40882715E0641E4460C46E2C401E4E3443C466046F2C403443046763
:200520001B4D01246707064607E00527FF0164084460C46E2C403C43C46634682C403C4383
:200540003460C46A0F4D2C40C462046B2C4004630024C4640465C46F8F25ED432C40C46746
:2005600014682C401460194302680A4B1340BD220A40D118891C0160F0BDC046841800004A
:20058000041800008888FDFF24493E0001040000FFFFFFCF4000FFCFB0B53A4A80184A6876
:2005A00042600A78222A56D8930001A4E3589F464D060000570600004D06000057060000E5
:2005C000570600005706000057060000570600005706000057060000570600005706000033
:2005E000570600005706000057060000570600003D060000570600003D0600005706000047
:200600005706000057060000570600005706000057060000570600005706000057060000F2
:20062000570600005706000057060000570600003D060000570600003D06000003680324D1
:200640002407A343012464071B1903E0036803242407A34303600B69C360CB68C46A0A4D8D
:2006600025400A4C1C402B19C3620368084C1C400460097A114302683F239A431940511839
:200680000160B0BD041800008888FDFF777702007F00FFFFB0B52F49084664388722026025
:2006A0002D48042303600B46603B1A60082202602A4A0A600B680B600C46383C81232360A0
:2006C0000C46103C23600C46143C23600C46083C23600C1F2360224CE261E569E561E26284
:2006E000E56AE562226025682560226125692561251F2B600D46543D2B6018390B602263BA
:20070000216B21631749184A0A600A6317490A680F239B0413430B6015490A6A03235B0673
:200720001A430A620A681A430A6001464039012252020A6002600F4801680F4A0A430260EC
:200740000E48016A1122120511430162016811430160B0BDA0804240D0320A4081000C00D1
:20076000C0804240A0120A4000714300A0130A4028100A40A0330A400003030028300A40C3
:2007800070B523482349012294060B46103B1D680346103B1B68AE010AD4254215D0550634
:2007A0001D4C26681D4C24682E420BD1641C0AE0194D2E68194D2D68264201D16C1E02E0FA
:2007C0006C1C00E0641E154D2C601406DD020AD4234211D01305124A1468124A12681C4200
:2007E00007D0521E06E00E4A13680E4A12682342F7D0521C0B4B1A600A6803235B0613436E
:200800000B600168112212050A43026070BDC04648300A4048100A4080130A40A0002020B7
:2008200080330A40A4002020002A49D084468B071CD1830722D1102A08D370B4103A78C90A
:2008400078C0103AFBD270BC103238D0042A2CD3082A05D30C2A01D308C908C008C908C060
:2008600008C908C092072AD0920F22E00B780370491C401C521E22D08B07F7D1C30714D187
:200880008307D8D0121F12D308C903801B0C4380001D121FF8D20AE008C903701B0A4370B4
:2008A0001B0A83701B0AC370001D121FF4D2121D05D00B780370491C401C521EF9D1604619
:2008C0007047FEE770B582B01B491C4C204600F09DF91B492046FFF7DDFD1A4801681A4AA4
:2008E0000A40026000250095204629462A462B4600F09AF9204629462A4600F079F920464C
:2009000029462A4600F0B0F901260096204629462A462B4600F088F920462946324600F03E
:2009200067F920462946324600F09EF9074886600321016002B070BDBC0C000000808640DC
:20094000B40C0000049886407F00FFFF0091864000F03CF90124A005194D2860200228601A
:20096000200328601920C00100F086F960021549086003204103296000042860124D00263A
:2009800028463146324600F06FF928463146224600F06AF90D480221016001602204026040
:2009A0000B480160016002600A48016821430160094801682143016030BF30BF30BFFBE712
:2009C000A0120A4090320A400080864080E200E000E100E00498864004580840F8B5451CB2
:2009E00000780023082B32D02F78C2070CD16A780F241440E41C122C0BD102242E57F4B206
:200A0000002E08D4EE1C0EE06D1C4A1C0F7011461AE0AE1C08E02E1DED7800957F252C400E
:200A2000009DED012C1912343D0112095219094DAA420ED0D243002C05D08D5C4F1C0D70D5
:200A4000641E3946F7E7354640085B1CCAE72846C5E7F8BDFF0F00001CB5002922D04C08AF
:200A6000002900D5494242105440002800D5404200230A00904201D95200FBE790425B410D
:200A8000904200D3801A914201D25208F6E71900002C00D54042640000D5494202000800D0
:200AA00011001CBD0100002000F001F81CBD70470D48002101600D48011F0A680323DB43B0
:200AC00013400B6041680122914341604168120291434160016830229143016001680F225B
:200AE000914301607047C04608030B4004010B4010B5094809494160094A5160094B596044
:200B0000094C616009490160116019602160102000F0B2F810BDC04600080A40030000B1FE
:200B200000280A4000888640004808400100002670B50A480A4C84420CD00A4D0A4EB54229
:200B400008D02A686968501C12789200A25890470835F4E700BF00BF70BDC046D40C000058
:200B6000C80C0000E40C0000F40C000010B50849084C204600F04AF807492046FFF70CFDFA
:200B8000064801680122114301600548026010BDBF0C000000400840A00C0000285008408B
:200BA00008510840084880F3088800BF00BF00F074F8002801D0FFF7BBFF0020FFF7C8FEE2
:200BC000012000F063F8C0460080202080B5FFF78FFFFFF75FFDFFF76BFFFFF773FEFFF71B
:200BE000C5FF02489C210022425480BD0000202010B592008018044A83580724A404A34324
:200C000021405918815010BD3018000010B50122120383180C789C604B7883508978014A22
:200C2000815010BD0C11000010B5029CA400001911431943014A815010BDC04650180000D2
:200C400003228058002805D0401E4A1C00230B701146F7E7704780B50B4603214258C11D2A
:200C6000184600F00FF880BD92008018014A81507047C04610180000811E091F00BFFCD263
:200C80007047000080B5FFF7CFFD80BD00F001F8FEE700BF704785E770470120704700002A
:200CA000020000003F9C0000000000000000000000000000401F00002000000008000008C8
:080CC000000300000000000029
:200CC800DD090000570C0000410C000002000000B6000000000100FFF0000000D40C0000EE
:100CE80000002020DC0C0000B600202000000000DE
:00000001FF
