:200000000080202073180000571400005714000000000000000000000000000000000000BF
:2000200000000000000000000000000057140000000000000000000057140000571400007F
:2000400057140000FD100000571400005714000057140000571400005714000057140000A6
:20006000000000005714000057140000000000000000000057140000571400005714000069
:20008000ED1600005714000057140000571400005714000057140000000000000000000046
:2000A000571400005714000000000000000000005714000000000000571400005714000029
:2000C00000B599B00125A805159003200104109129040491009040030F902C0319201190A4
:2000E000C7012E0201F01AFBC24815990160139606601694046004461297384601F0AAFBC5
:200100006802BD4908600F982060109820600027BA4C204639463A4601F094FB20463946C1
:200120002A4601F08FFBB6480068010E022211404001C00F0818F0490870F0480068C10C9C
:200140001140C001C00F0818ED490870ED480260026004990160EE4802600E9202600160FE
:20016000EC48016829430160EB48016829430160752017AC214614952A4600F043FD00287C
:200180003E4600D1CFE0207868283E4600D0CAE018A86B24047080214170022100F046FFC8
:2001A00000283E4600D1BEE0DC4D28682968091A63290ED830BF2968091A632909D830BF46
:2001C0002968091A632904D830BF2968091A6429F0D318A8047001244470022100F026FFCB
:2001E00000283E4600D19EE018A86C21017000264670022100F01AFF002800D193E018A812
:200200001A21017000994170022100F00FFF002800D188E018A81B210170082141700221FC
:2002200000F004FF002800D17DE018A81199017004214170022100F0F9FE002873D018A88F
:200240003721017000264670022100F0EFFE002869D018A8382101704470022100F0E6FE63
:20026000002860D028682968091A13290ED830BF2968091A132909D830BF2968091A132921
:2002800004D830BF2968091A1429F0D3A44900240C70286811902D680D940C9402E03146F2
:2002A000C82C2ED29D480068119BC01A00097C2823D80878002804D198480068401B052882
:2002C00017D300200E46087094480568472018A9022200F097FC0028E1D0189801BAC9170C
:2002E000C0BA0D9A12180D920C9848410C90641CD5E730BFC82CD5D303E0A02C01D20026DC
:2003000011E000250D980C9922462B4601F086FA8449086084480560844805607F4800686D
:2003200083490860149E14984104039181030291400301907F48067072B67F48077062B6AC
:200340007E4D074601E062B630BF72B638780028F9D03878401E387062B66C4801680120C8
:20036000119080040840810C754B1A788A4234D1744B1A78072A01D8521C1A70724B1B78BD
:200380005C1A63426341082A149A00D11A46002A27D16D4A1170002800D092E26B4800789C
:2003A00000281ED12878401E032800D9D2E300242C70674804800F480F9901601099016012
:2003C0000E4D28462146224601F03CFA012228465A4D214601F036FA03E019700020594970
:2003E00008705948007800280CD11498C0070DD02CE0C046A0120A4090320A4000808640B7
:2004000080130A4051480078C0071FD14348006850490968401AC0087D2817D314984B4949
:20042000087000242C704A4804804B480F99016010990160494D28462146224601F002FA08
:20044000012228463D4D214601F0FCF9334806683848007801283AD131480078002806D12F
:20046000334800682D490968081A05282FD300202B490870472018A9022200F0C3FB002833
:2004800025D018A92A480068864220D00A78497812025118301A142800D3142009B2214AA1
:2004A0001268891A4143480020490968441883252046294600F0D0FF1B4A11684118116039
:2004C0004543601B19490860194806601B4D2878401E032808D822490968104A1268511AFC
:2004E000204A914200D304E3032800D9E2E106A1085C40008744C046D000202080330A4015
:20050000D100202080E200E038ED38ED80130A4000E100E00498864004580840BC0020209E
:20052000D2002020AC002020B0002020B4002020B8002020D3002020CF002020D9002020A6
:20054000D7002020D8002020D5002020D6002020CC002020C8002020A0120A4000808640EB
:20056000C00020203C730000F54C159E2660139D2560169F2760129801F06CF9F148006840
:200580000B902046103C2660056007600746129D284601F05FF9EB4800680A9038463E60B8
:2005A000139F2760169E0660284601F053F9E54800680990159820602760E148066028465E
:2005C00001F048F9DF4800680890DD481599016007602660284601F03DF9DA4800680790EB
:2005E00015982060D64807602660284601F032F9D44800680690159ED14806602760169FB1
:200600002760284601F026F9CE480068059026601398206011942760284601F01BF9C94861
:200620000668C9480068C1174840421AC7480068C1174840401A0D920C90101A032100F06D
:200640000BFF0746C248874200DCC14F7D208000874200DB07460B980001C00F0A99890EC9
:200660000E9A114008180999490E04220B92114008180899090E08220A4010180799C90D6A
:2006800010220A4010180699890D20220A4010180599490D40220A401018310D80260E40D3
:2006A0000643AC480078012800D0E3E0AA480068AA490968401A282100F0CEFEA8498842F1
:2006C00000DCA7484B21C900884200DAD3E00846D1E09B4C159F2760139D2560169820603F
:2006E000129E304601F0B6F8964800680001C00F0D902046103C276005601699016030465E
:2007000001F0A8F88F480068800E0E9908400D9940180D908A4807602560169D05603046A5
:2007200001F098F887480068400E0421099108400D9940180D902760139820608048056032
:20074000304601F087F87F480068000E0821089108400D9940180C9079480760139E066093
:200760002560129801F076F876480068C00D10210D9108400C9940180C9027603D46704886
:200780000660374616982060129E304601F062F86C480068800D2021079108400C99401810
:2007A0000B90674805602760169D2560304601F051F864480068400D40210C9108400B99D0
:2007C00040180A901598206027600B942560304601F040F8F1480068000D802101400A987E
:2007E00001435948076859480368119C07D0E8480470FF2903D10020E6490880BDE00A9364
:200800000C406042FF225E3290430A460E9B1A40119200D0FA38099B089D0B4000D096383C
:200820000D4000D032380D9E0E400D9600D03230079E0E4000D096300C9A0A400C9200D07C
:20084000FA30119A520812199B08D218EB08D2180D9B1B09D2187309D2180C9B9B09D21883
:2008600049B2002900D57DE0002A00D07EE0DD48008881E00020C019CF4BC5180299119C84
:200880002160C74A0199116004992160191A039810600022C04C2046119200F0D3FF01273E
:2008A000204629463A4600F0CDFF002E10D0CC48007810E0BA480F99016010990160002464
:2008C00021E1B8480068BF4908600020BE4987E51498C3490870BD4D0D990C9A5118C84AAA
:2008E000914200D8119F8909AE29149921D83946C00720D0002E00D139460129B04F00D0E1
:2009000023E5701E8641297872B60020B14A1060B14A106062B601290E9900D00B99A24A72
:200920001268B24B1A60B04A1670AE4A108029700BE5C007DED13946002EDDD0DDE7C0469B
:20094000A0120A4080130A40A4002020A80020200CFEFFFFD3002020B0002020C4002020E3
:20096000A8FDFFFFAF2149004018521CD1B200B200F072FD9B4908800A9BF9174F40791A1E
:20098000DA1753409A1A541801B2169860384843AF25690000F060FD0746884800780128E7
:2009A00011941DD162084B20C1018A4200D30A468E4806687F48401C504300F0E7FD801BB5
:2009C000794909684018502100F046FD8849884200DC8748A90088420B9E03DB084601E079
:2009E00000200B9EC21983488242104600DC81487D214B01984200DB18467F4B98420346DF
:200A000000DC7D4B6C4C651EAA420F9A02DC029A3260019A1F19624B1A60109A02D0049A42
:200A20003260039A4B019F4200D31F466249091AC8178143994200DB194659480260002574
:200A4000554E30462A4600F0FDFE012430463946224600F0F7FE59480078012821D15248ED
:200A6000006862490968401AC1174840401A5149884216D9554D2878022852D172B60020B4
:200A8000544908605449086062B647490968534A1160534908705349088000982870484F26
:200AA00053E411990809E12800D32C464E48007800281498424F00D120460028434D18D0AC
:200AC0004E48814200D240E4287802285ED172B60020404908604049086062B632490968A0
:200AE0003E4A11603E4908703E490880009828702BE40620287000243A48048028480F99B0
:200B0000016010990160244D28462146224600F099FE012228462D4D214600F093FEFFF74C
:200B200014FC0520287000242E4804801C480F99016010990160184D28462146224600F0C1
:200B400081FE01222846214D214600F07BFE1C4FFFF7FBFB0020144A106014490860114BE1
:200B60001968134C21601968194B196072B6194908601949086062B61168184A1160184935
:200B8000087018490880119828702AE40520B1E7CE002020CC0020200080864080130A40AB
:200BA000A0120A40BC002020B0002020B4002020B80020201FBF0200FC080000D30020206A
:200BC000CF002020C8002020D6002020D9002020C0002020A4002020A8002020C4002020FF
:200BE000D4002020CC002020CE002020A000202044FDFFFF60F0FFFF04F7FFFFF05500001C
:200C0000AF3B0000F0B583B014460D4602AA10700121104600F00AFA002818D03A4F3B4EAB
:200C200030687968890614D43168091A092957D8796889060DD43168091A092950D879685F
:200C4000890606D43168091A0A29EAD348E0002452E0304800F032FD2F48801E2C49086078
:200C6000381F01682D4A0A40D1320260200439682B4A0A408018C01D3860306801900020B4
:200C800023491839096801E0501CAB54BA6A12071BD0BA68A04202D2431C2A5400E00346D4
:200CA000B86A00070ED0B868A34202D25A1CE85400E01A46B86A000706D0BB68A242E3D3A6
:200CC0001046E3E7184600E01046134AD21E114206D1C90713D13168019A891A0A29CFD389
:200CE00000243C600B4D284600F090FC284600F0E5FC074808490160204603B0F0BD001BD1
:200D000044424441F8E7C04614120F40BC00202048100F4000000F408304000000F8FFFFFF
:200D2000F8FF00F070B5354A87219163344804230360D16308210160324B991C11601468A9
:200D40001460516051685160146801214D062C43146054682C4354602B4C23602568256045
:200D6000812555665363566B56632646103E35602646143E35602646083E3560261F35601F
:200D8000E363E66BE663E364E66CE6642362266A26622363266B2663E56195642246183A5A
:200DA00015602365226D2265184A194B13601363184A13688C031C43146013690F24A404DB
:200DC0001C431461144A136A144C234313621368234313600246403A49021160016010489E
:200DE0000168104A0A4302600F48016A112212051143016201681143016070BD048042406D
:200E0000D0320A4081000C00A0804240A0120A400071430090130A4028100A4080000006B2
:200E2000A0330A400003030028300A40F0B5394A8218394BC0183A4D4C790B79002C22D0E1
:200E4000466F202B02D00524E70100E0354F2E40002B00D188273E434667846F2C403C4326
:200E60008467446B2D4E34404463846B3440846300244465846554688F26F6433440546070
:200E80009468344094600C688979202B09D006467036002B15D1641E4460C46E2C408827DE
:200EA00015E0641E4460C46E2C401E4E3443C466046F2C40344304671B4D01246707064664
:200EC00007E00527FF0164084460C46E2C403C43C46634682C403C433460C46A0F4D2C4097
:200EE000C462046B2C4004630024C4640465C46F8F25ED432C40C46714682C40146019436F
:200F000002680A4B1340BD220A40D118891C0160F0BDC04684180000041800008888FDFF30
:200F200024493E0001040000FFFFFFCF4000FFCFB0B53A4A80184A6842600A78222A56D856
:200F4000930001A4E3589F46E50F0000EF0F0000E50F0000EF0F0000EF0F0000EF0F000059
:200F6000EF0F0000EF0F0000EF0F0000EF0F0000EF0F0000EF0F0000EF0F0000EF0F000081
:200F8000EF0F0000EF0F0000D50F0000EF0F0000D50F0000EF0F0000EF0F0000EF0F000095
:200FA000EF0F0000EF0F0000EF0F0000EF0F0000EF0F0000EF0F0000EF0F0000EF0F000041
:200FC000EF0F0000EF0F0000D50F0000EF0F0000D50F0000036803242407A343012464071C
:200FE0001B1903E0036803242407A34303600B69C360CB68C46A0A4D25400A4C1C402B192A
:20100000C3620368084C1C400460097A114302683F239A43194051180160B0BD0418000000
:201020008888FDFF777702007F00FFFFF0B583B00A462C4E2C4B0921CC012D4F3D6871682D
:20104000890612D43968491B092939D8716889060BD43968491B092932D87168890604D40B
:201060003968491B0929EAD92AE0029201901F4D284600F0CBFAA01C1B4908602846029D23
:2010800001992A4600F0B8F9174BA84218D1301F0168184A0A40D032026028043168164A83
:2010A0000A408018C01D30603868194618390968214205D1890712D43968091A0A29F4D3B3
:2010C00000253560094F38461E4600F09FFA384600F0F4FAE01C3060284603B0F0BD0125B7
:2010E000FAE7C04614120F4048100F4000000F40BC00202000F8FFFFF8FF00F0F0B5234CB1
:20110000234B11210905103B1B68103C24680C405D01AD0F13D01F4D2D682E0E0227374055
:201120006D01ED0F7D191C4E3778BF00EF19FFB21A48C0571A4F3A6810183860357003250D
:20114000002C13D017480068C20C02241440C001C00F2018144A1478A4000419E4B20F4E0B
:201160003457124E37683C19346010706C06180602D50F4801220270054A10688034044367
:201180001460024A106808431060F0BD48300A4048100A4080130A40D000202094180000B2
:2011A000A400202080330A40D1002020A8002020D2002020F0B58B4200D1824204D90B0054
:2011C00002000021002040E0002B00D1002A0CD10B00020000210020002B00D1002A01D064
:2011E000C943C04300F011FA2FE01C0015000B0002000CB4002126002F00FF19764102D2BF
:20120000491C4029F9D100201E001700FF19764102D2401C4028F9D10E1A2100280032000D
:2012200000F0B8FA0C0005000CBC00200021A34200D1AA4201D3521BA341404149416D08AB
:20124000E7073D436408761EF1D5059F002F01D03A607B60F0BD002A49D084468B071CD108
:20126000830722D1102A08D370B4103A78C978C0103AFBD270BC103238D0042A2CD3082A09
:2012800005D30C2A01D308C908C008C908C008C908C092072AD0920F22E00B780370491C10
:2012A000401C521E22D08B07F7D1C30714D18307D8D0121F12D308C903801B0C4380001DC4
:2012C000121FF8D20AE008C903701B0A43701B0A83701B0AC370001D121FF4D2121D05D085
:2012E0000B780370491C401C521EF9D16046704770B582B01B491C4C204600F069FA1B4960
:201300002046FFF793FD1A4801681A4A0A40026000250095204629462A462B4600F066FA46
:20132000204629462A4600F045FA204629462A4600F088FA01260096204629462A462B460F
:2013400000F054FA20462946324600F033FA20462946324600F076FA07488660032101607E
:2013600002B070BDAC18000000808640A4180000049886407F00FFFF00918640F8B5451C84
:2013800000780023082B32D02F78C2070CD16A780F241440E41C122C0BD102242E57F4B25C
:2013A000002E08D4EE1C0EE06D1C4A1C0F7011461AE0AE1C08E02E1DED7800957F252C4065
:2013C000009DED012C1912343D0112095219094DAA420ED0D243002C05D08D5C4F1C0D702C
:2013E000641E3946F7E7354640085B1CCAE72846C5E7F8BDFF0F0000F0B581B0002A22D054
:2014000091235B01C3180F200402901E0090561E0020DF6927421BD00F5C1F60864210D0AC
:20142000DF69274211D00F187D781D60009D854207D0DD6925420AD0BD781D60C01C82426D
:20144000E7D1104604E0002002E0401C00E0801C80B201B0F0BDFEE71CB5002922D04C080B
:20146000002900D5494242105440002800D5404200230A00904201D95200FBE790425B4103
:20148000904200D3801A914201D25208F6E71900002C00D54042640000D5494202000800C6
:2014A00011001CBD0100002000F001F81CBD704780B51149114800F059F911480168032297
:2014C00052020A430260026801210B02134303600022426107224262836B93438363836B8D
:2014E000120293438363826A042313438362826A0A43826280BDC046B218000000000F4055
:2015000000120F40B0B50A480A4941600A4A51600A4B59600A4C61600A4D69600A490160C1
:201520001160196021602960102000F093F9B0BD00080A40030000B100280A4000888640D8
:201540000048084000080F40010000260D48002101600D48011F0A680323DB4313400B60BD
:2015600041680122914341604168120291434160016830229143016001680F229143016039
:201580007047C04608030B4004010B401CB50A0017D000230124E407A04200D20400944265
:2015A00001D95200FBE790425B41904200D3801A914201D25208F6E719000200080011005F
:2015C0001CBD01000020FFF772FF1CBDF0B585B00A9CCD17DE1769406840401BA94173402F
:2015E0007240921BB3416E4002AF0097FFF7E2FD71407040801BB141029A039B6B406A4050
:20160000521BAB410CC405B0F0BD704770B50D4D41190F2212020123DC02465980231E43C5
:20162000465148681040A04207D048681040A04203D048681040A042F3D10868984308604C
:2016400070BDC0463812000070B50A480A4C84420CD00A4D0A4EB54208D02A686968501C51
:2016600012789200A25890470835F4E700BF00BF70BDC046C4180000B8180000D41800001C
:20168000E418000010B50849084C204600F0A0F807492046FFF74CFC0648016801221143D4
:2016A00001600548026010BDAF1800000040084080180000285008400851084010B50A4BEB
:2016C000C118C4580122D2031443C4504868000705D04868000702D048680007F6D10868AF
:2016E0009043086010BDC0463812000008480068C0B201280AD107480168491D0160064897
:201700000178012902D80178491C01707047C04620500840BC002020CF00202080B5FFF752
:20172000F1FEFFF7FFFAFFF711FFFFF7E1FDFFF7A9FFFFF7BDFE02489C210022425480BDA6
:2017400000002020084880F3088800BF00BF00F092F8002801D0FFF777FF0020FEF7B0FCD8
:20176000012000F081F8C0460080202070B50122120383180C785D680C26B54334402C19F5
:201780005C60497883580724A34321405918815070BD000018B520239B1A04D8010000204E
:2017A0005B42994004E004009140DC402143904018BD000010B592008018044A8358072492
:2017C000A404A34321405918815010BD3018000010B50122120383180C789C604B78835015
:2017E0008978014A815010BD0C11000010B5029CA400001911431943014A815010BDC04623
:201800005018000003228058002805D0401E4A1C00230B701146F7E77047000040B584B0EF
:2018200002AE0096FFF7D2FE029A039B04B040BD80B50B4603214258C11D184600F010F839
:2018400080BD000092008018014A81507047C04610180000811E091F00BFFCD27047000015
:2018600080B5FFF7F8FC80BD00F001F8FEE700BF704767E7704701207047000000000000EB
:20188000020000003F9C00000000000000000000000000000001FF00FF000001010000FF6B
:1818A00000FF0100401F00002000000008000008000308000000000096
:2018B8007D130000311800000518000002000000D9000000000100FFF0000000C418000073
:1018D80000002020CC180000D900202000000000C3
:00000001FF
