:2000000000802020CD6600000739000007390000000000000000000000000000000000006D
:20002000000000000000000000000000073900000000000000000000073900000739000000
:2000400007390000A1530000073900000739000007390000073900000739000007390000EC
:20006000000000000739000007390000000000000000000007390000073900000739000040
:2000800031640000073900000739000007390000073900000739000000000000000000008B
:2000A000073900000739000000000000000000000739000000000000073900000739000000
:2000C00000B5A7B00126B0050690032001040C91310401910F9040030B90B003029035031C
:2000E0001920C0010A907702340206F0CFF92A4806990160099404600795056004460A989F
:2001000006F0ACFA04F0F4FD244D2846103813900760089727600B9820600C98206000249C
:200120001F4F38462146224606F07AFA384621942146324606F074FA1A480068010E022227
:2001400011404001C00F08181749087017480068C10C1140C001C00F08181549087015487E
:200160000260026001990160134802600592026001601248016831430160114801680E96AB
:2001800031430160029828600E4A10681168091A772928D818E0C046A0120A40A0320A4046
:2001A0000080864080130A403A07202080330A403B07202080E200E000E100E004988640B7
:2001C000045808400807202030BF1168091A772909D830BF1168091A772904D830BF1168B1
:2001E000091A7829F0D30E98C2070307C503029813990860FC480560FC490B600C46103C92
:20020000226023600B600A6023600B60226023600B600A6023600B60226023600B6022605C
:2002200023600B60226023600B600A60236005600B60226023600B60226023600B600A6059
:2002400023600B60226023600B600A6023600B60226023600B600A6023600B60226023601B
:2002600005600B600A6023600B60226023600B600A6023600B60226023600B600A60236031
:200280000B600A6023600B600A6023600B600A60236005600B60226023600B600A60236029
:2002A0000B60226023600B600A6023600B60226023600B600A6023600B600A6023600B60EB
:2002C0000A60236005600B600A6023600B600A6023600B60226023600B60226023600B60D1
:2002E000226023600B60226023600B60226023600B602260236005600B60226023600B6069
:20030000226023600B600A6023600B60226023600B600A6023600B600A6023600B60226073
:2003200023600B602260236005600B600A6023600B600A6023600B600A6023600B600A6088
:2003400023600B600A6023600B600A6023600B600A6023600B600A60236005600B600A6080
:2003600023600B60226023600B600A6023600B600A6023600B600A6023600B600A6023602A
:200380000B600A6023600B600A60236005600B60226023600B600A6023600B600A60236028
:2003A0000B600A6023600B60226023600B60226023600B600A6023600B60226023600560D8
:2003C0000B600A6023600B600A6023600B600A6023600B60226023600B600A6023600B60E2
:2003E000226023600B600A6023600B600A60236005600B600A6023600B600A6023600B60C8
:20040000226023600B600A6023600B600A6023600B600A6023600B600A6023600B600A60A2
:20042000236005600B600A6023600B600A6023600B600A6023600B600A6023600B600A609F
:2004400023600B600A6023600B60226023600B600A60236005600B60226023600B600A604F
:2004600023600B60226023600B600A6023600B600A6023600B600A6023600B600A60236029
:200480000B600A60236005600B60226023600B60226023600B600A6023600B600A6023600F
:2004A0000B600A6023600B600A6023600B600A6023600B600A60236005600B602260236007
:2004C0000B60226023600B600A6023600B60226023600B60226023600B600A6023600B60B1
:2004E000226023600B600A60236005600B600A6023600B600A6023600B600A6023600B60C7
:20050000226023600B600A6023600B600A6023600B60226023600B600A60236005600B608E
:20052000226023600B600A6023600B600A6023600B600A6023600B600A6023600B600A6081
:2005400023600B600A6023600B602260236005600B60226023600B60226023600B6022601E
:2005600023600B600A6023600B60226023600B60226023600B60226023600B6022602360E0
:2005800005600B60226023600B60226023600B600A6023600B60226023600B6022602360DE
:2005A0000B600A6023600B600A6023600B602260236005600B60226023600B6022602360D6
:2005C0000B60226023600B60226023600B600A6023600B600A6023600B600A6023600B60C8
:2005E0002260236004E0C046A0320A40A0120A4005600B60226023600B60226023600B6044
:200600000A6023600B60226023600B60226023600B600A6023600B60226023600B60226058
:20062000236005600B600A6023600B600A6023600B60226023600B60226023600B600A606D
:2006400023600B600A6023600B600A6023600B600A60236005600B60226023600B600A6065
:2006600023600B60226023600B600A6023600B600A6023600B60226023600B600A6023600F
:200680000B600A60236005600B60226023600B600A6023600B60226023600B600A6023600D
:2006A0000B600A6023600B60226023600B60226023600B600A602360129505600B602260B1
:2006C00023600B600A6023600B60226023600B600A6023600B60226023600B602260236097
:2006E0000B60226023600B6017922260189311942360219E189F119DF1B2219C2046229184
:2007000003F08AFF2046F449139A179B129C14600F600B602F600F600B602F600F600B608D
:200720002F600F600B602F600F600B602F600F600B602F600F600B602F600F600B602F601D
:2007400014600F600B602F600F600B602F600F600B602F600F600B602F600F600B602F6018
:200760000F600B602F600F600B602F600F600B602F6014600F600B602F600F600B602F60F8
:200780000F600B602F600F600B602F600F600B602F600F600B602F600F600B602F600F60DD
:2007A0000B602F6014600F600B602F600F600B602F600F600B602F600F600B602F600F60B8
:2007C0000B602F600F600B602F600F600B602F600F600B602F60001D40B2002897D5761CAF
:2007E0002298072888D30E9E7004009070030390BA4800270770BA480770BA480760BA4D76
:200800002F60BA4C2068BA49086004F051FB234641424141B74801702F60B1480770B1483A
:200820000760B54807602068B1490860AB48077072B6B2490D970F7062B625A8401C04907E
:2008400002E00E9EA94BAD4972B60878002815D00878401E087062B6A948006801211F91D2
:200860008D040540AF0CA7490878B84209D1A6490878072840D8401C08703DE062B630BFF5
:20088000E2E70F700D98A0490870002D3FD09F48007800283BD018689D490968401A9D4925
:2008A000891C884202D29C48067023E00D999748017099480170994A1078401E072815D86B
:2008C00011709748018005F09FFA83480B9901600C99016093480D9C2146224605F0A0FEED
:2008E00001229048214605F09BFE02E0002002F0C9FC7E4B844800788B490978CA1B514275
:2009000051410828304600D10846002851D086480078002803D13146C90704D017E0834917
:200920000978C90713D1186881490968401A7949884262D97D4806700D98744908707649D2
:200940000870012002F09EFC684B774800786F490978002900D13046002D314600D1014623
:20096000C8074AD118686A490968401A6949884243D900256548057067480570674908785C
:20098000401E072835D80D706548058005F03CFA51480B9901600C990160624C20462946BC
:2009A0002A4605F03DFE01222046294605F038FE22E05D480770002D0CD018685C490860C0
:2009C00000205A4908705449097801299FD14F4908709CE755480078002898D14E490878D4
:2009E00001284AD100200870022002F04BFC3F4B8DE7002002F046FC3C4B1F683D48007863
:200A000001284DD135480078002805D1384800681968081A0F2843D300203049087025A8E6
:200A200024A923AA02F006FD304B002838D1239D0021284605F095FA002801D1BF2000E0EF
:200A40003F20040628463B4905F038F8214604F0A0FA05F085FC26490F60214A11780029B0
:200A600008D020490968421A33498A421F4B0ADB11460AE016701D4B10E024480670186850
:200A80002349086043E72D4951182D4CA24201DD2C495118144C2268891821601149086092
:200AA0001E4C2078411E07290B4D51D8264909681A68511A254A91424AD30A2020702C46CC
:200AC00000251748058005F09FF90B9820600C98206000F0D4FCC046A0120A403E072020F2
:200AE00039072020EC0620200007202008072020040720203F072020100720203807202007
:200B000080130A4047072020490720204507202020072020E70300004807202081072020A6
:200B20002C0720200080864044072020460720202407202000007A44E040FDFF407E0500DC
:200B400020BF0200C081FAFF140720203C730000082800D989E21F9981408A22114272D141
:200B600045229200114200D123E1069C2C6009982860079F2F600A9D284605F06FFDE44E20
:200B80003068229011980460099EE24806600760284605F063FDDE4800682190DD490C60CC
:200BA000119806600F60284605F058FDF548006820901198046011980660F348076028467E
:200BC00005F04CFDEF4800681E90EF480460066011980760284605F041FDEA4800681D9091
:200BE00011980460E848066011980760284605F035FDE44800681C90E348046011980660CF
:200C000011980760284605F029FDDE4800681B90119804601198066011980760119C2846BB
:200C200005F01CFDD748026872B6D8480168D848006862B6D74B1B78012B00D03FE102F009
:200C400063FE00F027FC069F2F602846099D0560079C04600A9805F001FDCA4E3068000126
:200C6000C00F229011980760C748056004600A9E304605F0F3FCC3480068800E0599084022
:200C8000229940182290C0490F60119805600C60304605F0E3FCBB480068400E04212191C3
:200CA00008402299401822901198076011980560B5480460304605F0D1FCB2480068000E00
:200CC000082120910840229940182290AE480760056011980460304605F0C0FCA9480068DE
:200CE000C00D1021014022980818229011980760A548056011980460304605F0AFFCA148BB
:200D00000068800D202101402298081822909E4807601198056011980460304605F09EFC63
:200D200098480068400D4021014022980818229011980760119F3D603C60304605F08EFC02
:200D400090480068000D802101402298014372B68E4800688E4A126862B6C3175840C01A4A
:200D6000D3175A40D21A1018002900D1D4E08A49097801290E9A894B894C00D0D1E0810953
:200D8000AE2900D8CDE0089838601868854908608548027085480178022900D0C8E0089841
:200DA00013990860824802701868824908600599BEE04906890F00D157E17F490A6806289C
:200DC00006D17E480078C0077D4800D07D4882187D4800687D490968441A1646171B7C482F
:200DE0008742384600DB7A487A498A192018C0438518284605F084F9681A391A764A914289
:200E000000DC754904190D193746A81B119E00D0401E704905F074F9BD4200D0401C5A4BED
:200E20006C494843391B4018C11702464A40511A6A4A914200D31EE10B9818600C98186021
:200E40000025674C204629462A4605F0E9FB01222046294605F0E4FB6248007813284F4BD9
:200E600005D8411C5F4A1170132800D013E356480068C01B5549086018685B4908605B48F7
:200E80000570474E3078052800D092E13E480B9901600C990160524C204629462A4605F0C7
:200EA000BFFB01222046294605F0BAFB3B4B4D48057018684E49086006203070EBE2CB1752
:200EC0005940C91AC3175840C01A461849480078012800D0D8E0029820602B4803990160A8
:200EE000019921600099016000223D4C2046424D294605F095FB01222046294605F090FBD1
:200F00003E488642254B00D8C5E204F063FCC1E280130A40A0120A400E991F4A11701F4BCA
:200F20001F4C2249097802297AD0354A904277D92078012800D1D4E00728324D00D001E19E
:200F400072B60020114908601149086062B61968274A11601C4909682B4A11600D490870C0
:200F600024490870294908702870FF21284A117028491F9A0A7028490870284908802098B9
:200F8000207088E280130A40A0120A40F0062020F4062020310720204107202008072020BF
:200FA00081072020E80620203707202093072020400720200C0720201C072020420720201D
:200FC000C063FFFFB8880000000720201007202020BF0200407E0500E040FDFFDD05000070
:200FE0000080864043072020040720203E0720201407202030072020FC080000EF55000037
:20100000AF3B000034072020E4062020350720203307202032072020360720202C072020E2
:201020001968DC480068091A142900D233E21430D8490860D8480088801C81B2242908467D
:2010400000D32420D44A1080142900D3142118680A4601F047FD05F0FBFAD04B002800D183
:2010600019E20A20CE490870FFE10B9828600C982860002503E20D9ACA4C2270CA4A914245
:2010800000D281E0C94F81E01A9622980001C00F2199890E059E314009182098430E0420B7
:2010A000229003405B181E98000E08210840C0181D9BDD0D10231D4028181C9CA40D20259B
:2010C0002C4020181B9C640D40273C402018120D802414400443FF2C00D083E026460D985C
:2010E000D8E00029B24D00D1C9E072B60020B1490860B149086062B61968B04A1160B0498D
:201100000860B0490870B0490860B04908601968AF4A1160AF490870AF490860AF49087009
:20112000AF490870AF4908702870FF21AE4A1170AE491F9A0A70AE490870AE490880022064
:201140002070A8E172B600209A4908609A49086062B61968994A1160994909689E4A1160FF
:201160009E4908709E4908709E4908702870FF219D4A11709D491F9A0A709D4908709D49D5
:2011800008802198207086E1E122D700039ABF3A914201D2984F633701283DDB0298306015
:2011A000039818600C9818600025944C2046394668E172B67F4805607F48056062B6764877
:2011C0000580186873490860186803F01DFD734B18687A4908608A4805708648058007202F
:2011E000307058E122461F98024021925242FF205E30824320463040209000D0FA3A2298B8
:201200002040229018D0963A214017D1234018D03232254017D117E00B9818600198306084
:20122000009818600021754C20460A4605F0F8F90122204639462BE12140E7D0323A234025
:20124000E6D1254000D096322646274000D0FA3220984008219C0019229CA4080019C908E1
:2012600040181909401869094018B909401871B2002907D4002809D15E4800880CE009204C
:201280002070F2E0AF2149005218401CC1B210B204F07AFE5749088004B2079860386043B4
:2012A000AF21490004F070FE5649884200DC55487D218A01904200DB1046534A90420246EE
:2012C00000DC514AC92C0B9B03DC029B119C2360039B364C15194D4A13600C9A03D0019AE4
:2012E000119B1A60009A8B019D4200D31D462F49091AC8178143994200DB1946434802604D
:2013000000273E4C20463A4605F08AF9012220462946229205F084F93248002E07D00E9D76
:2013200005702348077039461C4B1A9E16E000780128139A194B0E9D1A9E0CD1344886428C
:2013400009D31B4C2078042866D2411C2170C01E4142414102E00021154801702D4886426F
:2013600000D901270029284600D13846012800D091E013480068184A1268801A002901D0E9
:20138000139A4EE0064A1178082900D0DDE30A2010706AE0180720202E07202008072020C1
:2013A000810720204307202031750000FC08000034072020F0062020F406202014072020EB
:2013C0000007202039072020EC06202010072020040720203E072020E4062020310720204B
:2013E00030072020350720203307202032072020360720202C072020DD05000000808640EF
:2014000041072020C0E0FFFF04F7FFFFA0120A40823E0000EF550000DA480068DA4909688F
:20142000401A0899119C21601968D84C2160D8490D70D8490978022906D108991160D649EA
:201440000D701968D54A1160D54E3178082900D07BE3D4480178072905D8481CD14A107032
:20146000072900D0A6E3092030700025CE48058004F0CAFCCD480B9901600C990160CC4C68
:20148000204629462A4605F0CBF801222046294605F0C6F8C74BBE4800780128C34A0AD103
:2014A000BA4800681968081AC82804D3089810600020B7490870B848007801280BD1B74834
:2014C00000681968081AC82805D3BB48089901600020B1490870AB480068B8490968B84AD3
:2014E00012681B689A1A642A01D2FFF7AAF9441AB0480068B2490860E017214641400D1A1A
:2015000028463230642104F0FBFDAE49884200D3AC48AD498D42AD4E00D806460027002CCB
:2015200000D4064605D5002E03D025A82D21017001270A253046294604F0E2FD0446A348E0
:2015400086420BD922943046A14904F0D9FD302101437C1C25A8C019017005E09D48864229
:2015600000D8EDE222943C467D20C100304604F0C7FDCD2109044143C90E6943401A302153
:201580000143671C25A800190170229C6421304604F0B6FD904B19464143C90C6943401A34
:2015A00030210143781C25AAD155074618466043C00C6843201A3021084325AAD319D05592
:2015C0002E2058706543701B084398700020D8701578002D00D178E104992A467F4B06E066
:2015E0009A5C14180A78A01D491C002A05D02D3AD2B20C2AF4D91222F3E70F9801027848C0
:2016000004F0E7FFE0B28021081A80B2400825AB06E01046109B1D780C30002D00D159E161
:2016200029462D39C9B20C290F9A15926D4A149217D86D4ACA40D2070F9A1592694A149246
:201640000FD01C46EBB203222E2B1F9B159300D015928900654B59584A43654989181491EA
:2016600023465B1C109300231A9305E0901D169B5B1C15998B42CCD0024614981693C05C8D
:2016800022901A98199204E01C98801C0628199AECD01C9010181B90C0B21D9010201A9BE7
:2016A00003E05B1C801D072B64D02299D940C907F7D0014610391E91411FCCB2E408072230
:2016C000219211401F9F3E468E40E101444A51181D9D491980390C7834430C70011FCCB233
:2016E000E6080622209211403A468A40F1013C4C6118491980390E7816430E70C11ECAB2C1
:20170000D208219C21403E468E40D101344A511849192C4680390A7832430A70811ECAB2AD
:20172000D208209D29403E468E40D1012C4A5118091980390A7832430A70411ECAB2D208A5
:20174000219D29403D468D40D101254E7118091980390A782A430A701E9A20990A4097406E
:20176000F82202401201B2181219803A14783C43147096E71B98401CC0B21D9000271020BA
:201780003DE0C04600072020E4062020E80620203707202093072020400720200C07202055
:2017A00081072020420720202C072020A0120A400080864008072020A0320A401007202061
:2017C000280720209F8601000D420F000F27000010270000E7030000CDCC00002074000092
:2017E0000000202050740000FB1F000018730000747300007F1C801D072F00D144E7229B32
:20180000FB40DB07F6D0014610391E91441FE5B2EE08072121910C401F9B1946A140F401A1
:20182000F64A14191D9D6419803C26780E432670011FCCB2E6080622209211401A468A40E2
:20184000F101EE4C6118491980390E7816430E70C11ECAB2D208219C21401E468E40D10114
:20186000F94A511849192C4680390A7832430A70811ECAB2D208209D29401E468E40D1019F
:20188000F14A5118091980390A7832430A70411ECAB2D208219D29401D468D40D101EA4E42
:2018A0007118091980390A782A430A701E9A20990A4019469140F82202401201B21812190C
:2018C000803A13780B43137094E703200102DE4804F07FFE0021DC482290DC4E1A910AE004
:2018E0001C98000236182299091822911E99062901D1FEF7A6FF1E91C801D349091821919C
:20190000D2490818209080271A9C2046BD4D02E0401C802811D02299095C325CFBB2802B42
:20192000034604D03B46914203D1F1D003E09142FBD01F46ECD00446EAE778B201211E9AE0
:201940001C910A431D9200280BD4F8B21B901D9902F062FE219B1898E1B21F911B9A8A424A
:201960002ED91D98C001B84909182191B74908182090802000210C46054602E0491C8029F8
:201980006BD0229A5218125C73181B5CEFB2802F0F4604D02F469A4203D1EFD003E09A425A
:2019A000FBD03D46EAD00C46E8E71C601060219B5A5C209C62547F1CF9B21F9A9142D0D8B4
:2019C000F9B25B56139A129C146028602A46103A002B2C4600DA144617982060189810607A
:2019E00028605C062C4600D51446179820601898106028609C062C4600D514461798206013
:201A0000189810602860DC062C4600D51446179820601898106028601C072C4600D5144600
:201A2000179820601898106028605C072C4600D51446179820601898106028609C072C46DF
:201A400000D51446179820600446189810602860DB072B46A9D01346A7E768B21E99891C0D
:201A60001E910028189F00D53AE7E8B21D901E9902F0D2FD2198E1B21F911D9A8A420DD9BE
:201A80002EE71460189F07602198425C209B5A546D1CE9B21F9A914200D921E7E9B242561B
:201AA000139B129C1C60574B1F60002A119800DA0346179C1C60189B0360524C2360530678
:201AC000234600D50346179C1C60189B03604D4C23609306234600D50346179C1C60189B1C
:201AE0000360484C2360D306234600D50346179C1C60189B0360434C23601307234600D55D
:201B00000346179C1C60189B03603E4C23605307234600D50346179C1C60189B0360394C7F
:201B200023609307234600D50346179C1C60189F0760344B1F60D2071A46A2D00246A0E73C
:201B4000642E404B00D321E530E572B635490A683549096862B6364CA04204DC354CA042B4
:201B600004DCFF2022903448229C0470D0174240101ACA175140891A814201D901200AE0B6
:201B8000884201D9002006E000202249095E002903D00029F2DC29490870244805700020CB
:201BA0002749087019681C4A11601A49088001F0ABFE6FE41649097800291DD01349484330
:201BC000164908600F480B9901600C99016000250B4C204629462A4604F022FD012220467F
:201BE000294604F01DFD0E480570074B18680A490860052030704EE40A2035E40000202096
:201C000000808640A0120A400807202020BF02003F0720202C072020140720201C0720209B
:201C200043072020F0062020F4062020310720208713000078ECFFFF330720203207202043
:201C400036072020CDCC00000000202000032020F0B59BB012910546F34C2420205C11906D
:201C6000002802D0002003F0CDFA207A00220328134602D84000ED490B5A607A032808D8B6
:201C80008000E17C002901D0E94900E0E949081802680E930C92E17A481E052800D3062178
:201CA0000A91E0890F90A07A1090267C00270D95284612993A4600F015FC002808D00D981D
:201CC00012993A4600F00EFC00283D4600D05FE317A814A90122139200F004FC002808D0EE
:201CE00017A814A9012200F0FDFB00283D4600D04EE30897606800780D2104221AAB02F0C7
:201D000091F90028099600D0FDE01A98C0081C2318401AACE678B106890F0A186578EF084B
:201D20001F403507AD0F019700957D190495A478E4081C400694032305931E400024002A88
:201D40000794029645D0571E13D00843801EC2B2AB2103925143490A059A5143401A401C55
:201D6000C1B200220B92032900D00B9003D1B24C1CE0B14C2DE00025AF4C2046AF4903F051
:201D80009DFE0446284613990843C0B20B99CEB2B0420AD02046A94903F090FE0446BF1E97
:201DA000AD1CE8B2B042E8D100E07F1E03980228029E0ED3A14D2046294603F07FFE2946B0
:201DC00003F07CFE294603F079FE0446FF1E3806F1D106988019039004980028079F48D00A
:201DE000461E16D0019800990843801EC2B2AB2101925143490A059A5143401A401CC1B268
:201E000000220B92032900D00B90049403D18A4F1CE0894F2DE00025874F3846874903F00A
:201E20004DFE0746284613990843C0B20B99CCB2A0420AD03846814903F040FE0746B61EBB
:201E4000AD1CE8B2A042E8D100E0761E01980228049C0ED3794D3846294603F02FFE29468A
:201E600003F02CFE294603F029FE0746F61E3006F1D10398002846D0461E16D00298069907
:201E80000143881EC2B2AB2107925143490A059A4A43801A401CC1B200220B92032900D048
:201EA0000B90049403D1644818E063482AE000256148624903F002FE2A4613990A43D1B26A
:201EC0000B9AD4B2A14208D05C4903F0F7FDB61EAD1CE9B2A142ECD100E0761E0799022979
:201EE00002D20790049C0EE0544D049C294603F0E5FD294603F0E2FD294603F0DFFDF61ED1
:201F00003106F3D10790129800681499401AC1174840401A04F0E2FA6F21C9050B9103F09F
:201F2000CDFD05460021204604F000F800280FD12846214603F008FE414903F02AF81399F8
:201F4000C90788433F4904F015F80446401E0BE03D49284603F0F3FF06463C49284604F0BE
:201F600009F804463443601E8441129840681599401AC1174840401A04F0B0FA0B9903F013
:201F80009DFD05460021384603F0D0FF002810D12846394603F0D8FD294902F0FAFF139934
:201FA000C9078843274903F0E5FF002812D1264611E0A61C2549284603F0DCFF00283746C6
:201FC00000D127462049284603F0B9FF002802D13E4600E0A61C129880681699401AC117AD
:201FE0004840401A04F07AFA0B9903F067FD04460025079F3846294603F098FF002827D1F0
:202000002046394603F0A0FD0D4902F0C2FF1399C90788430B4903F0ADFF002800D0361DBD
:20202000014C129625E0C0464C072020E4730000E8720000D87200007B14AE3E1D5A843F5D
:20204000000080BF295C0F3E9A99993E3333733F371DEF49204603F08DFF0028129700D13A
:202060003746EC49204603F06AFF002800D11297E94C099E606800780D2103271AAB3A4691
:2020800001F0D0FF002800D07DE107971A9C1F2004401AA90C704A7802404A708A78024012
:2020A0008A700D9D28681799401AC1174840401A04F014FA0B9903F001FD002C129F14D0D0
:2020C0000690671E1FD0A21ED0B2AB214143480A079948430592101A401CC1B20024032907
:2020E00000D0044611D1F04929E0F149044603F026FF0646EF49204603F03CFF044634432D
:20210000601E844141E0E8492CE00025E6490846E64903F0D3FC01462846139A1043C0B264
:20212000E6B2B0420AD00846E04903F0C7FC0146BF1EAD1CE8B2B042E9D100E07F1E0598C1
:2021400002280D9D0ED3D94E0846314603F0B6FC314603F0B3FC314603F0B0FC0146FF1EA6
:202160003806F1D11AA800220270069803F0ECFCCB4902F00EFF1399C9078843C94903F031
:20218000F9FE0446401E8441129F68681899401AC1174840401A04F0A1F90B9903F08EFCE6
:2021A0001AA94A781106069015D0561E310626D00594901EC2B2AB2104925143490A079AC2
:2021C0005143401A401CC1B20024032900D0044617D1B5492FE02646A41CB64903F0CAFEFD
:2021E0000028254600D13446B149069803F0A7FE0028099E00D125462C460D9D43E0AA4994
:202200002DE00025A8490846A84903F057FC01462846139A1043C0B2E7B2B8420AD0084634
:20222000A24903F04BFC0146B61EAD1CE8B2B842E9D100E0761E049802280D9D059C0ED3E1
:202240009A4F0846394603F039FC394603F036FC394603F033FC0146F61E3006F1D11AA846
:2022600000224270069803F06FFC8D4902F091FE1399C90788438B4903F07CFE002800D0B7
:20228000A41C099E129FA8681999401AC1174840401A04F023F90B9903F010FC1AA98A78D8
:2022A000110612970D9015D0561E3106069423D0901EC2B2AB210B925143490A079A4A4304
:2022C000801A401CC1B20027032900D0074615D175492DE02546241D764903F04BFE0028A5
:2022E000204600D12846054671490D9803F027FE002845D12C4643E06B492BE000256A490D
:2023000008466A4903F0DAFB01462846139A1043C0B2FCB2A0420AD00846644903F0CEFBAC
:202320000146B61EAD1CE8B2A042E9D100E0761E0B9802280ED35D4C0846214603F0BEFB57
:20234000214603F0BBFB214603F0B8FB0146F61E3006F1D11AA8002282700D9803F0F4FBB0
:202360004F4902F016FE1399C90788434D4903F001FE002801D1069C01E00698041D099E0D
:2023800065426541454C1298002800D1AD1C089F4948E081FF202074F843A06001202073B8
:2023A00046480E9A824207DCFA2A0FD07D20800082421DD1082709E07D20C1008A4204D058
:2023C0000001824214D1182700E010271AAB1F702168606800788979012203F04FFE002853
:2023E00003D11AA80078C0082072A07A002842D00C9A501E11464140814227D9002A0DD06B
:20240000504210402E494143C80E2EA1085C06E03333733F9A99993E4C0720202020401E9D
:20242000032813D8C1001AAA1170617A81420DD0216860680078C97901221AAB03F01EFE03
:20244000002803D11AA80078C0086072A07A002811D01AA80A990170E07A88420BD021682B
:2024600060680078897801221AAB03F007FE002801D11A98E0720F9880B202F0F1FD1098DC
:2024800002F0A6FC304603F0ADF81198002802D0012002F0B7FE28461BB0F0BD4C072020B6
:2024A000000080BF295C0F3E0000C84154E3853F000020410000D242FFFF0000E7030000AA
:2024C00031B57C0700011C021D0E18031E16140F191104081F1B0D17151310071A0C1206C6
:2024E0000B050A09F0B589B004920E4604460025E843059006AB012018705D70BF4F3968EC
:2025000078680078897C022203F0B8FD002800D0CAE003943446C82003F0A2FF06AB1D7025
:20252000396878680078C97B012203F0A7FD002800D0B9E03968786800784979012206AB84
:2025400003F09CFD002800D0AEE0396878680078897C012206AB03F091FD002800D0A3E09B
:20256000396878680078C97D012206AB03F086FD002800D098E039687868007809790122C4
:2025800006AB03F07BFD002800D08DE006AB0C2018703968786800780979012203F06EFD59
:2025A000002800D080E00F2003F05AFFB86A407A06AB18703968786800788978012203F023
:2025C0005DFD002870D1B86A007A06AB18703968786800784978012203F050FD002863D1EA
:2025E000B86A807A049F002F01D0E021084306AB187082480168406800788979012203F02C
:202600003DFD002850D1002F06D07C48806AC17A1F20C043084300E0182006AB18707748AC
:20262000016840680078C979012203F027FD00283AD10498002802D0C82003F011FF06AB30
:20264000402018706D480168406800780979012203F014FD002827D106AB7820187067480B
:202660000168406800784979012203F007FD00281AD1322003F0F4FE06AB1D705F4801685D
:202680004068007849790122019203F0F7FC00280AD15A48016840680078897A022206ABB6
:2026A00001F0C0FC002802D0059809B0F0BD06A8008840BA52494143C80C03990D604D6097
:2026C0008D6025606560A560C0B20490002833D04A48016840680078C97A0C2206AB01F05F
:2026E000A1FC0028E0D1069906AB5A88079EC9BA276879182160D1BA626851186160F1BA3F
:20270000A2685118A160D988089A5B89C8BA039F396808183860D1BA7A6851180E467960DE
:20272000D9BABA6851180291B960691C0D46C9B2049A9142CCD303E0039941C909680291DF
:20274000C117020C090489180004832500272A4605953B4603F050FF049A3B4603F04CFFE8
:2027600003990860F017310C0004411830042A463B4603F041FF049A3B4603F03DFF039D6E
:202780006860029EF017310C000441183004059A3B4603F031FF049E32463B4603F02CFF00
:2027A000A8602068C117C20E49018918400132463B4603F021FF20606068C117C20E49016F
:2027C0008918400132463B4603F016FF6060A068C117C20E49018918400132463D463B46FE
:2027E00003F00AFF002802DC0199090400E005490818A060284609B0F0BDC0464C07202075
:20280000ABAA00000000FFFFF0B591B0044601200390000208909720C00004900BAF022000
:2028200002903870CA207870E320B8700920F870682004213A4603F07DFAA320387040236B
:2028400023403D21CA433721CE433F210191CD435C21C9430793002B0B4600D02B460D460C
:2028600000D0354609940E4600D016467B70BD70FE70089C8034099A14403922D243332355
:20288000DD433B23DE430A94002C0B4600D033460E4600D02E46894D099C00D011463B714F
:2028A0007E71B971F8713872787228460F300A213A4603F03FFA0320272120400690059187
:2028C00001D0202000E0C843387028461E3003993A4603F02FFAA00606D40EAAC7201072BF
:2028E00079480F90794805E00EAA5D20107274480F9074480E900921049803F01BFA0A98F6
:20290000002826D06420C04304906F20C0434921C94303914B21CB437421CF437F21CD4311
:202920004D21C9434F26F643089A144200D0BAE000D0BBE000D0BCE000D004980BAA16708F
:2029400055709370D0705D4D28460A30042103F0F1F98B200001E10704D10BAAD821117083
:2029600001214AE00BAAF82111700127394603F0E1F90720FA2101F087F80EAA01981070C5
:202980002920C5002846394603F0D4F90EAA00261670E81D394603F0CDF90EAA1670142069
:2029A000507028469630029F394603F0C3F90EAA16706420507028469230394603F0BAF97D
:2029C0000EAA16708E205070F92090709020D07028461430042103F0ADF90EAA167008206C
:2029E000507028461230394603F0A4F90EAA1670577010352846314D394603F09BF9A00775
:202A0000059800D52620C0430BAA10703048012103F090F9600704D42E480E9004210EAA80
:202A200009E00EAAC0201070C2205070C4209070C620D0700421284603F07CF901F04AFAB9
:202A4000E00605D424480E90A81D04210EAA0AE00EAA2020107028205070302090703820F9
:202A6000D070A81D042103F065F901F033FA082020431A49088001F02DFA0799002900D096
:202A800006210A98002800D0891D1420044201D0102001430698002800D0091D104801708B
:202AA000002011B0F0BD0E4600D143E73D4600D142E7039B00D040E740E7C046980A000058
:202AC000B4980D35B8AAB38DB088C3C5B8AAAAAA3D0700008B8B8B8BA3A3A3A3820720208B
:202AE00092072020F0B587B07A4C237E012B00D0EEE0059014231429029100D31946142AE4
:202B0000104600D3184603920191218200906082EFF3108372B6704C2068704C2468002B9E
:202B200000D162B66E4A1768C31B6E490E68A51B106006940C60DC1763401C1BD460EB1731
:202B40005D40EB1ACB600490B84201D0059890600698B042039F029905983ED1002940D00A
:202B6000002F42D0FF262C36002904D05C4A9568451BB54206D8002F3AD05A4A9568401B83
:202B8000B04235D9534F0498386006987860BC60FB6001267E7655480168B14301600025D7
:202BA000514C204629462A4603F03AFD20462946324603F035FD4E480C210160032041030C
:202BC0004C4A11600004106045480582454805823D617D613D7607B0F0BD424A906000291A
:202BE000BED13F4A9060002FBCD13E4A9060B9E7002000291AD00199091B394A546864184D
:202C00003D4EB44200DC34460525EE01B44200DB3446019A8918C9000919A031CD17A943B1
:202C20000F25AD01A94203DB294601E004460146009D2B4A54601182002F18D0EA1A294823
:202C4000406880182C4B984200DC18460523DB01984200DB18465219D2001218A032D3176F
:202C60009A430F239B019A4202DB1A4600E002461C4F78603A8288B27D218C016043192127
:202C80004E0180198D01294603F03AFA01460022154803F0C5FC388AA84200D3284644433A
:202CA000A019294603F02CFA014601220E4803F0B7FC0B4BD8680B4CE168064A049D1560D1
:202CC000069D55609060D160188A9082208AD08207B0F0BDA0062020F8062020FC06202001
:202CE000BC062020D00620200080864004988640A0320A40A0120A40C0FEFFFFF0B589B062
:202D00000025EC43282800D9E6E000280AD00194734C2327E15D012938D0A17C002918D032
:202D2000322217E06E4D2326A85D002800D1C4E0A87C411E02468A41510003AA117022214A
:202D4000695C002900D1ACE0002800D1A5E07D20A4E03022009004A802702220205C0028A3
:202D600007D0002901D04D2000E04F20C04304A90870216860680078097D012604AB324601
:202D800003F07CF90028009800D1E65502A920220A70012831D102A8002141702646A07A6B
:202DA000002811D005A806210170F07A06280BD03168706800788978012205AB03F05EF94B
:202DC000002801D10598F072019C02AB58788001C01D5870316870680078897C022203F0B5
:202DE0004DF9002878D10820B072357301203075284602F0F7FB2C466EE00528264618D8C9
:202E000002A801214170B07A0028019CDDD006A806210170F07A0628D7D03168706800782B
:202E20008978012206AB03F029F90028CDD1069831E01428019C17D802A802214170B07AC3
:202E40000028C2D007A805210170F07A0528BCD03168706800788978012207AB03F00EF996
:202E60000028B2D1079816E002A803214170B07A0028AAD008A804210170F07A0428A4D077
:202E80003168706800788978012208AB03F0F6F800289AD10898F07297E77F20C04303A930
:202EA0000870296868680078097D012203AB03F0E5F8002801D10020A8550720000202ABAD
:202EC0001880296868680078897C022203F0D6F8002801D100242C75204609B0F0BDC04606
:202EE0004C072020F0B58DB007920890002201260B9149004F0D5900490D0C91694C651E1E
:202F000009977919A142314600D31146F7070A971F460B9847400C984519A542344600D397
:202F200014465F4D0A980740214301290AD10C98002800D184E0A8427BD0099800287FD0EB
:202F4000A84276D00096069700260125079A500DD90208180590D00203903146089C22464C
:202F6000334603F0E3FA049007910195EF0705980743384631462246334603F0D7FA089037
:202F800005910B98C0434949CA4302438A1A02923446744103983146234603F0C7FA054630
:202FA0000B913846049F3146029A234603F0BEFA3F4A17401540079AAA18334673410B9CC1
:202FC00020187141059C00197141089C121958417141099B0C9CE318CC0221D4354C1B19C2
:202FE000C40F490009194000D40F0019FC0F520012197D002A4C641EA342069F19DC019C3E
:203000002405002B21DD641E21401B050B43194639436B420A9C2346934126D2401C2AE044
:20302000244C1B195B1C1E4C3D46641EA342069FE5DD1D4807430026394630460DB0F0BD86
:203040000026314630460DB0F0BD1B4D6940C043002A15DB0843002B009916D0002817D0C1
:20306000009800283146E8D117E06240154303D1019A024080187141064630460DB0F0BD48
:2030800001960843002B0099E8D101990028E7D10091009800283146CFD12743CBE7C046CD
:2030A000FF07000002F8FFFF0000F07FFFFF0F0000F8FFFF01FCFFFFFFFF1F00FEB5074688
:2030C00006460121C8073D468543EC0D992C07D36948854217D33046314601F05AFF8DE0CA
:2030E0005748854213D85C49304601F052FF7F21C90502F03FFF0021C9430028029148D084
:20310000732C46D27BE0002F18DC5D4E77E04D48854215D84F48854227D82846294601F004
:2031200038FF4A4901F035FF04460120810703F0C2FA03F0B1FA0646002029E04F4E5EE010
:20314000414885421ED8424903F0B5FA0446FF208105284602F0B2FC7F21C90501F019FF88
:2031600003F09AFA0646022012E00291374903F0A2FA04467F20C10503F09DFA03F08CFA14
:20318000064606E03148294602F0DEFC06460320029001973046314602F090FC04460146B4
:2031A00002F08CFC07462D4902F088FC2C4901F0F0FE0146384602F081FC2A4901F0E9FE89
:2031C0000146204602F07AFC04462749384602F075FC264901F0DDFE0146384602F06EFCE3
:2031E00017498D420DD8214601F0D3FE0146304602F064FC0146304601F0C6FE064630464F
:20320000FEBD02998F001A49CD59214601F0C1FE01461848C459304602F050FC214601F059
:20322000B3FE314601F0B0FE0146284601F0ACFE064601980028E2D50120C0074640DEE780
:20324000FFFFDF3EFFFF973FFFFF1B40000080BF0000C0BFFFFF2F3FCAF2497125AC7C3DFC
:203260000DF5113EA9AAAA3E4712DABD98CA4CBE98730000A87300000100807FDB0FC93F4E
:20328000DB0FC9BFF0B583B00746514D51490320020440030190086002920A60002428466A
:2032A0002146224603F0BCF9012628462146324603F0B6F948480770484D2878002810D13C
:2032C00047480470474804704748046047480460474800684749086001F0EAFD4142414136
:2032E000297045487102414A14603E4A14703E4A1460424A14603E4D2A683E4B1A60384A8C
:2033000014703F4A1470022F08D101613D4804703D480460286801F077FC00E0016072B671
:203320003A48047062B6022F1CD12C480078C00718D137480A2101703648048002F064FD55
:2033400024480199016002990160214D28462146224603F065F901222846214603F060F9CA
:2033600003B0F0BD022F1AD11A4801990160029901602E46164D28462146224603F050F928
:2033800001222846214603F04BF9294804703068254908601E480521017003B0F0BD72B626
:2033A0001D4804601D48046062B61D48048028681C490860286801F027FC28681A4908601E
:2033C0001A480470134804801148067003B0F0BD00808640A0120A40930720203F07202067
:2033E0003E07202039072020EC06202000072020080720200407202090320A401007202052
:2034000040072020420720201C07202038072020810720202C072020F0062020F40620200F
:203420002E07202018072020140720204107202043072020F0B597B015460B9107460024F7
:2034400003E010A80078002814D010A8019011A8009014A812A90CAA16AB00F0BFF80028FE
:2034600005D111A80088C005EBD50124E9E7012017B0F0BD200600D1AAE00C9802F018FFF8
:203480006121CC05214602F019FB0A900D9802F00FFF214602F012FB0695064608900E98A2
:2034A00002F006FF214602F009FB059707900F9802F0FEFE214602F001FB054603208107A5
:2034C000304602F0FBFA074604900A98014601F060FD0390079C214602F0F0FA0646384634
:2034E00029462F46099502F0E9FA314601F051FD00F040FC384902F0E1FA059908602046D9
:20350000214601F046FD06460398089D294602F0D5FA04463046394602F0D0FA214601F001
:2035200038FD04463046079F394602F0C7FA06460498294602F0C2FA314601F025FD7F218F
:20354000C90501F026FD0146204600F0D9FF224902F0B4FA0B9908600A9D2846099902F054
:20356000ADFA0446089E3046394602F0A7FA214601F00FFD014601F00CFD0B9030463146FF
:2035800002F09CFA04462846294602F097FA214601F0FFFC04463846394602F08FFA01469D
:2035A000204601F0F1FC04460998014602F086FA0146204601F0E8FC01460B9800F0A0FF28
:2035C000054902F07BFA06990860002017B0F0BD022017B0F0BDC046E12E6542F0B58FB065
:2035E000049315460C460590149F159A0026F04306903E805B48007807A902F09BF800286B
:2036000002D006980FB0F0BD019403970124200202905548038814200342059F40D0294602
:2036200000930798000607AE73781B041D18708840BA40190F4608600898000671790904B9
:203640000818F18849BA0918796009990906727A12045118728952BA5218BA600A9A120671
:20366000737B1B049A18F3895BBA9B18FB602B140014091412145B434043494352431818E4
:2036800040188018F121090640186106884263D803990888029A104308801026009B059F3D
:2036A000580602D43246039C18E007A88119805D00024A788018019C208088780002CA78C4
:2036C000801860800879000249794018A08006223243039C2088082101432180029D80356F
:2036E0002B42049E17D007A88118805C00021D464B78C018388088780002CB78C0182B466A
:2037000078800879000249794018B880921D2088702101432180980718D007A88518EC78D8
:203720006878C1070AD011490A68002A06D007202040411CA006400F90476878000705D5CA
:203740000B480168002901D0A0098847304602F06FFF00200FB0F0BD00F0BCFB0020039976
:2037600008804EE79207202082072020880720208C072020FCB40124E407634002E0FCB453
:203780000124E40708B41D03ED08D60D354356025F007F0D06D12C00344300D0AEE001B021
:2037A000FCBC7047A408254307242402FF34A74205D10020190D090501B0FCBC7047002BA4
:2037C00003D50024A61BAC4125000B03DB08C20D134342024800400D07D11C00144300D010
:2037E0008CE00EBC1000F0BC704701246407234307242402FF34A04205D10020090D0905AA
:2038000001B0FCBC7047002903D50024A21A9C412300C11B08D51C002B002500140032003C
:2038200026000024611A3800362925D502B4393949420C00203C03D22F008F40374301E0E9
:203840003700A740002F01D040210E4302BC20290BD500290ED04C42203420B4A5402C00E3
:2038600020BC0D41CE40361904E000292E000D4120390E4192196B411C0014433ED0002494
:20388000002B04D5012400218A1A99410B00401E52005B41FBD50121890215000D400CD04E
:2038A000521800277B4101D3401C0BE00721C90115000D4001D189008A43072109028A4324
:2038C00052005B41801C19DD07210902FF31884209D30EBC0020C90F0902FF31C900C91DB3
:2038E0000905F0BC7047190B00050143E40721431805120B104301B0FCBC704700210020AD
:2039000001B0FCBC7047FEE7F0B581B04E4C4F484F490978002915D0524D53490978091F90
:203920004B424B41514909680022514CA45626469E40504B734359184F4B1B68002C1CDC5D
:203940005F1A1BE0434900220A70434901250D7042490A8001461039AB030B606B0303600D
:203960002B040B60690401603D4E2046314602F057FE204631462A4661E0CF1AF9173B4628
:203980004B405E1AAE421CD203214A0302600904016000252C4C204629462A4602F040FEF3
:2039A00001222046294602F03BFE34490878132803D8421C0A70132843D101F00BFF01B0FE
:2039C000F0BD012359032D4C2270012F00DB13460A46BF3A2A4F2B4CA64201D3204C01E009
:2039E000E124E4003F78964201D3254600E06335154C9F4211D10246103A0126B303136092
:203A000001600321090401600027204629463A4602F006FE2046394610E00321490301609B
:203A200001461039012632040A6071040160002120460A4602F0F4FD20462946324602F060
:203A4000EFFD01B0F0BDC04600808640A0120A403F07202031072020300720202C072020EC
:203A6000FC080000DD05000081072020100720203307202090D6020000072020360720209B
:203A80003207202031750000F0B585B005460022D44319208001814200D992E00720284052
:203AA00000D18EE00292084602F018FD464902F04BF8064603AF384602F06EFC3878411E33
:203AC00002464A408A4200D87BE0002807D0414201403E484843C00E3DA1085C00E0202011
:203AE000401E03286DD80194414F8D21C905C04678440079400087440C0105093F4F232025
:203B0000410606E03C4F8B20C10502E0394F45200106304601F0D2FF04463046394601F03E
:203B2000CDFF02F01DFC0746204602F019FC010A04AA11705070380A961C9070D770E807D0
:203B4000019C05D1A80715D468071FD4029C38E0492087003846B030022104AA02F0EAF84F
:203B600000282ED102213846324602F0E3F8002827D1E7E7492084002046B430022104AA42
:203B800002F0D8F8002814D0019C1AE0492085002846B830022104AA02F0CCF8002810D1EC
:203BA000083502212846324602F0C4F8002808D1CCE7201D0221324602F0BCF80028019C1A
:203BC000C2D0204605B0F0BD0000484331B57C0700011C021D0E18031E16140F19110408A5
:203BE0001F1B0D17151310071A0C12060B050A09000040460000C044000040450000C045B3
:203C0000F0B585B00D460446C8434000400D0CD12046294622462B4602F025FD22462B461D
:203C2000FFF7ADFD04460D4695E04D49002D04DD4C4829150FD02E4623E0284608402043ED
:203C400000D188E0002DF3D502F012FD21210160474D00247FE00021002D03D11539E50A1C
:203C60006405F9E70023421C154202D16D005B1CF9E7C91A491C2022D21A2646D6402E4323
:203C80009C40394A891806408019401C0091C90703D0E10F400040186400E10F400046183B
:203CA000002201200290400503926400002811D08718F31B314600DB19463D18039B1B1864
:203CC000B74200DC2A4600DC03934900E30FCE184008EAE72248471C00250495002F23D046
:203CE0000498C319964215DD01950025002B029900D42946D81904900028029800DA28462F
:203D00000140B61A9C4200D2761E019D5218E41AED1903E002D19C42E6D23246E00F71001E
:203D20000E1864007F08D9E7344309D0681C03D001202840451903E00398401C0390002592
:203D4000039A50106908D20754180099490809050818064945182046294605B0F0BDC046AF
:203D6000FFFFFF7FFFFF0F0001FCFFFF0000E03F0000F87FFEB504460120C2072146914307
:203D8000CE0D7F2E0DD34A48401C81421BD1204602F0D6F94B4A4C4B02F065FC01F090FFF8
:203DA000FEBD080E3E2814D84849204601F0F1F87F21CD05294602F0DDF8002852D0732E7C
:203DC00050D22046FEBD02F053FC212101604048FEBD01927F20C505284601F0D5F83F21F1
:203DE000090601F06BFE0646324901F067FE324901F0CFF802F044FC304901F0CAF802F0BA
:203E00003FFC02902E49304601F058FE294601F0C0F80746304602F093F9FFF7F1FE054618
:203E20000E460298394601F08FFE02F089F902460B462846314602F016FC2A463346FFF7C2
:203E40009EFC02460B46FFF79AFC02460B461D481D49FFF78FFC01F033FF002C01DC0199F8
:203E60004840FEBD2046214601F028FE0646114901F024FE104901F08CF802F001FC0F494D
:203E800001F087F802F0FCFB07460D49304601F015FE294601F07DF80146384601F054FECF
:203EA0000146204601F00AFE214601F072F8FEBDFFFF7F3F6BD30DBCBA132FBD75AA2A3EDC
:203EC000AEE534BF182D4454FB21F93FCAF249710000C07F70B582B00026F443504DA87A03
:203EE00000281ED001AB1E70296868680078C97B012202F0C3F8002813D1296868680078A0
:203F00004979012201AB02F0B9F8002809D12968686800780979012201AB02F0AFF8002880
:203F200002D0204602B070BD2420285C002813D001AB0C20187029686868007809790122B9
:203F400002F09CF80028ECD1322002F089FAA87AC0073BD01F203AE001AB042018702968F9
:203F6000686800780979012202F088F80028D8D1AA7CA97A4020C907014600D06021002AD6
:203F800000D0014601AB19702968686800780979012202F073F80028C3D1322002F060FAA0
:203FA000687C411E884101AB1870296868680078C97B012202F062F80028B2D12968686829
:203FC00000784979103501222B4622E03F20C04301AB18702968686800780979012202F0C6
:203FE0004DF800289DD1687C411E8841400001AB1870296868680078C97B012202F03EF8FE
:2040000000288ED101AB1E702968686800784979012202F033F8002883D1344681E7C046A0
:204020004C072020F0B585B004460027F843682C03D1002A03D0002B01D105B0F0BD01930F
:204040001446029004A80170012100F06DFB002871D03E4E3E4D28687168890612D42968EE
:20406000091A09295BD8716889060BD42968091A092954D87168890604D42968091A0A2938
:20408000EAD34CE0344802F0BBF93448801E31490860301F0168324A0A40D1320260200412
:2040A0003168304A0A408018C01D3060F02002F0D5FA214628680390019A2846254B183B77
:2040C0001B6801E06F1C5455B46A24071BD0B5688F4202D27C1CD55500E03C46B56A2D07DB
:2040E0000ED0B7688C4202D2651C175500E02546B46A240706D0B4688D42E3D32F46E3E7EA
:20410000274600E02F46154CE41E234207D1DB0714D10546036803981B1A0A2BCDD30020FB
:2041200030600D4C204602F04BF8204602F068F908480A490160029805B0F0BD00208F4251
:2041400000D17AE7C04305B0F0BDC04614120F400807202048100F4000000F408304000081
:2041600000F8FFFFF8FF00F0F0B58FB006460025E843002900D185E00F4602924A4A2521C0
:204180000191515C00297DD100930390002E69D005970496701B80B20990102801D3102014
:2041A0000990907A00286FD0290A0EA8079101704570E8B20999081883B2506841890893A0
:2041C0008B4261D800781168097E02220EAB01F055FF354C002857D1A8B23E18216860686D
:2041E0000078497D099BDAB20692334601F046FF002849D1A07A002846D00798C0B20EA9A8
:2042000008704D7060684189089B8B423CD800782168097E02220EAB01F030FF224A00283A
:2042200032D1116850680078497D0AAB069AFFF7F9FE002828D10998401E0AA932780B78CA
:204240009A4205D1491C761C441E00282046F5D19A4224D109984519A8B2049EB042124AE5
:20426000059F97D30299080A0EAB18705970116850680078897E1446022201F0FFFE002835
:20428000039804D00FB0F0BD03980FB0F0BD0120019960540098E08400200FB0F0BD0398AA
:2042A000401E0FB0F0BDC0464C072020F0B585B00026F44302AB80201870474F3968786878
:2042C0000078897C012201F0D9FE002818D1642002F0C6F802AB1E70396878680078897CF8
:2042E00001252A4601F0CAFE002809D1396878680078897D062202ABFFF794FE002802D017
:20430000204605B0F0BD02A84179C907490FC278D207920F511840782840081846D00128AD
:2043200002D00228ECD13046F8742C48F881FF203874B874BC603D7328047E61BE61FE61A9
:2043400038623846233046708670C670067104AB1820187039687868007889792A4601F0CE
:204360008DFE0028CCD104A80078C0083872022001F0CCFA0028C3D12A2001F065FC0028FE
:20438000BED1322000F06CFE0028B9D1002001F029F90028B4D10025284600F0CBFE0028DC
:2043A000AED1284600F014FD2C46A9E7396878680078C978012202AB0192FFF733FE002821
:2043C0009ED1019A02A801780F20084098D004281046A9D0A7E7C0464C072020FFFF0000B1
:2043E00070B53A4987228A63394804230360CA6308220260374B9A1C0A600C680C604A608F
:204400004A684A600C68012255062C430C604C682C434C60304C23602568256081254D663A
:204420004B634E6B4E638D67CD678D604D61CD642646103E35602646143E35602646083E1C
:204440003560261F3560E363E66BE663E364E66CE6642362266A26622363266B2663E561A7
:204460008D64214618390D602365216D21651B491B4B0B6109231B070B601A4B0B641A4964
:204480000B6892031A430A600A690F239B0413430B6116490A6A164B1A430A620A681A437B
:2044A0000A6001464039612252020A60026011480168114A0A4302601048016A1122120556
:2044C0001143016201681143016070BD04804240D0320A4081000C00A080424090120A406D
:2044E000007343000073439090130A4028100A4080000006A0330A400003030028300A4006
:2045000070B5FF22D5053B4A0B461340AB4202D80240AA4202D900F03CFD70BD7F24E405A0
:20452000A14202D1FEF7CAFD70BDC60FCC0F6400A419002A0BD0AB420ED0002B01D0AA4253
:2045400026D10121C90708403149401870BD022CE3D3032C18D119E0AA420AD12848C046F9
:204560007C4424796400A74401022224D5E7274870BD00207C4424796400A7440102050713
:20458000CBE70120C00770BD1C4870BD1A4870BDD21AD2151A2A02DD1D48344612E0002944
:2045A00009D51923DB439A4205DA00200AE0164870BD144870BD01F0C7FA0121C90788437B
:2045C000FEF77CFD002CA8D0022C05D0012C0BD10121C907484070BD0E4900F0DAFC0146B2
:2045E000064800F0D1FC70BD0A4900F0D2FC024991E7C046FFFFFF7FDB0F49C0DB0F4940C7
:20460000DB0F493FE4CB16C0E4CB1640DB0F49BFDB0FC93F2EBDBB33F0B50125EE03404A9B
:2046200016602A073F4C22602346103BED071D601A60226025601A6022601D601A602260AB
:204640001D601A60226025601A6022604F07274600D51F463D601A6022608F07274600D5F2
:204660001F463D601A602260C907214600D019460D601A602A490E60226025601A6022600B
:2046800025601A60226025601A60226025601A6022600107214600D519460D601A6022608B
:2046A0004107214600D519460D601A6022608107274600D51F4641B23D601A602260C70725
:2046C000274600D01F463D601A60154F3E60226025601A60226025601A60226025601A609C
:2046E00022601D601A6022600029214600DA19460D601A6022604106214600D519460D603E
:204700001A6022608106214600D519460D601A602260C00600D51C4625601A60F0BDC04663
:20472000A0320A40A0120A40F0B583B00B460190384A394D28685168890612D42968091A2D
:20474000092952D8516889060BD42968091A09294BD85168890604D42968091A0A29EAD309
:2047600043E02E4C2E4F2F4E3846029301F028FD701E206038460199029A01F0A8FB0746D6
:204780002448001F0168284A0A40D03202600298000420490968254A0A408018C01D1D49F9
:2047A0000860F02001F05AFF029B1A4A2C681B4818380668B8B283420DD9916A0905090F4B
:2047C00009D001990918D81B82B2154801F07FFB029B104AC7191348C01E064205D1B00771
:2047E00012D42868001B0A28E1D3002414600C4D284601F0E5FC284601F002FE0748094911
:204800000160204603B0F0BDB8B2C01A44424441F7E7C04614120F400807202048100F40D3
:2048200000000F408304000000F8FFFFF8FF00F0F0B5394A8218394BC0183A4D4C790B79D7
:20484000002C22D0466F202B02D00524E70100E0354F2E40002B00D188273E434667846FB9
:204860002C403C438467446B2D4E34404463846B3440846300244465846554688F26F64373
:20488000344054609468344094600C688979202B09D006467036002B15D1641E4460C46E97
:2048A0002C40882715E0641E4460C46E2C401E4E3443C466046F2C40344304671B4D0124C9
:2048C0006707064607E00527FF0164084460C46E2C403C43C46634682C403C433460C46A6B
:2048E0000F4D2C40C462046B2C4004630024C4640465C46F8F25ED432C40C46714682C403D
:204900001460194302680A4B1340BD220A40D118891C0160F0BDC046841800000418000032
:204920008888FDFF24493E0001040000FFFFFFCF4000FFCFB0B53A4A80184A6842600A788A
:20494000222A56D8930001A4E3589F46E9490000F3490000E9490000F3490000F34900006D
:20496000F3490000F3490000F3490000F3490000F3490000F3490000F3490000F349000057
:20498000F3490000F3490000F3490000D9490000F3490000D9490000F3490000F34900006B
:2049A000F3490000F3490000F3490000F3490000F3490000F3490000F3490000F349000017
:2049C000F3490000F3490000F3490000D9490000F3490000D9490000036803242407A34300
:2049E000012464071B1903E0036803242407A34303600B69C360CB68C46A0A4D25400A4C00
:204A00001C402B19C3620368084C1C400460097A114302683F239A43194051180160B0BD42
:204A2000041800008888FDFF777702007F00FFFFF0B585B03D21384A1788BA07120F8258CC
:204A40007B0700D5524200260901039179080C2319403C091C400559FB0500D56D42F343E5
:204A6000029340580090D11710462A4A334601F05DFD0C468900800F40180190E917284642
:204A8000244A334601F052FD06460D46A00D04AA1070A00B5070A00990700198D070042163
:204AA000039C204601F046F9002802D0029805B0F0BD184A0099B80601D5484200E0084684
:204AC000C117002301F032FD8A00800F80188B0D04AA13708B0B537089099170D070201DD8
:204AE000042101F027F90028029801D005B0F0BDA800B10F0818A90D04AA1170A90B5170A9
:204B0000A9099170D07008340421204601F012F905B0F0BD09E3CA0290072020F0B585B014
:204B2000054600200190C0430290032128460840304B1C5C04AA1470EC06A40F1F5D5770FD
:204B40002F06BF0FDB5D93702B4B185C03AE3070185D7070D85D264FB070384601F0EAF86C
:204B6000002833D12E46019D381D032103AA01F0E1F800282AD104A8762181701F490180C7
:204B800003A81F49018066218170700705D504A83721017003A827210170B0062C4605D5DD
:204BA00004A85721417003A847214170F00505D504A87721817003A86721817038461A306C
:204BC000032104AA01F0B6F8002802D0029805B0F0BD0B37032103AA384601F0ABF8002821
:204BE000029802D107480680204605B0F0BDC046260400004774000044740000365600007C
:204C00002646000090072020F0B583B000902F492F480322170455030A680124A2430A607C
:204C200000263146324601F0FBFC29483146224601F0F6FC28480C210160019525480560DE
:204C40000297076025490E82254A16822548066146610676EFF3108772B6234B1B68234D56
:204C60002D68002F00D162B648C10E604E608E6060C2166056609660009F0F60176068C083
:204C8000066046608660C6600473124A0198106010461038A10301600299116021040160EB
:204CA0000B4D28463146324601F0BAFC28463146224601F0B5FC054A101F7D2189010160A2
:204CC00010682043106003B0F0BDC0460498864000808640A0120A40A0320A40BC06202061
:204CE000D0062020A0062020F8062020FC062020F0B581B029480024046029490C60294A18
:204D00001268130E02252B405201D20F9A18264B1A70264A1268D30C2B40D201D20F9A18EB
:204D2000234B1A70EFF3108372B602680868002B00D162B61F4F204914C73C607C60BC60AA
:204D400011C10C604C608C601C4E34607460B460F46034617461B461194801680125A943E8
:204D60000160184821462246083F01F059FC154821462A4601F054FC13480C210160032095
:204D80004103124A1160000410603C820A48048234617461347601B0F0BDC046F806202042
:204DA000FC06202080130A403C07202080330A403D072020BC062020D0062020A0062020D2
:204DC0000498864000808640A0320A40A0120A4070B582B00446002801D0002000E0402019
:204DE00066060122710F00D010466B4618702F4D296868680078897C01F040F9002820D1A8
:204E00006B461878BF2101402973002E03D50020A10603D503E00420A10600D4801C1021A0
:204E200021404A424A418018210700D438301870296868680078C97C012201F01FF9002804
:204E400004D00021C843A97202B070BDF720044222D02326A85D00281ED0A87C411E0246DA
:204E60008A41510001AA11702221695C002907D0002801D07D2000E07F20C04301A90870A8
:204E8000296868680078097D012201AB01F0F6F8002801D10020A855AC7200242C753220B9
:204EA00001F0DEFA204602B070BDC0464C072020F0B583B0FFF7FAF9002801D00A245CE027
:204EC00078252846FFF784FF002801D0012454E02B4E2420305C002806D0642000F0C0F889
:204EE000002820D0032448E0B77A0224002F44D0307C01902F403774707C00280CD102ABBC
:204F000001221A70316870680078C97B01F0B6F8002801D102987074FEF7DCFF002811D0C7
:204F20000198307429E001F03FFB000601D0042423E0144800F0F8FAFFF7F0FD000604D003
:204F400005241AE0782FC8D017E03020FDF75CFC000601D0062410E0642000F021FF0006D1
:204F600001D0072409E000F0B5F9012000F04AF9002801D1044600E00924E0B203B0F0BD17
:204F80004C07202078072020FCB40127FF07794002E0FCB40127FF070C024D002D0E03D1FE
:204FA000002C52D1FCBC70473C43FF2D50D0A408002900D56442020243001B0E04D1002AA9
:204FC00043D10800FCBC70473A43FF2B41D09208002800D552425E1B04D5170022003C009C
:204FE00076422B00192E06D527003741D2191C27F71B7F42BC40002A27D002D5524201275C
:2050000000E00027013B5200FCD51500802635400FD01500202635402C43803208D215003B
:20502000402635402C4304D101263602B24300E05B1C5200023308DDFF2B0BD2500ADB05F9
:205040001843FF073843FCBC70470020FCBC70470800C70FFF07FF20C0053843FCBC7047C4
:20506000F0B583B005460026F443314FB87A00285BD02420385C002857D1387D00280AD0CC
:20508000681E80B2272803D8E8B2FDF737FE4BE00020FDF733FE00967D20C600042D00D8F9
:2050A0000425B54200D335463046294601F028F8401E01AB1870396878680078497801251A
:2050C0002A4600F0DBFF00282FD101A80478611C304601F015F8F881B87A0028009E23D0F4
:2050E000022C10D3052C01D202250CE00B2C01D2032508E0192C01D2042504E0322C01D317
:20510000062500E0052502A80570F87AA8420BD03968786800788978012202AB00F0AEFF9D
:20512000002801D10298F8723446204603B0F0BD4C072020F0B581B00546314EB07CA842E8
:2051400001D1002459E00027FC43316870680078097901226B46FEF765FF002D18D00028E5
:205160004BD16B461878DF21014019703168706800780979012200F081FF00283DD10320B1
:2051800001F06EF92220305C00281FD07D201BE0002832D1B07A6B461978DF220A40C00791
:2051A000800E101818703168706800780979012200F064FF002820D1032001F051F9222017
:2051C000305C002803D07F20C04300E00220694608702321715C002903D030210843694625
:2051E0000870316870680078097D01226B4600F045FF002801D1B5743C46204601B0F0BD57
:205200004C072020F0B585B0314E2427F15D0024814259D0002835D02520305C00250028AE
:2052200051D0002902D1B07A00280CD002AB1D70316870680078C97B012200F01FFF002863
:2052400001D1029870742846FFF774FFF08CFFF707FF01AB1D7070680078232101252A464C
:2052600000F00CFFF55503AB02201870316870680078C97B2A4600F001FF002820D1039850
:2052800070741DE0002902D1B07A00280DD004AB00201870316870680078C97B012200F06B
:2052A000EDFE002801D104987074307C01AB1870706800782321012200F0E0FE0020F055BF
:2052C000FEF708FE00E0EC43204605B0F0BDC0464C072020B0B586B003A86946FCF7B8FCC7
:2052E000032809D1274D287A032809D0022805D0012807D1264C06E001243FE0234C02E0A2
:20530000244C00E0204C039800F0D2FF0146204600F0D4FB01F024F80390049800F0C8FF16
:205320000146204600F0CAFB01F01AF80490059800F0BEFF0146204600F0C0FB01F010F8D9
:20534000059003A8FFF774FB697A00240329204608D88800E97C002901D0104900E00E49B8
:2053600008180068009941430091019941430191029941430291684600F076F8204606B06D
:20538000B0BDC0464C07202000000343333303420000834233338341F87200000873000042
:2053A000F0B581B02649274A112005051046103807680846103804682C407801800F15D094
:2053C00000F01CFF20480068010E02220A404001C00F10181D490A7892008218D2B21C4B3E
:2053E0009A561C4B1E68B2181A6008700326002C15D000F021FF18480068C10C02220A40C7
:20540000C001C00F101815490A7892008218D2B20F4B9A56124B1C68A2181A6008707006F7
:20542000390602D50F4901220A70064A1168803008431060024908682843086001B0F0BD41
:2054400048300A4048100A4080130A403A07202000740000F006202080330A403B07202061
:20546000F40620203E072020F0B589B0064605AF384600F0ABFF2B4800888107090F725812
:20548000410700D5524241080C2421407558810600D56D42398803092340F358C0050494D1
:2054A00000D55B420393CC03D31700262046314601F03CF80F468900800F40180290EB17AA
:2054C000204631462A4601F031F80D468900800F40180190039AD3172046314601F026F89E
:2054E0008A00800F8018BB0D06AA1370BB0B5370BB099370029BD370AB0D1371AB0B53711A
:20550000AB099371019BD3718B0D13728B0B537289099172D072A5208000049900F00AFCCC
:2055200009B0F0BD9007202010B500228156002913460CDD03214456002C114617DD0624A6
:205540000457002C1BDD19431143084610BD00291FD40123C1560029ECDC00292DD402236A
:20556000C1560029E6DC002935D00623E2E7002C11D40421415600290FDD0821DFE7012215
:205580001202002CDFD407240457002C0DDD4022D9E70423CEE72021D1E700290FD4052153
:2055A000415600290FDD1021C9E7002C09D40824005700280BDD8022C5E70523BAE7282162
:2055C000BDE74032BFE7002907D03021B7E7002805D0802004E00723ACE73821AFE7C02013
:2055E0001218B0E7F0B585B00446284E2420305C002802D0002005B0F0BD0020C743B17AAF
:2056000000293FD0FE221440357C21403174A14200D0C043002C14D1317D002911D104465D
:2056200004AB00201870316870680078C97B012200F024FD002801D104987074204605B01D
:20564000F0BD717C002913D103AB01221A70316802917168097801910299C97B0290019826
:2056600000F00CFD01460298002901D103997174002CE4D00446FEF72DFC014620460029B6
:20568000DDD03574384605B0F0BDC0464C072020F0B58B4200D1824204D90B000200002129
:2056A000002040E0002B00D1002A0CD10B00020000210020002B00D1002A01D0C943C04353
:2056C00000F023F92FE01C0015000B0002000CB4002126002F00FF19764102D2491C4029CA
:2056E000F9D100201E001700FF19764102D2401C4028F9D10E1A21002800320000F028FFA0
:205700000C0005000CBC00200021A34200D1AA4201D3521BA341404149416D08E7073D43BA
:205720006408761EF1D5059F002F01D03A607B60F0BD7047F0B585B005460024E743244E41
:205740002420305C002840D0B07A00283DD002910392316870680078897A022204ABFEF706
:2057600061FC002831D104A8008842BAAA4203D200210398017028E07068418849080192F7
:205780008A420DD900783168497C012204ABFEF749FC002819D104A80078C00612D47068BB
:2057A00000783168C97AEAB2029BFEF73BFC00280BD10198294600F0A3FC411E039801702A
:2057C000274602E0FEF786FB7F1E384605B0F0BD4C07202070B51B4C2078022819D172B694
:2057E0001C48002505601C48056062B61B4805801B4E30681B4908603068FFF705FA306800
:2058000019490860194805700F4805800320207070BD092020700C480024048000F0F4FA99
:2058200003204103094A116000041060084D28462146224600F0F4FE01222846214600F06D
:20584000EFFE70BD810720202C072020A0120A4000808640F0062020F40620202E072020CC
:2058600008072020180720201407202041072020002A49D084468B071CD1830722D1102A54
:2058800008D370B4103A78C978C0103AFBD270BC103238D0042A2CD3082A05D30C2A01D378
:2058A00008C908C008C908C008C908C092072AD0920F22E00B780370491C401C521E22D0CE
:2058C0008B07F7D1C30714D18307D8D0121F12D308C903801B0C4380001D121FF8D20AE037
:2058E00008C903701B0A43701B0A83701B0AC370001D121FF4D2121D05D00B780370491CA9
:20590000401C521EF9D1604670477047F0B581B001460025E843194EB27A002A2BD04A1E50
:205920000B465340934226D9002907D04A420A4013495143C90E13A2515C00E02021491E28
:20594000032918D8CAB2C9006B461970717A914210D006CE1478C979012207462046083E50
:2059600000F08CFB01463846002904D168460078C0087072284601B0F0BDC0464C072020B8
:2059800031B57C0700011C021D0E18031E16140F191104081F1B0D17151310071A0C1206D1
:2059A0000B050A0970B582B01B491C4C204600F0EDFD1B492046FEF73BFF1A4801681A4A39
:2059C0000A40026000250095204629462A462B4600F006FE204629462A4600F0C9FD204656
:2059E00029462A4600F01CFE01260096204629462A462B4600F0F4FD20462946324600F02D
:205A0000B7FD20462946324600F00AFE074886600321016002B070BD4A74000000808640F0
:205A20003C740000049886407F00FFFF0091864040B542004B005E08164301D006004E40DA
:205A400000D4D01A04D20120C90F06D1404204E003D90120C90F00D04042FF263606B24200
:205A600000D8B34200D9012040BD40B542004B005E08164301D006004E4000D4D01A04D228
:205A80000120C90F06D1404204E003D90120C90F00D04042FF263606B24200D8B34201D9AD
:205AA0000120404240BD42004B000020FF2109068A4200D88B4200D901207047FCB4012770
:205AC000FF0706004E4001D4002600E03E00020243001B0E30D03A43FF2B30D00C024D00A1
:205AE0002D0E29D03C43FF2D29D05B194240504042404C4061404C4000B500F0F7FB20BC9A
:205B0000AE464240504042404C4061404C4025001400002C01D46400013B803401D30133AE
:205B200064087E3B08DDFF2B09D2BC43200ADB0518433043FCBC70470020FCBC7047FF2062
:205B4000C0053043FCBC7047FCB40127FF0706004E40F60FF607020243001B0E2DD03A4340
:205B6000FF2B2DD00C024D002D0E26D03C43FF2D26D05B1B0020202164085208A2424041CF
:205B8000A24200D3121B013904D0002A01D05200F4D18840384201D14000013B803001D3ED
:205BA000013300E040007F3307DDFF2B08D2400ADB0518433043FCBC70470020FCBC704701
:205BC000FF20C0053043FCBC70470000F8B5451C00780023082B32D02F78C2070CD16A78F2
:205BE0000F241440E41C122C0BD102242E57F4B2002E08D4EE1C0EE06D1C4A1C0F701146EC
:205C00001AE0AE1C08E02E1DED7800957F252C40009DED012C1912343D0112095219094D53
:205C2000AA420ED0D243002C05D08D5C4F1C0D70641E3946F7E7354640085B1CCAE728467B
:205C4000C5E7F8BDFF0F0000F0B581B001460025E843194EB27A002A27D0BB2901D90121D4
:205C600010E0612901D902210CE0292901D9032108E0132901D9042104E0092901D8062138
:205C800000E005216A461170F27A8A4211D006CE1478897801226B4607462046083E00F096
:205CA000EDF901463846002901D001B0F0BD0098F072284601B0F0BD4C07202000BF704712
:205CC0000CB41B4B4A00D21A1BD2000D0A03104301221202801802D3400812038918400A22
:205CE000002902D50122D20710434900490D38221201891A0CD4FF290DD2C90508430CBCDE
:205D00007047DB431A40024305D0D8430CBC704700200CBC7047C90FC907FF20C00508432A
:205D20000CBC7047C046C046C046C046C046C0460000E0FFF0B583B003460026F043002A3D
:205D40001CD0164FBC7A002C18D01C0A02AD2C706B70DBB25C187B685D89AC420ED800912D
:205D600001921D783968097E022202AB0446284600F084F901462046002901D003B0F0BDD6
:205D8000396878680078497D009AD2B2019B00F075F90028F2D0F04303B0F0BD4C0720201C
:205DA00070B586B00025EC43114905911149049111490391C82818D80646C1B2C82000F0F0
:205DC0009FF901AA1570401E50700C480221FFF7B1FF002809D10A480C2103AAFFF7AAFFF3
:205DE000002802D1074806802C46204606B070BDBBAFDFDFAAF1DFDFFEF2ABC41602000020
:205E0000C10A00009407202070B5114801680125A94301600F4E002430462146224600F0CC
:205E2000FFFB304621462A4600F0FAFB0A480C21016003204103094A116000041060084867
:205E4000048208480482084804614461048370BD0498864000808640A0320A40A0120A4018
:205E6000BC062020D0062020A00620208446830706D0002A29D001700130013A8307F8D1A7
:205E8000042A1CD30906090E0B0219430B041943082A10D30B00102A09D370B40F24161B2D
:205EA00022400C000D003AC0103EFCD870BC082A01D30AC0083A042A01D302C0043A002AE1
:205EC00003D0013A8154013AFCD260467047F0B581B0002A22D091235B01C3180F20040267
:205EE000901E0090561E0020DF6927421BD00F5C1F60864210D0DF69274211D00F187D78F4
:205F00001D60009D854207D0DD6925420AD0BD781D60C01C8242E7D1104604E0002002E0FC
:205F2000401C00E0801C80B201B0F0BD10B5FFF77FFD002801D0002010BD012010BD10B529
:205F4000FFF776FD002801DB002010BD012010BD10B5FFF76DFD002801DD002010BD0120C0
:205F600010BD10B5FFF781FD002801DA002010BD012010BD10B5FFF778FD002801DC0020E8
:205F800010BD012010BD00001CB5002922D04C08002900D5494242105440002800D5404218
:205FA00000230A00904201D95200FBE790425B41904200D3801A914201D25208F6E7190031
:205FC000002C00D54042640000D549420200080011001CBD01000020FFF7ABFB1CBD0000F0
:205FE00080B51149114800F08DFA11480168032252020A430260026801210B021343036006
:206000000022426107224262836B93438363836B120293438363826A042313438362826A4C
:206020000A43826280BDC046D672000000000F4000120F40B0B50A480A4941600A4A516044
:206040000A4B59600A4C61600A4D69600A4901601160196021602960102000F0FFFAB0BDCD
:2060600000080A40030000B100280A40008886400048084000080F400100002610B58AB04D
:2060800004460020C043682C05D1202A03D8002A03D0002B01D10AB010BD01A80170002A3F
:2060A00006D001A8401C1946144600F0E5FA2246501CC1B201A8FEF737FB401E0AB010BD81
:2060C0000D48002101600D48011F0A680323DB4313400B6041680122914341604168120202
:2060E00091434160016830229143016001680F22914301607047C04608030B4004010B4009
:206100001CB50A0017D000230124E407A04200D20400944201D95200FBE790425B419042AE
:2061200000D3801A914201D25208F6E719000200080011001CBD01000020FFF7FAFA1CBD24
:2061400008B443001B0E0FD0FF2B11D00721C9015B18C10FC9020B43010048074902090B30
:206160001B05194308BC70470021002008BC704701004002C90DC900C91D090508BC70471B
:20618000F0B585B00A9CCD17DE1769406840401BA94173407240921BB3416E4002AF009714
:2061A000FFF776FA71407040801BB141029A039B6B406A40521BAB410CC405B0F0BD000071
:2061C00070B50D4D41190F2212020123DC02465980231E43465148681040A04207D04868FC
:2061E0001040A04203D048681040A042F3D108689843086070BDC0463812000010B50A48AD
:206200000068010E02220A404001C00F101807490A7892008218D2B2054B9A56054B1C68CB
:20622000A2181A60087010BD80130A403C07202010740000F806202010B50A480068C10C77
:2062400002220A40C001C00F101807490A7892008218D2B2054B9A56054B1C68A2181A604E
:20626000087010BD80330A403D07202010740000FC06202070B50A480A4C84420CD00A4DCC
:206280000A4EB54208D02A686968501C12789200A25890470835F4E700BF00BF70BDC04652
:2062A0008074000074740000887400009874000006B49E22002802D404D106BC70474142B1
:2062C00004D400E00100013A4900FCD5803101D3013200E04900490AD2051143002802D552
:2062E0000122D2071143080006BC7047FCB4020C0B0CFF242402FF34204021400C00444328
:2063000015005D4306005E430F005743320C3B0CA818C01832043B040025A1186841C9187E
:206320006841FCBC7047000010B50849084C204600F02CF907492046FEF7FCFA0648016808
:206340000122114301600548026010BD4D74000000400840EC7300002850084008510840E0
:2063600006B54100090E7F390DD41F22511A0CD9864600020122D2071043C8407246002AD9
:2063800000D5404206BD002006BD02000120C007002A00D4401E06BD10B50146084A537ACC
:2063A0000020032B0AD8DB00064CDC400C70D27C002A02D0044ADA400A7010BDC04310BD1F
:2063C0004C0720200204081004081020B0B50146084A537A0020032B0AD85B00064CE45AEA
:2063E000064DEB5A0C80D27C002A00D00B80B0BDC043B0BD4C072020D4730000DC730000A0
:2064000010B50A4BC118C4580122D2031443C4504868000705D04868000702D0486800073E
:20642000F6D108689043086010BDC0463812000008480068C0B201280AD107480168491D81
:20644000016006480178012902D80178491C01707047C0462050084008072020380720207E
:2064600009490A680B689B1A83420BD230BF0B689B1A834206D230BF0B689B1A834201D22B
:2064800030BFEFE77047C0460807202080B5FFF7D1FDFDF7A5FFFFF713FEFFF783FAFFF72A
:2064A00043FFFFF79DFD02489C210022425480BD00062020084880F3088800BF00BF00F007
:2064C00007F9002801D0FFF7D5FE0020F9F7F8FD012000F0EDF8C0460080202002B49E21C4
:2064E000002805D401D102BC704701394000FCD5803001D3013100E04000400AC9050843D0
:2065000002BC704770B50122120383180C785D680C26B54334402C195C604978835807245F
:20652000A34321405918815070BD000030B514004C4325001C00444364190500100029009A
:20654000FFF7D4FE001904000D002100280030BD18B520239B1A04D8010000205B429940DB
:2065600004E004009140DC402143904018BD000010B592008018044A83580724A404A3436C
:2065800021405918815010BD3018000010B50122120383180C789C604B7883508978014A49
:2065A000815010BD0C11000080B50449012082020348C823FDF7D8FD80BDC046E066000071
:2065C000F60B00000B4611461A4680B5FFF74EFC80BD0A46002180B5FFF748FC80BD0000E3
:2065E00010B5029CA400001911431943014A815010BDC0465018000040B584B002AE009605
:20660000FFF7BEFD029A039B04B040BD80B50B4603214258C11D184600F02EF880BD00000B
:2066200092008018014A81507047C04610180000002802D001490968016070470807202013
:2066400080B50A46032141581046FFF7C2FF80BD0148407E7047C046A0062020811E091F3D
:2066600000BFFCD2704780B5FCF73CFC80BD0000004870478407202080B5FFF7F9F880BD16
:206680000146304600E0000082B00094014C019410BD00BFBD5A00000146204600E0000085
:2066A00082B00094014C019410BD00BF495B0000FFF704FBFEE7284600E0000082B0009414
:2066C000014C019410BD00BF934F0000F2E670470120704700000000000000000000000003
:2066E0000000700000000024000000020003000000650054FFEF0000FA80000B1282000140
:20670000030C30C30E8C8CE914D5400213710F8E3883F8833000F883258EF8833000F88362
:20672000FFFFFFFF0FFEA9D6240004001A8279A10000003CFFFF00000010000038836FA2DD
:20674000003E03304000000002CAE3093E8000002000000000000000400000006000000052
:20676000000C0000000C186E000006920A16C0DFFFFF0256FD8CD377FFE1C496E0C5BEAAB4
:2067800000000000FFFF0B2B00001657000003594000000000001DFA00026C1D000000001A
:2067A0003FFFDFEB003EB3B6000D227800002F3C00000000001942B5000039A20000B36515
:2067C000D90E9FC91DCF4C3430000000500000003BB67AE80064000000C8000000000000FF
:2067E000100000001000FA921000225E000D229F0001000000320000FF46000063D40000E0
:206800001000000004D6000004CC000004CC0000000010720000004000000000000000002C
:20682000000600020005000700000000006400000000000000000005000500640020000052
:206840000000000000000000000040000000030000000032F8980000FF650000830F00003D
:20686000FF9BFC000000000000000000000000000000000000000000000000000000000082
:206880000000000000000000000000000000100040000000000000060000B26A0002000084
:2068A0000001FB830068000000D9FC007CF1FF830000000000650000006403E800640028ED
:2068C000000000250000000016A000000000100000001000002F0000000001F40000100089
:2068E00000280000FFFF4581FFFFFA720000000000000000004400050005BAC6004778A213
:20690000000000010000000000000600000000140000254D002F706D000005AE000C02D04D
:2069200000000000000000000000000000000000001B00000000000000000000000000003C
